{
	"contracts/Garage.sol": {
		"Garage": {
			"abi": [
				{
					"inputs": [
						{
							"internalType": "uint256",
							"name": "carID",
							"type": "uint256"
						},
						{
							"internalType": "string",
							"name": "carName",
							"type": "string"
						},
						{
							"internalType": "bool",
							"name": "status",
							"type": "bool"
						}
					],
					"name": "addingCar",
					"outputs": [],
					"stateMutability": "nonpayable",
					"type": "function"
				},
				{
					"inputs": [
						{
							"internalType": "uint256",
							"name": "",
							"type": "uint256"
						}
					],
					"name": "carList",
					"outputs": [
						{
							"internalType": "contract Car",
							"name": "",
							"type": "address"
						}
					],
					"stateMutability": "view",
					"type": "function"
				},
				{
					"inputs": [],
					"name": "getCars",
					"outputs": [
						{
							"internalType": "contract Car[]",
							"name": "",
							"type": "address[]"
						}
					],
					"stateMutability": "view",
					"type": "function"
				}
			],
			"devdoc": {
				"kind": "dev",
				"methods": {},
				"version": 1
			},
			"evm": {
				"assembly": "    /* \"contracts/Garage.sol\":58:379  contract Garage {\r... */\n  mstore(0x40, 0x80)\n    /* \"contracts/Garage.sol\":125:126  5 */\n  0x05\n    /* \"contracts/Garage.sol\":115:127  new Car[](5) */\n  0xffffffffffffffff\n  dup2\n  gt\n  iszero\n  tag_1\n  jumpi\n  tag_2\n  tag_3\n  jump\t// in\ntag_2:\ntag_1:\n  mload(0x40)\n  swap1\n  dup1\n  dup3\n  mstore\n  dup1\n  0x20\n  mul\n  0x20\n  add\n  dup3\n  add\n  0x40\n  mstore\n  dup1\n  iszero\n  tag_4\n  jumpi\n  dup2\n  0x20\n  add\n  0x20\n  dup3\n  mul\n  dup1\n  calldatasize\n  dup4\n  calldatacopy\n  dup1\n  dup3\n  add\n  swap2\n  pop\n  pop\n  swap1\n  pop\ntag_4:\n  pop\n    /* \"contracts/Garage.sol\":92:127  Car[] public carList = new Car[](5) */\n  0x00\n  swap1\n  dup1\n  mload\n  swap1\n  0x20\n  add\n  swap1\n  tag_5\n  swap3\n  swap2\n  swap1\n  tag_6\n  jump\t// in\ntag_5:\n  pop\n    /* \"contracts/Garage.sol\":58:379  contract Garage {\r... */\n  callvalue\n  dup1\n  iszero\n  tag_7\n  jumpi\n  0x00\n  dup1\n  revert\ntag_7:\n  pop\n  jump(tag_8)\ntag_6:\n  dup3\n  dup1\n  sload\n  dup3\n  dup3\n  sstore\n  swap1\n  0x00\n  mstore\n  keccak256(0x00, 0x20)\n  swap1\n  dup2\n  add\n  swap3\n  dup3\n  iszero\n  tag_9\n  jumpi\n  swap2\n  0x20\n  mul\n  dup3\n  add\ntag_10:\n  dup3\n  dup2\n  gt\n  iszero\n  tag_11\n  jumpi\n  dup3\n  mload\n  dup3\n  exp(0x0100, 0x00)\n  dup2\n  sload\n  dup2\n  0xffffffffffffffffffffffffffffffffffffffff\n  mul\n  not\n  and\n  swap1\n  dup4\n  0xffffffffffffffffffffffffffffffffffffffff\n  and\n  mul\n  or\n  swap1\n  sstore\n  pop\n  swap2\n  0x20\n  add\n  swap2\n  swap1\n  0x01\n  add\n  swap1\n  jump(tag_10)\ntag_11:\ntag_9:\n  pop\n  swap1\n  pop\n  tag_12\n  swap2\n  swap1\n  tag_13\n  jump\t// in\ntag_12:\n  pop\n  swap1\n  jump\t// out\ntag_13:\ntag_14:\n  dup1\n  dup3\n  gt\n  iszero\n  tag_15\n  jumpi\n  0x00\n  dup2\n  0x00\n  swap1\n  sstore\n  pop\n  0x01\n  add\n  jump(tag_14)\ntag_15:\n  pop\n  swap1\n  jump\t// out\n    /* \"#utility.yul\":7:187   */\ntag_3:\n    /* \"#utility.yul\":55:132   */\n  0x4e487b7100000000000000000000000000000000000000000000000000000000\n    /* \"#utility.yul\":52:53   */\n  0x00\n    /* \"#utility.yul\":45:133   */\n  mstore\n    /* \"#utility.yul\":152:156   */\n  0x41\n    /* \"#utility.yul\":149:150   */\n  0x04\n    /* \"#utility.yul\":142:157   */\n  mstore\n    /* \"#utility.yul\":176:180   */\n  0x24\n    /* \"#utility.yul\":173:174   */\n  0x00\n    /* \"#utility.yul\":166:181   */\n  revert\n    /* \"contracts/Garage.sol\":58:379  contract Garage {\r... */\ntag_8:\n  dataSize(sub_0)\n  dup1\n  dataOffset(sub_0)\n  0x00\n  codecopy\n  0x00\n  return\nstop\n\nsub_0: assembly {\n        /* \"contracts/Garage.sol\":58:379  contract Garage {\r... */\n      mstore(0x40, 0x80)\n      callvalue\n      dup1\n      iszero\n      tag_1\n      jumpi\n      0x00\n      dup1\n      revert\n    tag_1:\n      pop\n      jumpi(tag_2, lt(calldatasize, 0x04))\n      shr(0xe0, calldataload(0x00))\n      dup1\n      0x17c39286\n      eq\n      tag_3\n      jumpi\n      dup1\n      0x34f719e1\n      eq\n      tag_4\n      jumpi\n      dup1\n      0x8fe7cdf6\n      eq\n      tag_5\n      jumpi\n    tag_2:\n      0x00\n      dup1\n      revert\n        /* \"contracts/Garage.sol\":288:374  function getCars() view public returns (Car[] memory){\r... */\n    tag_3:\n      tag_6\n      tag_7\n      jump\t// in\n    tag_6:\n      mload(0x40)\n      tag_8\n      swap2\n      swap1\n      tag_9\n      jump\t// in\n    tag_8:\n      mload(0x40)\n      dup1\n      swap2\n      sub\n      swap1\n      return\n        /* \"contracts/Garage.sol\":142:280  function addingCar(uint carID, string memory carName, bool status) public {\r... */\n    tag_4:\n      tag_10\n      0x04\n      dup1\n      calldatasize\n      sub\n      dup2\n      add\n      swap1\n      tag_11\n      swap2\n      swap1\n      tag_12\n      jump\t// in\n    tag_11:\n      tag_13\n      jump\t// in\n    tag_10:\n      stop\n        /* \"contracts/Garage.sol\":92:127  Car[] public carList = new Car[](5) */\n    tag_5:\n      tag_14\n      0x04\n      dup1\n      calldatasize\n      sub\n      dup2\n      add\n      swap1\n      tag_15\n      swap2\n      swap1\n      tag_16\n      jump\t// in\n    tag_15:\n      tag_17\n      jump\t// in\n    tag_14:\n      mload(0x40)\n      tag_18\n      swap2\n      swap1\n      tag_19\n      jump\t// in\n    tag_18:\n      mload(0x40)\n      dup1\n      swap2\n      sub\n      swap1\n      return\n        /* \"contracts/Garage.sol\":288:374  function getCars() view public returns (Car[] memory){\r... */\n    tag_7:\n        /* \"contracts/Garage.sol\":328:340  Car[] memory */\n      0x60\n        /* \"contracts/Garage.sol\":359:366  carList */\n      0x00\n        /* \"contracts/Garage.sol\":352:366  return carList */\n      dup1\n      sload\n      dup1\n      0x20\n      mul\n      0x20\n      add\n      mload(0x40)\n      swap1\n      dup2\n      add\n      0x40\n      mstore\n      dup1\n      swap3\n      swap2\n      swap1\n      dup2\n      dup2\n      mstore\n      0x20\n      add\n      dup3\n      dup1\n      sload\n      dup1\n      iszero\n      tag_21\n      jumpi\n      0x20\n      mul\n      dup3\n      add\n      swap2\n      swap1\n      0x00\n      mstore\n      keccak256(0x00, 0x20)\n      swap1\n    tag_22:\n      dup2\n      0x00\n      swap1\n      sload\n      swap1\n      0x0100\n      exp\n      swap1\n      div\n      0xffffffffffffffffffffffffffffffffffffffff\n      and\n      0xffffffffffffffffffffffffffffffffffffffff\n      and\n      dup2\n      mstore\n      0x20\n      add\n      swap1\n      0x01\n      add\n      swap1\n      dup1\n      dup4\n      gt\n      tag_22\n      jumpi\n    tag_21:\n      pop\n      pop\n      pop\n      pop\n      pop\n      swap1\n      pop\n        /* \"contracts/Garage.sol\":288:374  function getCars() view public returns (Car[] memory){\r... */\n      swap1\n      jump\t// out\n        /* \"contracts/Garage.sol\":142:280  function addingCar(uint carID, string memory carName, bool status) public {\r... */\n    tag_13:\n        /* \"contracts/Garage.sol\":227:234  carList */\n      0x00\n        /* \"contracts/Garage.sol\":248:253  carID */\n      dup4\n        /* \"contracts/Garage.sol\":255:262  carName */\n      dup4\n        /* \"contracts/Garage.sol\":264:270  status */\n      dup4\n        /* \"contracts/Garage.sol\":240:271  new Car(carID, carName, status) */\n      mload(0x40)\n      tag_24\n      swap1\n      tag_25\n      jump\t// in\n    tag_24:\n      tag_26\n      swap4\n      swap3\n      swap2\n      swap1\n      tag_27\n      jump\t// in\n    tag_26:\n      mload(0x40)\n      dup1\n      swap2\n      sub\n      swap1\n      0x00\n      create\n      dup1\n      iszero\n      dup1\n      iszero\n      tag_28\n      jumpi\n      returndatasize\n      0x00\n      dup1\n      returndatacopy\n      revert(0x00, returndatasize)\n    tag_28:\n      pop\n        /* \"contracts/Garage.sol\":227:272  carList.push(new Car(carID, carName, status)) */\n      swap1\n      dup1\n      0x01\n      dup2\n      sload\n      add\n      dup1\n      dup3\n      sstore\n      dup1\n      swap2\n      pop\n      pop\n      0x01\n      swap1\n      sub\n      swap1\n      0x00\n      mstore\n      keccak256(0x00, 0x20)\n      add\n      0x00\n      swap1\n      swap2\n      swap1\n      swap2\n      swap1\n      swap2\n      0x0100\n      exp\n      dup2\n      sload\n      dup2\n      0xffffffffffffffffffffffffffffffffffffffff\n      mul\n      not\n      and\n      swap1\n      dup4\n      0xffffffffffffffffffffffffffffffffffffffff\n      and\n      mul\n      or\n      swap1\n      sstore\n      pop\n        /* \"contracts/Garage.sol\":142:280  function addingCar(uint carID, string memory carName, bool status) public {\r... */\n      pop\n      pop\n      pop\n      jump\t// out\n        /* \"contracts/Garage.sol\":92:127  Car[] public carList = new Car[](5) */\n    tag_17:\n      0x00\n      dup2\n      dup2\n      sload\n      dup2\n      lt\n      tag_30\n      jumpi\n      0x00\n      dup1\n      revert\n    tag_30:\n      swap1\n      0x00\n      mstore\n      keccak256(0x00, 0x20)\n      add\n      0x00\n      swap2\n      pop\n      sload\n      swap1\n      0x0100\n      exp\n      swap1\n      div\n      0xffffffffffffffffffffffffffffffffffffffff\n      and\n      dup2\n      jump\t// out\n    tag_25:\n      dataSize(sub_0)\n      dup1\n      dataOffset(sub_0)\n      dup4\n      codecopy\n      add\n      swap1\n      jump\t// out\n        /* \"#utility.yul\":7:419   */\n    tag_33:\n        /* \"#utility.yul\":85:90   */\n      0x00\n        /* \"#utility.yul\":110:176   */\n      tag_35\n        /* \"#utility.yul\":126:175   */\n      tag_36\n        /* \"#utility.yul\":168:174   */\n      dup5\n        /* \"#utility.yul\":126:175   */\n      tag_37\n      jump\t// in\n    tag_36:\n        /* \"#utility.yul\":110:176   */\n      tag_38\n      jump\t// in\n    tag_35:\n        /* \"#utility.yul\":101:176   */\n      swap1\n      pop\n        /* \"#utility.yul\":199:205   */\n      dup3\n        /* \"#utility.yul\":192:197   */\n      dup2\n        /* \"#utility.yul\":185:206   */\n      mstore\n        /* \"#utility.yul\":237:241   */\n      0x20\n        /* \"#utility.yul\":230:235   */\n      dup2\n        /* \"#utility.yul\":226:242   */\n      add\n        /* \"#utility.yul\":275:278   */\n      dup5\n        /* \"#utility.yul\":266:272   */\n      dup5\n        /* \"#utility.yul\":261:264   */\n      dup5\n        /* \"#utility.yul\":257:273   */\n      add\n        /* \"#utility.yul\":254:279   */\n      gt\n        /* \"#utility.yul\":251:363   */\n      iszero\n      tag_39\n      jumpi\n        /* \"#utility.yul\":282:361   */\n      tag_40\n      tag_41\n      jump\t// in\n    tag_40:\n        /* \"#utility.yul\":251:363   */\n    tag_39:\n        /* \"#utility.yul\":372:413   */\n      tag_42\n        /* \"#utility.yul\":406:412   */\n      dup5\n        /* \"#utility.yul\":401:404   */\n      dup3\n        /* \"#utility.yul\":396:399   */\n      dup6\n        /* \"#utility.yul\":372:413   */\n      tag_43\n      jump\t// in\n    tag_42:\n        /* \"#utility.yul\":91:419   */\n      pop\n        /* \"#utility.yul\":7:419   */\n      swap4\n      swap3\n      pop\n      pop\n      pop\n      jump\t// out\n        /* \"#utility.yul\":425:558   */\n    tag_44:\n        /* \"#utility.yul\":468:473   */\n      0x00\n        /* \"#utility.yul\":506:512   */\n      dup2\n        /* \"#utility.yul\":493:513   */\n      calldataload\n        /* \"#utility.yul\":484:513   */\n      swap1\n      pop\n        /* \"#utility.yul\":522:552   */\n      tag_46\n        /* \"#utility.yul\":546:551   */\n      dup2\n        /* \"#utility.yul\":522:552   */\n      tag_47\n      jump\t// in\n    tag_46:\n        /* \"#utility.yul\":425:558   */\n      swap3\n      swap2\n      pop\n      pop\n      jump\t// out\n        /* \"#utility.yul\":578:918   */\n    tag_48:\n        /* \"#utility.yul\":634:639   */\n      0x00\n        /* \"#utility.yul\":683:686   */\n      dup3\n        /* \"#utility.yul\":676:680   */\n      0x1f\n        /* \"#utility.yul\":668:674   */\n      dup4\n        /* \"#utility.yul\":664:681   */\n      add\n        /* \"#utility.yul\":660:687   */\n      slt\n        /* \"#utility.yul\":650:772   */\n      tag_50\n      jumpi\n        /* \"#utility.yul\":691:770   */\n      tag_51\n      tag_52\n      jump\t// in\n    tag_51:\n        /* \"#utility.yul\":650:772   */\n    tag_50:\n        /* \"#utility.yul\":808:814   */\n      dup2\n        /* \"#utility.yul\":795:815   */\n      calldataload\n        /* \"#utility.yul\":833:912   */\n      tag_53\n        /* \"#utility.yul\":908:911   */\n      dup5\n        /* \"#utility.yul\":900:906   */\n      dup3\n        /* \"#utility.yul\":893:897   */\n      0x20\n        /* \"#utility.yul\":885:891   */\n      dup7\n        /* \"#utility.yul\":881:898   */\n      add\n        /* \"#utility.yul\":833:912   */\n      tag_33\n      jump\t// in\n    tag_53:\n        /* \"#utility.yul\":824:912   */\n      swap2\n      pop\n        /* \"#utility.yul\":640:918   */\n      pop\n        /* \"#utility.yul\":578:918   */\n      swap3\n      swap2\n      pop\n      pop\n      jump\t// out\n        /* \"#utility.yul\":924:1063   */\n    tag_54:\n        /* \"#utility.yul\":970:975   */\n      0x00\n        /* \"#utility.yul\":1008:1014   */\n      dup2\n        /* \"#utility.yul\":995:1015   */\n      calldataload\n        /* \"#utility.yul\":986:1015   */\n      swap1\n      pop\n        /* \"#utility.yul\":1024:1057   */\n      tag_56\n        /* \"#utility.yul\":1051:1056   */\n      dup2\n        /* \"#utility.yul\":1024:1057   */\n      tag_57\n      jump\t// in\n    tag_56:\n        /* \"#utility.yul\":924:1063   */\n      swap3\n      swap2\n      pop\n      pop\n      jump\t// out\n        /* \"#utility.yul\":1069:1398   */\n    tag_16:\n        /* \"#utility.yul\":1128:1134   */\n      0x00\n        /* \"#utility.yul\":1177:1179   */\n      0x20\n        /* \"#utility.yul\":1165:1174   */\n      dup3\n        /* \"#utility.yul\":1156:1163   */\n      dup5\n        /* \"#utility.yul\":1152:1175   */\n      sub\n        /* \"#utility.yul\":1148:1180   */\n      slt\n        /* \"#utility.yul\":1145:1264   */\n      iszero\n      tag_59\n      jumpi\n        /* \"#utility.yul\":1183:1262   */\n      tag_60\n      tag_61\n      jump\t// in\n    tag_60:\n        /* \"#utility.yul\":1145:1264   */\n    tag_59:\n        /* \"#utility.yul\":1303:1304   */\n      0x00\n        /* \"#utility.yul\":1328:1381   */\n      tag_62\n        /* \"#utility.yul\":1373:1380   */\n      dup5\n        /* \"#utility.yul\":1364:1370   */\n      dup3\n        /* \"#utility.yul\":1353:1362   */\n      dup6\n        /* \"#utility.yul\":1349:1371   */\n      add\n        /* \"#utility.yul\":1328:1381   */\n      tag_54\n      jump\t// in\n    tag_62:\n        /* \"#utility.yul\":1318:1381   */\n      swap2\n      pop\n        /* \"#utility.yul\":1274:1391   */\n      pop\n        /* \"#utility.yul\":1069:1398   */\n      swap3\n      swap2\n      pop\n      pop\n      jump\t// out\n        /* \"#utility.yul\":1404:2197   */\n    tag_12:\n        /* \"#utility.yul\":1488:1494   */\n      0x00\n        /* \"#utility.yul\":1496:1502   */\n      dup1\n        /* \"#utility.yul\":1504:1510   */\n      0x00\n        /* \"#utility.yul\":1553:1555   */\n      0x60\n        /* \"#utility.yul\":1541:1550   */\n      dup5\n        /* \"#utility.yul\":1532:1539   */\n      dup7\n        /* \"#utility.yul\":1528:1551   */\n      sub\n        /* \"#utility.yul\":1524:1556   */\n      slt\n        /* \"#utility.yul\":1521:1640   */\n      iszero\n      tag_64\n      jumpi\n        /* \"#utility.yul\":1559:1638   */\n      tag_65\n      tag_61\n      jump\t// in\n    tag_65:\n        /* \"#utility.yul\":1521:1640   */\n    tag_64:\n        /* \"#utility.yul\":1679:1680   */\n      0x00\n        /* \"#utility.yul\":1704:1757   */\n      tag_66\n        /* \"#utility.yul\":1749:1756   */\n      dup7\n        /* \"#utility.yul\":1740:1746   */\n      dup3\n        /* \"#utility.yul\":1729:1738   */\n      dup8\n        /* \"#utility.yul\":1725:1747   */\n      add\n        /* \"#utility.yul\":1704:1757   */\n      tag_54\n      jump\t// in\n    tag_66:\n        /* \"#utility.yul\":1694:1757   */\n      swap4\n      pop\n        /* \"#utility.yul\":1650:1767   */\n      pop\n        /* \"#utility.yul\":1834:1836   */\n      0x20\n        /* \"#utility.yul\":1823:1832   */\n      dup5\n        /* \"#utility.yul\":1819:1837   */\n      add\n        /* \"#utility.yul\":1806:1838   */\n      calldataload\n        /* \"#utility.yul\":1865:1883   */\n      0xffffffffffffffff\n        /* \"#utility.yul\":1857:1863   */\n      dup2\n        /* \"#utility.yul\":1854:1884   */\n      gt\n        /* \"#utility.yul\":1851:1968   */\n      iszero\n      tag_67\n      jumpi\n        /* \"#utility.yul\":1887:1966   */\n      tag_68\n      tag_69\n      jump\t// in\n    tag_68:\n        /* \"#utility.yul\":1851:1968   */\n    tag_67:\n        /* \"#utility.yul\":1992:2055   */\n      tag_70\n        /* \"#utility.yul\":2047:2054   */\n      dup7\n        /* \"#utility.yul\":2038:2044   */\n      dup3\n        /* \"#utility.yul\":2027:2036   */\n      dup8\n        /* \"#utility.yul\":2023:2045   */\n      add\n        /* \"#utility.yul\":1992:2055   */\n      tag_48\n      jump\t// in\n    tag_70:\n        /* \"#utility.yul\":1982:2055   */\n      swap3\n      pop\n        /* \"#utility.yul\":1777:2065   */\n      pop\n        /* \"#utility.yul\":2104:2106   */\n      0x40\n        /* \"#utility.yul\":2130:2180   */\n      tag_71\n        /* \"#utility.yul\":2172:2179   */\n      dup7\n        /* \"#utility.yul\":2163:2169   */\n      dup3\n        /* \"#utility.yul\":2152:2161   */\n      dup8\n        /* \"#utility.yul\":2148:2170   */\n      add\n        /* \"#utility.yul\":2130:2180   */\n      tag_44\n      jump\t// in\n    tag_71:\n        /* \"#utility.yul\":2120:2180   */\n      swap2\n      pop\n        /* \"#utility.yul\":2075:2190   */\n      pop\n        /* \"#utility.yul\":1404:2197   */\n      swap3\n      pop\n      swap3\n      pop\n      swap3\n      jump\t// out\n        /* \"#utility.yul\":2203:2402   */\n    tag_72:\n        /* \"#utility.yul\":2282:2292   */\n      0x00\n        /* \"#utility.yul\":2303:2359   */\n      tag_74\n        /* \"#utility.yul\":2355:2358   */\n      dup4\n        /* \"#utility.yul\":2347:2353   */\n      dup4\n        /* \"#utility.yul\":2303:2359   */\n      tag_75\n      jump\t// in\n    tag_74:\n        /* \"#utility.yul\":2391:2395   */\n      0x20\n        /* \"#utility.yul\":2386:2389   */\n      dup4\n        /* \"#utility.yul\":2382:2396   */\n      add\n        /* \"#utility.yul\":2368:2396   */\n      swap1\n      pop\n        /* \"#utility.yul\":2203:2402   */\n      swap3\n      swap2\n      pop\n      pop\n      jump\t// out\n        /* \"#utility.yul\":2443:3225   */\n    tag_76:\n        /* \"#utility.yul\":2572:2575   */\n      0x00\n        /* \"#utility.yul\":2601:2665   */\n      tag_78\n        /* \"#utility.yul\":2659:2664   */\n      dup3\n        /* \"#utility.yul\":2601:2665   */\n      tag_79\n      jump\t// in\n    tag_78:\n        /* \"#utility.yul\":2681:2767   */\n      tag_80\n        /* \"#utility.yul\":2760:2766   */\n      dup2\n        /* \"#utility.yul\":2755:2758   */\n      dup6\n        /* \"#utility.yul\":2681:2767   */\n      tag_81\n      jump\t// in\n    tag_80:\n        /* \"#utility.yul\":2674:2767   */\n      swap4\n      pop\n        /* \"#utility.yul\":2791:2857   */\n      tag_82\n        /* \"#utility.yul\":2851:2856   */\n      dup4\n        /* \"#utility.yul\":2791:2857   */\n      tag_83\n      jump\t// in\n    tag_82:\n        /* \"#utility.yul\":2880:2887   */\n      dup1\n        /* \"#utility.yul\":2911:2912   */\n      0x00\n        /* \"#utility.yul\":2896:3200   */\n    tag_84:\n        /* \"#utility.yul\":2921:2927   */\n      dup4\n        /* \"#utility.yul\":2918:2919   */\n      dup2\n        /* \"#utility.yul\":2915:2928   */\n      lt\n        /* \"#utility.yul\":2896:3200   */\n      iszero\n      tag_86\n      jumpi\n        /* \"#utility.yul\":2997:3003   */\n      dup2\n        /* \"#utility.yul\":2991:3004   */\n      mload\n        /* \"#utility.yul\":3024:3097   */\n      tag_87\n        /* \"#utility.yul\":3093:3096   */\n      dup9\n        /* \"#utility.yul\":3078:3091   */\n      dup3\n        /* \"#utility.yul\":3024:3097   */\n      tag_72\n      jump\t// in\n    tag_87:\n        /* \"#utility.yul\":3017:3097   */\n      swap8\n      pop\n        /* \"#utility.yul\":3120:3190   */\n      tag_88\n        /* \"#utility.yul\":3183:3189   */\n      dup4\n        /* \"#utility.yul\":3120:3190   */\n      tag_89\n      jump\t// in\n    tag_88:\n        /* \"#utility.yul\":3110:3190   */\n      swap3\n      pop\n        /* \"#utility.yul\":2956:3200   */\n      pop\n        /* \"#utility.yul\":2943:2944   */\n      0x01\n        /* \"#utility.yul\":2940:2941   */\n      dup2\n        /* \"#utility.yul\":2936:2945   */\n      add\n        /* \"#utility.yul\":2931:2945   */\n      swap1\n      pop\n        /* \"#utility.yul\":2896:3200   */\n      jump(tag_84)\n    tag_86:\n        /* \"#utility.yul\":2900:2914   */\n      pop\n        /* \"#utility.yul\":3216:3219   */\n      dup6\n        /* \"#utility.yul\":3209:3219   */\n      swap4\n      pop\n        /* \"#utility.yul\":2577:3225   */\n      pop\n      pop\n      pop\n        /* \"#utility.yul\":2443:3225   */\n      swap3\n      swap2\n      pop\n      pop\n      jump\t// out\n        /* \"#utility.yul\":3231:3340   */\n    tag_90:\n        /* \"#utility.yul\":3312:3333   */\n      tag_92\n        /* \"#utility.yul\":3327:3332   */\n      dup2\n        /* \"#utility.yul\":3312:3333   */\n      tag_93\n      jump\t// in\n    tag_92:\n        /* \"#utility.yul\":3307:3310   */\n      dup3\n        /* \"#utility.yul\":3300:3334   */\n      mstore\n        /* \"#utility.yul\":3231:3340   */\n      pop\n      pop\n      jump\t// out\n        /* \"#utility.yul\":3346:3487   */\n    tag_75:\n        /* \"#utility.yul\":3433:3480   */\n      tag_95\n        /* \"#utility.yul\":3474:3479   */\n      dup2\n        /* \"#utility.yul\":3433:3480   */\n      tag_96\n      jump\t// in\n    tag_95:\n        /* \"#utility.yul\":3428:3431   */\n      dup3\n        /* \"#utility.yul\":3421:3481   */\n      mstore\n        /* \"#utility.yul\":3346:3487   */\n      pop\n      pop\n      jump\t// out\n        /* \"#utility.yul\":3493:3644   */\n    tag_97:\n        /* \"#utility.yul\":3590:3637   */\n      tag_99\n        /* \"#utility.yul\":3631:3636   */\n      dup2\n        /* \"#utility.yul\":3590:3637   */\n      tag_96\n      jump\t// in\n    tag_99:\n        /* \"#utility.yul\":3585:3588   */\n      dup3\n        /* \"#utility.yul\":3578:3638   */\n      mstore\n        /* \"#utility.yul\":3493:3644   */\n      pop\n      pop\n      jump\t// out\n        /* \"#utility.yul\":3650:4014   */\n    tag_100:\n        /* \"#utility.yul\":3738:3741   */\n      0x00\n        /* \"#utility.yul\":3766:3805   */\n      tag_102\n        /* \"#utility.yul\":3799:3804   */\n      dup3\n        /* \"#utility.yul\":3766:3805   */\n      tag_103\n      jump\t// in\n    tag_102:\n        /* \"#utility.yul\":3821:3892   */\n      tag_104\n        /* \"#utility.yul\":3885:3891   */\n      dup2\n        /* \"#utility.yul\":3880:3883   */\n      dup6\n        /* \"#utility.yul\":3821:3892   */\n      tag_105\n      jump\t// in\n    tag_104:\n        /* \"#utility.yul\":3814:3892   */\n      swap4\n      pop\n        /* \"#utility.yul\":3901:3953   */\n      tag_106\n        /* \"#utility.yul\":3946:3952   */\n      dup2\n        /* \"#utility.yul\":3941:3944   */\n      dup6\n        /* \"#utility.yul\":3934:3938   */\n      0x20\n        /* \"#utility.yul\":3927:3932   */\n      dup7\n        /* \"#utility.yul\":3923:3939   */\n      add\n        /* \"#utility.yul\":3901:3953   */\n      tag_107\n      jump\t// in\n    tag_106:\n        /* \"#utility.yul\":3978:4007   */\n      tag_108\n        /* \"#utility.yul\":4000:4006   */\n      dup2\n        /* \"#utility.yul\":3978:4007   */\n      tag_109\n      jump\t// in\n    tag_108:\n        /* \"#utility.yul\":3973:3976   */\n      dup5\n        /* \"#utility.yul\":3969:4008   */\n      add\n        /* \"#utility.yul\":3962:4008   */\n      swap2\n      pop\n        /* \"#utility.yul\":3742:4014   */\n      pop\n        /* \"#utility.yul\":3650:4014   */\n      swap3\n      swap2\n      pop\n      pop\n      jump\t// out\n        /* \"#utility.yul\":4020:4138   */\n    tag_110:\n        /* \"#utility.yul\":4107:4131   */\n      tag_112\n        /* \"#utility.yul\":4125:4130   */\n      dup2\n        /* \"#utility.yul\":4107:4131   */\n      tag_113\n      jump\t// in\n    tag_112:\n        /* \"#utility.yul\":4102:4105   */\n      dup3\n        /* \"#utility.yul\":4095:4132   */\n      mstore\n        /* \"#utility.yul\":4020:4138   */\n      pop\n      pop\n      jump\t// out\n        /* \"#utility.yul\":4144:4537   */\n    tag_9:\n        /* \"#utility.yul\":4297:4301   */\n      0x00\n        /* \"#utility.yul\":4335:4337   */\n      0x20\n        /* \"#utility.yul\":4324:4333   */\n      dup3\n        /* \"#utility.yul\":4320:4338   */\n      add\n        /* \"#utility.yul\":4312:4338   */\n      swap1\n      pop\n        /* \"#utility.yul\":4384:4393   */\n      dup2\n        /* \"#utility.yul\":4378:4382   */\n      dup2\n        /* \"#utility.yul\":4374:4394   */\n      sub\n        /* \"#utility.yul\":4370:4371   */\n      0x00\n        /* \"#utility.yul\":4359:4368   */\n      dup4\n        /* \"#utility.yul\":4355:4372   */\n      add\n        /* \"#utility.yul\":4348:4395   */\n      mstore\n        /* \"#utility.yul\":4412:4530   */\n      tag_115\n        /* \"#utility.yul\":4525:4529   */\n      dup2\n        /* \"#utility.yul\":4516:4522   */\n      dup5\n        /* \"#utility.yul\":4412:4530   */\n      tag_76\n      jump\t// in\n    tag_115:\n        /* \"#utility.yul\":4404:4530   */\n      swap1\n      pop\n        /* \"#utility.yul\":4144:4537   */\n      swap3\n      swap2\n      pop\n      pop\n      jump\t// out\n        /* \"#utility.yul\":4543:4785   */\n    tag_19:\n        /* \"#utility.yul\":4646:4650   */\n      0x00\n        /* \"#utility.yul\":4684:4686   */\n      0x20\n        /* \"#utility.yul\":4673:4682   */\n      dup3\n        /* \"#utility.yul\":4669:4687   */\n      add\n        /* \"#utility.yul\":4661:4687   */\n      swap1\n      pop\n        /* \"#utility.yul\":4697:4778   */\n      tag_117\n        /* \"#utility.yul\":4775:4776   */\n      0x00\n        /* \"#utility.yul\":4764:4773   */\n      dup4\n        /* \"#utility.yul\":4760:4777   */\n      add\n        /* \"#utility.yul\":4751:4757   */\n      dup5\n        /* \"#utility.yul\":4697:4778   */\n      tag_97\n      jump\t// in\n    tag_117:\n        /* \"#utility.yul\":4543:4785   */\n      swap3\n      swap2\n      pop\n      pop\n      jump\t// out\n        /* \"#utility.yul\":4791:5312   */\n    tag_27:\n        /* \"#utility.yul\":4954:4958   */\n      0x00\n        /* \"#utility.yul\":4992:4994   */\n      0x60\n        /* \"#utility.yul\":4981:4990   */\n      dup3\n        /* \"#utility.yul\":4977:4995   */\n      add\n        /* \"#utility.yul\":4969:4995   */\n      swap1\n      pop\n        /* \"#utility.yul\":5005:5076   */\n      tag_119\n        /* \"#utility.yul\":5073:5074   */\n      0x00\n        /* \"#utility.yul\":5062:5071   */\n      dup4\n        /* \"#utility.yul\":5058:5075   */\n      add\n        /* \"#utility.yul\":5049:5055   */\n      dup7\n        /* \"#utility.yul\":5005:5076   */\n      tag_110\n      jump\t// in\n    tag_119:\n        /* \"#utility.yul\":5123:5132   */\n      dup2\n        /* \"#utility.yul\":5117:5121   */\n      dup2\n        /* \"#utility.yul\":5113:5133   */\n      sub\n        /* \"#utility.yul\":5108:5110   */\n      0x20\n        /* \"#utility.yul\":5097:5106   */\n      dup4\n        /* \"#utility.yul\":5093:5111   */\n      add\n        /* \"#utility.yul\":5086:5134   */\n      mstore\n        /* \"#utility.yul\":5151:5229   */\n      tag_120\n        /* \"#utility.yul\":5224:5228   */\n      dup2\n        /* \"#utility.yul\":5215:5221   */\n      dup6\n        /* \"#utility.yul\":5151:5229   */\n      tag_100\n      jump\t// in\n    tag_120:\n        /* \"#utility.yul\":5143:5229   */\n      swap1\n      pop\n        /* \"#utility.yul\":5239:5305   */\n      tag_121\n        /* \"#utility.yul\":5301:5303   */\n      0x40\n        /* \"#utility.yul\":5290:5299   */\n      dup4\n        /* \"#utility.yul\":5286:5304   */\n      add\n        /* \"#utility.yul\":5277:5283   */\n      dup5\n        /* \"#utility.yul\":5239:5305   */\n      tag_90\n      jump\t// in\n    tag_121:\n        /* \"#utility.yul\":4791:5312   */\n      swap5\n      swap4\n      pop\n      pop\n      pop\n      pop\n      jump\t// out\n        /* \"#utility.yul\":5318:5447   */\n    tag_38:\n        /* \"#utility.yul\":5352:5358   */\n      0x00\n        /* \"#utility.yul\":5379:5399   */\n      tag_123\n      tag_124\n      jump\t// in\n    tag_123:\n        /* \"#utility.yul\":5369:5399   */\n      swap1\n      pop\n        /* \"#utility.yul\":5408:5441   */\n      tag_125\n        /* \"#utility.yul\":5436:5440   */\n      dup3\n        /* \"#utility.yul\":5428:5434   */\n      dup3\n        /* \"#utility.yul\":5408:5441   */\n      tag_126\n      jump\t// in\n    tag_125:\n        /* \"#utility.yul\":5318:5447   */\n      swap2\n      swap1\n      pop\n      jump\t// out\n        /* \"#utility.yul\":5453:5528   */\n    tag_124:\n        /* \"#utility.yul\":5486:5492   */\n      0x00\n        /* \"#utility.yul\":5519:5521   */\n      0x40\n        /* \"#utility.yul\":5513:5522   */\n      mload\n        /* \"#utility.yul\":5503:5522   */\n      swap1\n      pop\n        /* \"#utility.yul\":5453:5528   */\n      swap1\n      jump\t// out\n        /* \"#utility.yul\":5534:5842   */\n    tag_37:\n        /* \"#utility.yul\":5596:5600   */\n      0x00\n        /* \"#utility.yul\":5686:5704   */\n      0xffffffffffffffff\n        /* \"#utility.yul\":5678:5684   */\n      dup3\n        /* \"#utility.yul\":5675:5705   */\n      gt\n        /* \"#utility.yul\":5672:5728   */\n      iszero\n      tag_129\n      jumpi\n        /* \"#utility.yul\":5708:5726   */\n      tag_130\n      tag_131\n      jump\t// in\n    tag_130:\n        /* \"#utility.yul\":5672:5728   */\n    tag_129:\n        /* \"#utility.yul\":5746:5775   */\n      tag_132\n        /* \"#utility.yul\":5768:5774   */\n      dup3\n        /* \"#utility.yul\":5746:5775   */\n      tag_109\n      jump\t// in\n    tag_132:\n        /* \"#utility.yul\":5738:5775   */\n      swap1\n      pop\n        /* \"#utility.yul\":5830:5834   */\n      0x20\n        /* \"#utility.yul\":5824:5828   */\n      dup2\n        /* \"#utility.yul\":5820:5835   */\n      add\n        /* \"#utility.yul\":5812:5835   */\n      swap1\n      pop\n        /* \"#utility.yul\":5534:5842   */\n      swap2\n      swap1\n      pop\n      jump\t// out\n        /* \"#utility.yul\":5848:5990   */\n    tag_83:\n        /* \"#utility.yul\":5925:5929   */\n      0x00\n        /* \"#utility.yul\":5948:5951   */\n      dup2\n        /* \"#utility.yul\":5940:5951   */\n      swap1\n      pop\n        /* \"#utility.yul\":5978:5982   */\n      0x20\n        /* \"#utility.yul\":5973:5976   */\n      dup3\n        /* \"#utility.yul\":5969:5983   */\n      add\n        /* \"#utility.yul\":5961:5983   */\n      swap1\n      pop\n        /* \"#utility.yul\":5848:5990   */\n      swap2\n      swap1\n      pop\n      jump\t// out\n        /* \"#utility.yul\":5996:6120   */\n    tag_79:\n        /* \"#utility.yul\":6073:6079   */\n      0x00\n        /* \"#utility.yul\":6107:6112   */\n      dup2\n        /* \"#utility.yul\":6101:6113   */\n      mload\n        /* \"#utility.yul\":6091:6113   */\n      swap1\n      pop\n        /* \"#utility.yul\":5996:6120   */\n      swap2\n      swap1\n      pop\n      jump\t// out\n        /* \"#utility.yul\":6126:6225   */\n    tag_103:\n        /* \"#utility.yul\":6178:6184   */\n      0x00\n        /* \"#utility.yul\":6212:6217   */\n      dup2\n        /* \"#utility.yul\":6206:6218   */\n      mload\n        /* \"#utility.yul\":6196:6218   */\n      swap1\n      pop\n        /* \"#utility.yul\":6126:6225   */\n      swap2\n      swap1\n      pop\n      jump\t// out\n        /* \"#utility.yul\":6231:6354   */\n    tag_89:\n        /* \"#utility.yul\":6311:6315   */\n      0x00\n        /* \"#utility.yul\":6343:6347   */\n      0x20\n        /* \"#utility.yul\":6338:6341   */\n      dup3\n        /* \"#utility.yul\":6334:6348   */\n      add\n        /* \"#utility.yul\":6326:6348   */\n      swap1\n      pop\n        /* \"#utility.yul\":6231:6354   */\n      swap2\n      swap1\n      pop\n      jump\t// out\n        /* \"#utility.yul\":6360:6544   */\n    tag_81:\n        /* \"#utility.yul\":6459:6470   */\n      0x00\n        /* \"#utility.yul\":6493:6499   */\n      dup3\n        /* \"#utility.yul\":6488:6491   */\n      dup3\n        /* \"#utility.yul\":6481:6500   */\n      mstore\n        /* \"#utility.yul\":6533:6537   */\n      0x20\n        /* \"#utility.yul\":6528:6531   */\n      dup3\n        /* \"#utility.yul\":6524:6538   */\n      add\n        /* \"#utility.yul\":6509:6538   */\n      swap1\n      pop\n        /* \"#utility.yul\":6360:6544   */\n      swap3\n      swap2\n      pop\n      pop\n      jump\t// out\n        /* \"#utility.yul\":6550:6719   */\n    tag_105:\n        /* \"#utility.yul\":6634:6645   */\n      0x00\n        /* \"#utility.yul\":6668:6674   */\n      dup3\n        /* \"#utility.yul\":6663:6666   */\n      dup3\n        /* \"#utility.yul\":6656:6675   */\n      mstore\n        /* \"#utility.yul\":6708:6712   */\n      0x20\n        /* \"#utility.yul\":6703:6706   */\n      dup3\n        /* \"#utility.yul\":6699:6713   */\n      add\n        /* \"#utility.yul\":6684:6713   */\n      swap1\n      pop\n        /* \"#utility.yul\":6550:6719   */\n      swap3\n      swap2\n      pop\n      pop\n      jump\t// out\n        /* \"#utility.yul\":6725:6815   */\n    tag_93:\n        /* \"#utility.yul\":6759:6766   */\n      0x00\n        /* \"#utility.yul\":6802:6807   */\n      dup2\n        /* \"#utility.yul\":6795:6808   */\n      iszero\n        /* \"#utility.yul\":6788:6809   */\n      iszero\n        /* \"#utility.yul\":6777:6809   */\n      swap1\n      pop\n        /* \"#utility.yul\":6725:6815   */\n      swap2\n      swap1\n      pop\n      jump\t// out\n        /* \"#utility.yul\":6821:6947   */\n    tag_140:\n        /* \"#utility.yul\":6858:6865   */\n      0x00\n        /* \"#utility.yul\":6898:6940   */\n      0xffffffffffffffffffffffffffffffffffffffff\n        /* \"#utility.yul\":6891:6896   */\n      dup3\n        /* \"#utility.yul\":6887:6941   */\n      and\n        /* \"#utility.yul\":6876:6941   */\n      swap1\n      pop\n        /* \"#utility.yul\":6821:6947   */\n      swap2\n      swap1\n      pop\n      jump\t// out\n        /* \"#utility.yul\":6953:7030   */\n    tag_113:\n        /* \"#utility.yul\":6990:6997   */\n      0x00\n        /* \"#utility.yul\":7019:7024   */\n      dup2\n        /* \"#utility.yul\":7008:7024   */\n      swap1\n      pop\n        /* \"#utility.yul\":6953:7030   */\n      swap2\n      swap1\n      pop\n      jump\t// out\n        /* \"#utility.yul\":7036:7172   */\n    tag_96:\n        /* \"#utility.yul\":7096:7105   */\n      0x00\n        /* \"#utility.yul\":7129:7166   */\n      tag_144\n        /* \"#utility.yul\":7160:7165   */\n      dup3\n        /* \"#utility.yul\":7129:7166   */\n      tag_145\n      jump\t// in\n    tag_144:\n        /* \"#utility.yul\":7116:7166   */\n      swap1\n      pop\n        /* \"#utility.yul\":7036:7172   */\n      swap2\n      swap1\n      pop\n      jump\t// out\n        /* \"#utility.yul\":7178:7304   */\n    tag_145:\n        /* \"#utility.yul\":7228:7237   */\n      0x00\n        /* \"#utility.yul\":7261:7298   */\n      tag_147\n        /* \"#utility.yul\":7292:7297   */\n      dup3\n        /* \"#utility.yul\":7261:7298   */\n      tag_148\n      jump\t// in\n    tag_147:\n        /* \"#utility.yul\":7248:7298   */\n      swap1\n      pop\n        /* \"#utility.yul\":7178:7304   */\n      swap2\n      swap1\n      pop\n      jump\t// out\n        /* \"#utility.yul\":7310:7423   */\n    tag_148:\n        /* \"#utility.yul\":7360:7369   */\n      0x00\n        /* \"#utility.yul\":7393:7417   */\n      tag_150\n        /* \"#utility.yul\":7411:7416   */\n      dup3\n        /* \"#utility.yul\":7393:7417   */\n      tag_140\n      jump\t// in\n    tag_150:\n        /* \"#utility.yul\":7380:7417   */\n      swap1\n      pop\n        /* \"#utility.yul\":7310:7423   */\n      swap2\n      swap1\n      pop\n      jump\t// out\n        /* \"#utility.yul\":7429:7583   */\n    tag_43:\n        /* \"#utility.yul\":7513:7519   */\n      dup3\n        /* \"#utility.yul\":7508:7511   */\n      dup2\n        /* \"#utility.yul\":7503:7506   */\n      dup4\n        /* \"#utility.yul\":7490:7520   */\n      calldatacopy\n        /* \"#utility.yul\":7575:7576   */\n      0x00\n        /* \"#utility.yul\":7566:7572   */\n      dup4\n        /* \"#utility.yul\":7561:7564   */\n      dup4\n        /* \"#utility.yul\":7557:7573   */\n      add\n        /* \"#utility.yul\":7550:7577   */\n      mstore\n        /* \"#utility.yul\":7429:7583   */\n      pop\n      pop\n      pop\n      jump\t// out\n        /* \"#utility.yul\":7589:7896   */\n    tag_107:\n        /* \"#utility.yul\":7657:7658   */\n      0x00\n        /* \"#utility.yul\":7667:7780   */\n    tag_153:\n        /* \"#utility.yul\":7681:7687   */\n      dup4\n        /* \"#utility.yul\":7678:7679   */\n      dup2\n        /* \"#utility.yul\":7675:7688   */\n      lt\n        /* \"#utility.yul\":7667:7780   */\n      iszero\n      tag_155\n      jumpi\n        /* \"#utility.yul\":7766:7767   */\n      dup1\n        /* \"#utility.yul\":7761:7764   */\n      dup3\n        /* \"#utility.yul\":7757:7768   */\n      add\n        /* \"#utility.yul\":7751:7769   */\n      mload\n        /* \"#utility.yul\":7747:7748   */\n      dup2\n        /* \"#utility.yul\":7742:7745   */\n      dup5\n        /* \"#utility.yul\":7738:7749   */\n      add\n        /* \"#utility.yul\":7731:7770   */\n      mstore\n        /* \"#utility.yul\":7703:7705   */\n      0x20\n        /* \"#utility.yul\":7700:7701   */\n      dup2\n        /* \"#utility.yul\":7696:7706   */\n      add\n        /* \"#utility.yul\":7691:7706   */\n      swap1\n      pop\n        /* \"#utility.yul\":7667:7780   */\n      jump(tag_153)\n    tag_155:\n        /* \"#utility.yul\":7798:7804   */\n      dup4\n        /* \"#utility.yul\":7795:7796   */\n      dup2\n        /* \"#utility.yul\":7792:7805   */\n      gt\n        /* \"#utility.yul\":7789:7890   */\n      iszero\n      tag_156\n      jumpi\n        /* \"#utility.yul\":7878:7879   */\n      0x00\n        /* \"#utility.yul\":7869:7875   */\n      dup5\n        /* \"#utility.yul\":7864:7867   */\n      dup5\n        /* \"#utility.yul\":7860:7876   */\n      add\n        /* \"#utility.yul\":7853:7880   */\n      mstore\n        /* \"#utility.yul\":7789:7890   */\n    tag_156:\n        /* \"#utility.yul\":7638:7896   */\n      pop\n        /* \"#utility.yul\":7589:7896   */\n      pop\n      pop\n      pop\n      jump\t// out\n        /* \"#utility.yul\":7902:8183   */\n    tag_126:\n        /* \"#utility.yul\":7985:8012   */\n      tag_158\n        /* \"#utility.yul\":8007:8011   */\n      dup3\n        /* \"#utility.yul\":7985:8012   */\n      tag_109\n      jump\t// in\n    tag_158:\n        /* \"#utility.yul\":7977:7983   */\n      dup2\n        /* \"#utility.yul\":7973:8013   */\n      add\n        /* \"#utility.yul\":8115:8121   */\n      dup2\n        /* \"#utility.yul\":8103:8113   */\n      dup2\n        /* \"#utility.yul\":8100:8122   */\n      lt\n        /* \"#utility.yul\":8079:8097   */\n      0xffffffffffffffff\n        /* \"#utility.yul\":8067:8077   */\n      dup3\n        /* \"#utility.yul\":8064:8098   */\n      gt\n        /* \"#utility.yul\":8061:8123   */\n      or\n        /* \"#utility.yul\":8058:8146   */\n      iszero\n      tag_159\n      jumpi\n        /* \"#utility.yul\":8126:8144   */\n      tag_160\n      tag_131\n      jump\t// in\n    tag_160:\n        /* \"#utility.yul\":8058:8146   */\n    tag_159:\n        /* \"#utility.yul\":8166:8176   */\n      dup1\n        /* \"#utility.yul\":8162:8164   */\n      0x40\n        /* \"#utility.yul\":8155:8177   */\n      mstore\n        /* \"#utility.yul\":7945:8183   */\n      pop\n        /* \"#utility.yul\":7902:8183   */\n      pop\n      pop\n      jump\t// out\n        /* \"#utility.yul\":8189:8369   */\n    tag_131:\n        /* \"#utility.yul\":8237:8314   */\n      0x4e487b7100000000000000000000000000000000000000000000000000000000\n        /* \"#utility.yul\":8234:8235   */\n      0x00\n        /* \"#utility.yul\":8227:8315   */\n      mstore\n        /* \"#utility.yul\":8334:8338   */\n      0x41\n        /* \"#utility.yul\":8331:8332   */\n      0x04\n        /* \"#utility.yul\":8324:8339   */\n      mstore\n        /* \"#utility.yul\":8358:8362   */\n      0x24\n        /* \"#utility.yul\":8355:8356   */\n      0x00\n        /* \"#utility.yul\":8348:8363   */\n      revert\n        /* \"#utility.yul\":8375:8492   */\n    tag_52:\n        /* \"#utility.yul\":8484:8485   */\n      0x00\n        /* \"#utility.yul\":8481:8482   */\n      dup1\n        /* \"#utility.yul\":8474:8486   */\n      revert\n        /* \"#utility.yul\":8498:8615   */\n    tag_41:\n        /* \"#utility.yul\":8607:8608   */\n      0x00\n        /* \"#utility.yul\":8604:8605   */\n      dup1\n        /* \"#utility.yul\":8597:8609   */\n      revert\n        /* \"#utility.yul\":8621:8738   */\n    tag_69:\n        /* \"#utility.yul\":8730:8731   */\n      0x00\n        /* \"#utility.yul\":8727:8728   */\n      dup1\n        /* \"#utility.yul\":8720:8732   */\n      revert\n        /* \"#utility.yul\":8744:8861   */\n    tag_61:\n        /* \"#utility.yul\":8853:8854   */\n      0x00\n        /* \"#utility.yul\":8850:8851   */\n      dup1\n        /* \"#utility.yul\":8843:8855   */\n      revert\n        /* \"#utility.yul\":8867:8969   */\n    tag_109:\n        /* \"#utility.yul\":8908:8914   */\n      0x00\n        /* \"#utility.yul\":8959:8961   */\n      0x1f\n        /* \"#utility.yul\":8955:8962   */\n      not\n        /* \"#utility.yul\":8950:8952   */\n      0x1f\n        /* \"#utility.yul\":8943:8948   */\n      dup4\n        /* \"#utility.yul\":8939:8953   */\n      add\n        /* \"#utility.yul\":8935:8963   */\n      and\n        /* \"#utility.yul\":8925:8963   */\n      swap1\n      pop\n        /* \"#utility.yul\":8867:8969   */\n      swap2\n      swap1\n      pop\n      jump\t// out\n        /* \"#utility.yul\":8975:9091   */\n    tag_47:\n        /* \"#utility.yul\":9045:9066   */\n      tag_168\n        /* \"#utility.yul\":9060:9065   */\n      dup2\n        /* \"#utility.yul\":9045:9066   */\n      tag_93\n      jump\t// in\n    tag_168:\n        /* \"#utility.yul\":9038:9043   */\n      dup2\n        /* \"#utility.yul\":9035:9067   */\n      eq\n        /* \"#utility.yul\":9025:9085   */\n      tag_169\n      jumpi\n        /* \"#utility.yul\":9081:9082   */\n      0x00\n        /* \"#utility.yul\":9078:9079   */\n      dup1\n        /* \"#utility.yul\":9071:9083   */\n      revert\n        /* \"#utility.yul\":9025:9085   */\n    tag_169:\n        /* \"#utility.yul\":8975:9091   */\n      pop\n      jump\t// out\n        /* \"#utility.yul\":9097:9219   */\n    tag_57:\n        /* \"#utility.yul\":9170:9194   */\n      tag_171\n        /* \"#utility.yul\":9188:9193   */\n      dup2\n        /* \"#utility.yul\":9170:9194   */\n      tag_113\n      jump\t// in\n    tag_171:\n        /* \"#utility.yul\":9163:9168   */\n      dup2\n        /* \"#utility.yul\":9160:9195   */\n      eq\n        /* \"#utility.yul\":9150:9213   */\n      tag_172\n      jumpi\n        /* \"#utility.yul\":9209:9210   */\n      0x00\n        /* \"#utility.yul\":9206:9207   */\n      dup1\n        /* \"#utility.yul\":9199:9211   */\n      revert\n        /* \"#utility.yul\":9150:9213   */\n    tag_172:\n        /* \"#utility.yul\":9097:9219   */\n      pop\n      jump\t// out\n    stop\n\n    sub_0: assembly {\n            /* \"contracts/Car.sol\":35:483  contract Car {\r... */\n          mstore(0x40, 0x80)\n            /* \"contracts/Car.sol\":146:295  constructor(uint id, string memory name, bool status) public {\r... */\n          callvalue\n          dup1\n          iszero\n          tag_1\n          jumpi\n          0x00\n          dup1\n          revert\n        tag_1:\n          pop\n          mload(0x40)\n          sub(codesize, bytecodeSize)\n          dup1\n          bytecodeSize\n          dup4\n          codecopy\n          dup2\n          dup2\n          add\n          0x40\n          mstore\n          dup2\n          add\n          swap1\n          tag_2\n          swap2\n          swap1\n          tag_3\n          jump\t// in\n        tag_2:\n            /* \"contracts/Car.sol\":228:230  id */\n          dup3\n            /* \"contracts/Car.sol\":220:225  carID */\n          0x00\n            /* \"contracts/Car.sol\":220:230  carID = id */\n          dup2\n          swap1\n          sstore\n          pop\n            /* \"contracts/Car.sol\":251:255  name */\n          dup2\n            /* \"contracts/Car.sol\":241:248  carName */\n          0x01\n            /* \"contracts/Car.sol\":241:255  carName = name */\n          swap1\n          dup1\n          mload\n          swap1\n          0x20\n          add\n          swap1\n          tag_6\n          swap3\n          swap2\n          swap1\n          tag_7\n          jump\t// in\n        tag_6:\n          pop\n            /* \"contracts/Car.sol\":281:287  status */\n          dup1\n            /* \"contracts/Car.sol\":266:278  availability */\n          0x02\n          0x00\n            /* \"contracts/Car.sol\":266:287  availability = status */\n          0x0100\n          exp\n          dup2\n          sload\n          dup2\n          0xff\n          mul\n          not\n          and\n          swap1\n          dup4\n          iszero\n          iszero\n          mul\n          or\n          swap1\n          sstore\n          pop\n            /* \"contracts/Car.sol\":146:295  constructor(uint id, string memory name, bool status) public {\r... */\n          pop\n          pop\n          pop\n            /* \"contracts/Car.sol\":35:483  contract Car {\r... */\n          jump(tag_8)\n        tag_7:\n          dup3\n          dup1\n          sload\n          tag_9\n          swap1\n          tag_10\n          jump\t// in\n        tag_9:\n          swap1\n          0x00\n          mstore\n          keccak256(0x00, 0x20)\n          swap1\n          0x1f\n          add\n          0x20\n          swap1\n          div\n          dup2\n          add\n          swap3\n          dup3\n          tag_12\n          jumpi\n          0x00\n          dup6\n          sstore\n          jump(tag_11)\n        tag_12:\n          dup3\n          0x1f\n          lt\n          tag_13\n          jumpi\n          dup1\n          mload\n          not(0xff)\n          and\n          dup4\n          dup1\n          add\n          or\n          dup6\n          sstore\n          jump(tag_11)\n        tag_13:\n          dup3\n          dup1\n          add\n          0x01\n          add\n          dup6\n          sstore\n          dup3\n          iszero\n          tag_11\n          jumpi\n          swap2\n          dup3\n          add\n        tag_14:\n          dup3\n          dup2\n          gt\n          iszero\n          tag_15\n          jumpi\n          dup3\n          mload\n          dup3\n          sstore\n          swap2\n          0x20\n          add\n          swap2\n          swap1\n          0x01\n          add\n          swap1\n          jump(tag_14)\n        tag_15:\n        tag_11:\n          pop\n          swap1\n          pop\n          tag_16\n          swap2\n          swap1\n          tag_17\n          jump\t// in\n        tag_16:\n          pop\n          swap1\n          jump\t// out\n        tag_17:\n        tag_18:\n          dup1\n          dup3\n          gt\n          iszero\n          tag_19\n          jumpi\n          0x00\n          dup2\n          0x00\n          swap1\n          sstore\n          pop\n          0x01\n          add\n          jump(tag_18)\n        tag_19:\n          pop\n          swap1\n          jump\t// out\n            /* \"#utility.yul\":7:428   */\n        tag_21:\n            /* \"#utility.yul\":96:101   */\n          0x00\n            /* \"#utility.yul\":121:187   */\n          tag_23\n            /* \"#utility.yul\":137:186   */\n          tag_24\n            /* \"#utility.yul\":179:185   */\n          dup5\n            /* \"#utility.yul\":137:186   */\n          tag_25\n          jump\t// in\n        tag_24:\n            /* \"#utility.yul\":121:187   */\n          tag_26\n          jump\t// in\n        tag_23:\n            /* \"#utility.yul\":112:187   */\n          swap1\n          pop\n            /* \"#utility.yul\":210:216   */\n          dup3\n            /* \"#utility.yul\":203:208   */\n          dup2\n            /* \"#utility.yul\":196:217   */\n          mstore\n            /* \"#utility.yul\":248:252   */\n          0x20\n            /* \"#utility.yul\":241:246   */\n          dup2\n            /* \"#utility.yul\":237:253   */\n          add\n            /* \"#utility.yul\":286:289   */\n          dup5\n            /* \"#utility.yul\":277:283   */\n          dup5\n            /* \"#utility.yul\":272:275   */\n          dup5\n            /* \"#utility.yul\":268:284   */\n          add\n            /* \"#utility.yul\":265:290   */\n          gt\n            /* \"#utility.yul\":262:374   */\n          iszero\n          tag_27\n          jumpi\n            /* \"#utility.yul\":293:372   */\n          tag_28\n          tag_29\n          jump\t// in\n        tag_28:\n            /* \"#utility.yul\":262:374   */\n        tag_27:\n            /* \"#utility.yul\":383:422   */\n          tag_30\n            /* \"#utility.yul\":415:421   */\n          dup5\n            /* \"#utility.yul\":410:413   */\n          dup3\n            /* \"#utility.yul\":405:408   */\n          dup6\n            /* \"#utility.yul\":383:422   */\n          tag_31\n          jump\t// in\n        tag_30:\n            /* \"#utility.yul\":102:428   */\n          pop\n            /* \"#utility.yul\":7:428   */\n          swap4\n          swap3\n          pop\n          pop\n          pop\n          jump\t// out\n            /* \"#utility.yul\":434:571   */\n        tag_32:\n            /* \"#utility.yul\":488:493   */\n          0x00\n            /* \"#utility.yul\":519:525   */\n          dup2\n            /* \"#utility.yul\":513:526   */\n          mload\n            /* \"#utility.yul\":504:526   */\n          swap1\n          pop\n            /* \"#utility.yul\":535:565   */\n          tag_34\n            /* \"#utility.yul\":559:564   */\n          dup2\n            /* \"#utility.yul\":535:565   */\n          tag_35\n          jump\t// in\n        tag_34:\n            /* \"#utility.yul\":434:571   */\n          swap3\n          swap2\n          pop\n          pop\n          jump\t// out\n            /* \"#utility.yul\":591:946   */\n        tag_36:\n            /* \"#utility.yul\":658:663   */\n          0x00\n            /* \"#utility.yul\":707:710   */\n          dup3\n            /* \"#utility.yul\":700:704   */\n          0x1f\n            /* \"#utility.yul\":692:698   */\n          dup4\n            /* \"#utility.yul\":688:705   */\n          add\n            /* \"#utility.yul\":684:711   */\n          slt\n            /* \"#utility.yul\":674:796   */\n          tag_38\n          jumpi\n            /* \"#utility.yul\":715:794   */\n          tag_39\n          tag_40\n          jump\t// in\n        tag_39:\n            /* \"#utility.yul\":674:796   */\n        tag_38:\n            /* \"#utility.yul\":825:831   */\n          dup2\n            /* \"#utility.yul\":819:832   */\n          mload\n            /* \"#utility.yul\":850:940   */\n          tag_41\n            /* \"#utility.yul\":936:939   */\n          dup5\n            /* \"#utility.yul\":928:934   */\n          dup3\n            /* \"#utility.yul\":921:925   */\n          0x20\n            /* \"#utility.yul\":913:919   */\n          dup7\n            /* \"#utility.yul\":909:926   */\n          add\n            /* \"#utility.yul\":850:940   */\n          tag_21\n          jump\t// in\n        tag_41:\n            /* \"#utility.yul\":841:940   */\n          swap2\n          pop\n            /* \"#utility.yul\":664:946   */\n          pop\n            /* \"#utility.yul\":591:946   */\n          swap3\n          swap2\n          pop\n          pop\n          jump\t// out\n            /* \"#utility.yul\":952:1095   */\n        tag_42:\n            /* \"#utility.yul\":1009:1014   */\n          0x00\n            /* \"#utility.yul\":1040:1046   */\n          dup2\n            /* \"#utility.yul\":1034:1047   */\n          mload\n            /* \"#utility.yul\":1025:1047   */\n          swap1\n          pop\n            /* \"#utility.yul\":1056:1089   */\n          tag_44\n            /* \"#utility.yul\":1083:1088   */\n          dup2\n            /* \"#utility.yul\":1056:1089   */\n          tag_45\n          jump\t// in\n        tag_44:\n            /* \"#utility.yul\":952:1095   */\n          swap3\n          swap2\n          pop\n          pop\n          jump\t// out\n            /* \"#utility.yul\":1101:1931   */\n        tag_3:\n            /* \"#utility.yul\":1196:1202   */\n          0x00\n            /* \"#utility.yul\":1204:1210   */\n          dup1\n            /* \"#utility.yul\":1212:1218   */\n          0x00\n            /* \"#utility.yul\":1261:1263   */\n          0x60\n            /* \"#utility.yul\":1249:1258   */\n          dup5\n            /* \"#utility.yul\":1240:1247   */\n          dup7\n            /* \"#utility.yul\":1236:1259   */\n          sub\n            /* \"#utility.yul\":1232:1264   */\n          slt\n            /* \"#utility.yul\":1229:1348   */\n          iszero\n          tag_47\n          jumpi\n            /* \"#utility.yul\":1267:1346   */\n          tag_48\n          tag_49\n          jump\t// in\n        tag_48:\n            /* \"#utility.yul\":1229:1348   */\n        tag_47:\n            /* \"#utility.yul\":1387:1388   */\n          0x00\n            /* \"#utility.yul\":1412:1476   */\n          tag_50\n            /* \"#utility.yul\":1468:1475   */\n          dup7\n            /* \"#utility.yul\":1459:1465   */\n          dup3\n            /* \"#utility.yul\":1448:1457   */\n          dup8\n            /* \"#utility.yul\":1444:1466   */\n          add\n            /* \"#utility.yul\":1412:1476   */\n          tag_42\n          jump\t// in\n        tag_50:\n            /* \"#utility.yul\":1402:1476   */\n          swap4\n          pop\n            /* \"#utility.yul\":1358:1486   */\n          pop\n            /* \"#utility.yul\":1546:1548   */\n          0x20\n            /* \"#utility.yul\":1535:1544   */\n          dup5\n            /* \"#utility.yul\":1531:1549   */\n          add\n            /* \"#utility.yul\":1525:1550   */\n          mload\n            /* \"#utility.yul\":1577:1595   */\n          0xffffffffffffffff\n            /* \"#utility.yul\":1569:1575   */\n          dup2\n            /* \"#utility.yul\":1566:1596   */\n          gt\n            /* \"#utility.yul\":1563:1680   */\n          iszero\n          tag_51\n          jumpi\n            /* \"#utility.yul\":1599:1678   */\n          tag_52\n          tag_53\n          jump\t// in\n        tag_52:\n            /* \"#utility.yul\":1563:1680   */\n        tag_51:\n            /* \"#utility.yul\":1704:1778   */\n          tag_54\n            /* \"#utility.yul\":1770:1777   */\n          dup7\n            /* \"#utility.yul\":1761:1767   */\n          dup3\n            /* \"#utility.yul\":1750:1759   */\n          dup8\n            /* \"#utility.yul\":1746:1768   */\n          add\n            /* \"#utility.yul\":1704:1778   */\n          tag_36\n          jump\t// in\n        tag_54:\n            /* \"#utility.yul\":1694:1778   */\n          swap3\n          pop\n            /* \"#utility.yul\":1496:1788   */\n          pop\n            /* \"#utility.yul\":1827:1829   */\n          0x40\n            /* \"#utility.yul\":1853:1914   */\n          tag_55\n            /* \"#utility.yul\":1906:1913   */\n          dup7\n            /* \"#utility.yul\":1897:1903   */\n          dup3\n            /* \"#utility.yul\":1886:1895   */\n          dup8\n            /* \"#utility.yul\":1882:1904   */\n          add\n            /* \"#utility.yul\":1853:1914   */\n          tag_32\n          jump\t// in\n        tag_55:\n            /* \"#utility.yul\":1843:1914   */\n          swap2\n          pop\n            /* \"#utility.yul\":1798:1924   */\n          pop\n            /* \"#utility.yul\":1101:1931   */\n          swap3\n          pop\n          swap3\n          pop\n          swap3\n          jump\t// out\n            /* \"#utility.yul\":1937:2066   */\n        tag_26:\n            /* \"#utility.yul\":1971:1977   */\n          0x00\n            /* \"#utility.yul\":1998:2018   */\n          tag_57\n          tag_58\n          jump\t// in\n        tag_57:\n            /* \"#utility.yul\":1988:2018   */\n          swap1\n          pop\n            /* \"#utility.yul\":2027:2060   */\n          tag_59\n            /* \"#utility.yul\":2055:2059   */\n          dup3\n            /* \"#utility.yul\":2047:2053   */\n          dup3\n            /* \"#utility.yul\":2027:2060   */\n          tag_60\n          jump\t// in\n        tag_59:\n            /* \"#utility.yul\":1937:2066   */\n          swap2\n          swap1\n          pop\n          jump\t// out\n            /* \"#utility.yul\":2072:2147   */\n        tag_58:\n            /* \"#utility.yul\":2105:2111   */\n          0x00\n            /* \"#utility.yul\":2138:2140   */\n          0x40\n            /* \"#utility.yul\":2132:2141   */\n          mload\n            /* \"#utility.yul\":2122:2141   */\n          swap1\n          pop\n            /* \"#utility.yul\":2072:2147   */\n          swap1\n          jump\t// out\n            /* \"#utility.yul\":2153:2461   */\n        tag_25:\n            /* \"#utility.yul\":2215:2219   */\n          0x00\n            /* \"#utility.yul\":2305:2323   */\n          0xffffffffffffffff\n            /* \"#utility.yul\":2297:2303   */\n          dup3\n            /* \"#utility.yul\":2294:2324   */\n          gt\n            /* \"#utility.yul\":2291:2347   */\n          iszero\n          tag_63\n          jumpi\n            /* \"#utility.yul\":2327:2345   */\n          tag_64\n          tag_65\n          jump\t// in\n        tag_64:\n            /* \"#utility.yul\":2291:2347   */\n        tag_63:\n            /* \"#utility.yul\":2365:2394   */\n          tag_66\n            /* \"#utility.yul\":2387:2393   */\n          dup3\n            /* \"#utility.yul\":2365:2394   */\n          tag_67\n          jump\t// in\n        tag_66:\n            /* \"#utility.yul\":2357:2394   */\n          swap1\n          pop\n            /* \"#utility.yul\":2449:2453   */\n          0x20\n            /* \"#utility.yul\":2443:2447   */\n          dup2\n            /* \"#utility.yul\":2439:2454   */\n          add\n            /* \"#utility.yul\":2431:2454   */\n          swap1\n          pop\n            /* \"#utility.yul\":2153:2461   */\n          swap2\n          swap1\n          pop\n          jump\t// out\n            /* \"#utility.yul\":2467:2557   */\n        tag_68:\n            /* \"#utility.yul\":2501:2508   */\n          0x00\n            /* \"#utility.yul\":2544:2549   */\n          dup2\n            /* \"#utility.yul\":2537:2550   */\n          iszero\n            /* \"#utility.yul\":2530:2551   */\n          iszero\n            /* \"#utility.yul\":2519:2551   */\n          swap1\n          pop\n            /* \"#utility.yul\":2467:2557   */\n          swap2\n          swap1\n          pop\n          jump\t// out\n            /* \"#utility.yul\":2563:2640   */\n        tag_70:\n            /* \"#utility.yul\":2600:2607   */\n          0x00\n            /* \"#utility.yul\":2629:2634   */\n          dup2\n            /* \"#utility.yul\":2618:2634   */\n          swap1\n          pop\n            /* \"#utility.yul\":2563:2640   */\n          swap2\n          swap1\n          pop\n          jump\t// out\n            /* \"#utility.yul\":2646:2953   */\n        tag_31:\n            /* \"#utility.yul\":2714:2715   */\n          0x00\n            /* \"#utility.yul\":2724:2837   */\n        tag_73:\n            /* \"#utility.yul\":2738:2744   */\n          dup4\n            /* \"#utility.yul\":2735:2736   */\n          dup2\n            /* \"#utility.yul\":2732:2745   */\n          lt\n            /* \"#utility.yul\":2724:2837   */\n          iszero\n          tag_75\n          jumpi\n            /* \"#utility.yul\":2823:2824   */\n          dup1\n            /* \"#utility.yul\":2818:2821   */\n          dup3\n            /* \"#utility.yul\":2814:2825   */\n          add\n            /* \"#utility.yul\":2808:2826   */\n          mload\n            /* \"#utility.yul\":2804:2805   */\n          dup2\n            /* \"#utility.yul\":2799:2802   */\n          dup5\n            /* \"#utility.yul\":2795:2806   */\n          add\n            /* \"#utility.yul\":2788:2827   */\n          mstore\n            /* \"#utility.yul\":2760:2762   */\n          0x20\n            /* \"#utility.yul\":2757:2758   */\n          dup2\n            /* \"#utility.yul\":2753:2763   */\n          add\n            /* \"#utility.yul\":2748:2763   */\n          swap1\n          pop\n            /* \"#utility.yul\":2724:2837   */\n          jump(tag_73)\n        tag_75:\n            /* \"#utility.yul\":2855:2861   */\n          dup4\n            /* \"#utility.yul\":2852:2853   */\n          dup2\n            /* \"#utility.yul\":2849:2862   */\n          gt\n            /* \"#utility.yul\":2846:2947   */\n          iszero\n          tag_76\n          jumpi\n            /* \"#utility.yul\":2935:2936   */\n          0x00\n            /* \"#utility.yul\":2926:2932   */\n          dup5\n            /* \"#utility.yul\":2921:2924   */\n          dup5\n            /* \"#utility.yul\":2917:2933   */\n          add\n            /* \"#utility.yul\":2910:2937   */\n          mstore\n            /* \"#utility.yul\":2846:2947   */\n        tag_76:\n            /* \"#utility.yul\":2695:2953   */\n          pop\n            /* \"#utility.yul\":2646:2953   */\n          pop\n          pop\n          pop\n          jump\t// out\n            /* \"#utility.yul\":2959:3279   */\n        tag_10:\n            /* \"#utility.yul\":3003:3009   */\n          0x00\n            /* \"#utility.yul\":3040:3041   */\n          0x02\n            /* \"#utility.yul\":3034:3038   */\n          dup3\n            /* \"#utility.yul\":3030:3042   */\n          div\n            /* \"#utility.yul\":3020:3042   */\n          swap1\n          pop\n            /* \"#utility.yul\":3087:3088   */\n          0x01\n            /* \"#utility.yul\":3081:3085   */\n          dup3\n            /* \"#utility.yul\":3077:3089   */\n          and\n            /* \"#utility.yul\":3108:3126   */\n          dup1\n            /* \"#utility.yul\":3098:3179   */\n          tag_78\n          jumpi\n            /* \"#utility.yul\":3164:3168   */\n          0x7f\n            /* \"#utility.yul\":3156:3162   */\n          dup3\n            /* \"#utility.yul\":3152:3169   */\n          and\n            /* \"#utility.yul\":3142:3169   */\n          swap2\n          pop\n            /* \"#utility.yul\":3098:3179   */\n        tag_78:\n            /* \"#utility.yul\":3226:3228   */\n          0x20\n            /* \"#utility.yul\":3218:3224   */\n          dup3\n            /* \"#utility.yul\":3215:3229   */\n          lt\n            /* \"#utility.yul\":3195:3213   */\n          dup2\n            /* \"#utility.yul\":3192:3230   */\n          eq\n            /* \"#utility.yul\":3189:3273   */\n          iszero\n          tag_79\n          jumpi\n            /* \"#utility.yul\":3245:3263   */\n          tag_80\n          tag_81\n          jump\t// in\n        tag_80:\n            /* \"#utility.yul\":3189:3273   */\n        tag_79:\n            /* \"#utility.yul\":3010:3279   */\n          pop\n            /* \"#utility.yul\":2959:3279   */\n          swap2\n          swap1\n          pop\n          jump\t// out\n            /* \"#utility.yul\":3285:3566   */\n        tag_60:\n            /* \"#utility.yul\":3368:3395   */\n          tag_83\n            /* \"#utility.yul\":3390:3394   */\n          dup3\n            /* \"#utility.yul\":3368:3395   */\n          tag_67\n          jump\t// in\n        tag_83:\n            /* \"#utility.yul\":3360:3366   */\n          dup2\n            /* \"#utility.yul\":3356:3396   */\n          add\n            /* \"#utility.yul\":3498:3504   */\n          dup2\n            /* \"#utility.yul\":3486:3496   */\n          dup2\n            /* \"#utility.yul\":3483:3505   */\n          lt\n            /* \"#utility.yul\":3462:3480   */\n          0xffffffffffffffff\n            /* \"#utility.yul\":3450:3460   */\n          dup3\n            /* \"#utility.yul\":3447:3481   */\n          gt\n            /* \"#utility.yul\":3444:3506   */\n          or\n            /* \"#utility.yul\":3441:3529   */\n          iszero\n          tag_84\n          jumpi\n            /* \"#utility.yul\":3509:3527   */\n          tag_85\n          tag_65\n          jump\t// in\n        tag_85:\n            /* \"#utility.yul\":3441:3529   */\n        tag_84:\n            /* \"#utility.yul\":3549:3559   */\n          dup1\n            /* \"#utility.yul\":3545:3547   */\n          0x40\n            /* \"#utility.yul\":3538:3560   */\n          mstore\n            /* \"#utility.yul\":3328:3566   */\n          pop\n            /* \"#utility.yul\":3285:3566   */\n          pop\n          pop\n          jump\t// out\n            /* \"#utility.yul\":3572:3752   */\n        tag_81:\n            /* \"#utility.yul\":3620:3697   */\n          0x4e487b7100000000000000000000000000000000000000000000000000000000\n            /* \"#utility.yul\":3617:3618   */\n          0x00\n            /* \"#utility.yul\":3610:3698   */\n          mstore\n            /* \"#utility.yul\":3717:3721   */\n          0x22\n            /* \"#utility.yul\":3714:3715   */\n          0x04\n            /* \"#utility.yul\":3707:3722   */\n          mstore\n            /* \"#utility.yul\":3741:3745   */\n          0x24\n            /* \"#utility.yul\":3738:3739   */\n          0x00\n            /* \"#utility.yul\":3731:3746   */\n          revert\n            /* \"#utility.yul\":3758:3938   */\n        tag_65:\n            /* \"#utility.yul\":3806:3883   */\n          0x4e487b7100000000000000000000000000000000000000000000000000000000\n            /* \"#utility.yul\":3803:3804   */\n          0x00\n            /* \"#utility.yul\":3796:3884   */\n          mstore\n            /* \"#utility.yul\":3903:3907   */\n          0x41\n            /* \"#utility.yul\":3900:3901   */\n          0x04\n            /* \"#utility.yul\":3893:3908   */\n          mstore\n            /* \"#utility.yul\":3927:3931   */\n          0x24\n            /* \"#utility.yul\":3924:3925   */\n          0x00\n            /* \"#utility.yul\":3917:3932   */\n          revert\n            /* \"#utility.yul\":3944:4061   */\n        tag_40:\n            /* \"#utility.yul\":4053:4054   */\n          0x00\n            /* \"#utility.yul\":4050:4051   */\n          dup1\n            /* \"#utility.yul\":4043:4055   */\n          revert\n            /* \"#utility.yul\":4067:4184   */\n        tag_29:\n            /* \"#utility.yul\":4176:4177   */\n          0x00\n            /* \"#utility.yul\":4173:4174   */\n          dup1\n            /* \"#utility.yul\":4166:4178   */\n          revert\n            /* \"#utility.yul\":4190:4307   */\n        tag_53:\n            /* \"#utility.yul\":4299:4300   */\n          0x00\n            /* \"#utility.yul\":4296:4297   */\n          dup1\n            /* \"#utility.yul\":4289:4301   */\n          revert\n            /* \"#utility.yul\":4313:4430   */\n        tag_49:\n            /* \"#utility.yul\":4422:4423   */\n          0x00\n            /* \"#utility.yul\":4419:4420   */\n          dup1\n            /* \"#utility.yul\":4412:4424   */\n          revert\n            /* \"#utility.yul\":4436:4538   */\n        tag_67:\n            /* \"#utility.yul\":4477:4483   */\n          0x00\n            /* \"#utility.yul\":4528:4530   */\n          0x1f\n            /* \"#utility.yul\":4524:4531   */\n          not\n            /* \"#utility.yul\":4519:4521   */\n          0x1f\n            /* \"#utility.yul\":4512:4517   */\n          dup4\n            /* \"#utility.yul\":4508:4522   */\n          add\n            /* \"#utility.yul\":4504:4532   */\n          and\n            /* \"#utility.yul\":4494:4532   */\n          swap1\n          pop\n            /* \"#utility.yul\":4436:4538   */\n          swap2\n          swap1\n          pop\n          jump\t// out\n            /* \"#utility.yul\":4544:4660   */\n        tag_35:\n            /* \"#utility.yul\":4614:4635   */\n          tag_94\n            /* \"#utility.yul\":4629:4634   */\n          dup2\n            /* \"#utility.yul\":4614:4635   */\n          tag_68\n          jump\t// in\n        tag_94:\n            /* \"#utility.yul\":4607:4612   */\n          dup2\n            /* \"#utility.yul\":4604:4636   */\n          eq\n            /* \"#utility.yul\":4594:4654   */\n          tag_95\n          jumpi\n            /* \"#utility.yul\":4650:4651   */\n          0x00\n            /* \"#utility.yul\":4647:4648   */\n          dup1\n            /* \"#utility.yul\":4640:4652   */\n          revert\n            /* \"#utility.yul\":4594:4654   */\n        tag_95:\n            /* \"#utility.yul\":4544:4660   */\n          pop\n          jump\t// out\n            /* \"#utility.yul\":4666:4788   */\n        tag_45:\n            /* \"#utility.yul\":4739:4763   */\n          tag_97\n            /* \"#utility.yul\":4757:4762   */\n          dup2\n            /* \"#utility.yul\":4739:4763   */\n          tag_70\n          jump\t// in\n        tag_97:\n            /* \"#utility.yul\":4732:4737   */\n          dup2\n            /* \"#utility.yul\":4729:4764   */\n          eq\n            /* \"#utility.yul\":4719:4782   */\n          tag_98\n          jumpi\n            /* \"#utility.yul\":4778:4779   */\n          0x00\n            /* \"#utility.yul\":4775:4776   */\n          dup1\n            /* \"#utility.yul\":4768:4780   */\n          revert\n            /* \"#utility.yul\":4719:4782   */\n        tag_98:\n            /* \"#utility.yul\":4666:4788   */\n          pop\n          jump\t// out\n            /* \"contracts/Car.sol\":35:483  contract Car {\r... */\n        tag_8:\n          dataSize(sub_0)\n          dup1\n          dataOffset(sub_0)\n          0x00\n          codecopy\n          0x00\n          return\n        stop\n\n        sub_0: assembly {\n                /* \"contracts/Car.sol\":35:483  contract Car {\r... */\n              mstore(0x40, 0x80)\n              callvalue\n              dup1\n              iszero\n              tag_1\n              jumpi\n              0x00\n              dup1\n              revert\n            tag_1:\n              pop\n              jumpi(tag_2, lt(calldatasize, 0x04))\n              shr(0xe0, calldataload(0x00))\n              dup1\n              0x1a28cc73\n              eq\n              tag_3\n              jumpi\n              dup1\n              0x26a18375\n              eq\n              tag_4\n              jumpi\n              dup1\n              0xab9dbd07\n              eq\n              tag_5\n              jumpi\n              dup1\n              0xc9b53900\n              eq\n              tag_6\n              jumpi\n              dup1\n              0xea73dbd2\n              eq\n              tag_7\n              jumpi\n            tag_2:\n              0x00\n              dup1\n              revert\n                /* \"contracts/Car.sol\":81:102  string public carName */\n            tag_3:\n              tag_8\n              tag_9\n              jump\t// in\n            tag_8:\n              mload(0x40)\n              tag_10\n              swap2\n              swap1\n              tag_11\n              jump\t// in\n            tag_10:\n              mload(0x40)\n              dup1\n              swap2\n              sub\n              swap1\n              return\n                /* \"contracts/Car.sol\":385:476  function setAvailability(bool newStatus) public {\r... */\n            tag_4:\n              tag_12\n              0x04\n              dup1\n              calldatasize\n              sub\n              dup2\n              add\n              swap1\n              tag_13\n              swap2\n              swap1\n              tag_14\n              jump\t// in\n            tag_13:\n              tag_15\n              jump\t// in\n            tag_12:\n              stop\n                /* \"contracts/Car.sol\":303:373  function getID() public  returns(uint) {\r... */\n            tag_5:\n              tag_16\n              tag_17\n              jump\t// in\n            tag_16:\n              mload(0x40)\n              tag_18\n              swap2\n              swap1\n              tag_19\n              jump\t// in\n            tag_18:\n              mload(0x40)\n              dup1\n              swap2\n              sub\n              swap1\n              return\n                /* \"contracts/Car.sol\":109:133  bool public availability */\n            tag_6:\n              tag_20\n              tag_21\n              jump\t// in\n            tag_20:\n              mload(0x40)\n              tag_22\n              swap2\n              swap1\n              tag_23\n              jump\t// in\n            tag_22:\n              mload(0x40)\n              dup1\n              swap2\n              sub\n              swap1\n              return\n                /* \"contracts/Car.sol\":57:74  uint public carID */\n            tag_7:\n              tag_24\n              tag_25\n              jump\t// in\n            tag_24:\n              mload(0x40)\n              tag_26\n              swap2\n              swap1\n              tag_19\n              jump\t// in\n            tag_26:\n              mload(0x40)\n              dup1\n              swap2\n              sub\n              swap1\n              return\n                /* \"contracts/Car.sol\":81:102  string public carName */\n            tag_9:\n              0x01\n              dup1\n              sload\n              tag_27\n              swap1\n              tag_28\n              jump\t// in\n            tag_27:\n              dup1\n              0x1f\n              add\n              0x20\n              dup1\n              swap2\n              div\n              mul\n              0x20\n              add\n              mload(0x40)\n              swap1\n              dup2\n              add\n              0x40\n              mstore\n              dup1\n              swap3\n              swap2\n              swap1\n              dup2\n              dup2\n              mstore\n              0x20\n              add\n              dup3\n              dup1\n              sload\n              tag_29\n              swap1\n              tag_28\n              jump\t// in\n            tag_29:\n              dup1\n              iszero\n              tag_30\n              jumpi\n              dup1\n              0x1f\n              lt\n              tag_31\n              jumpi\n              0x0100\n              dup1\n              dup4\n              sload\n              div\n              mul\n              dup4\n              mstore\n              swap2\n              0x20\n              add\n              swap2\n              jump(tag_30)\n            tag_31:\n              dup3\n              add\n              swap2\n              swap1\n              0x00\n              mstore\n              keccak256(0x00, 0x20)\n              swap1\n            tag_32:\n              dup2\n              sload\n              dup2\n              mstore\n              swap1\n              0x01\n              add\n              swap1\n              0x20\n              add\n              dup1\n              dup4\n              gt\n              tag_32\n              jumpi\n              dup3\n              swap1\n              sub\n              0x1f\n              and\n              dup3\n              add\n              swap2\n            tag_30:\n              pop\n              pop\n              pop\n              pop\n              pop\n              dup2\n              jump\t// out\n                /* \"contracts/Car.sol\":385:476  function setAvailability(bool newStatus) public {\r... */\n            tag_15:\n                /* \"contracts/Car.sol\":459:468  newStatus */\n              dup1\n                /* \"contracts/Car.sol\":444:456  availability */\n              0x02\n              0x00\n                /* \"contracts/Car.sol\":444:468  availability = newStatus */\n              0x0100\n              exp\n              dup2\n              sload\n              dup2\n              0xff\n              mul\n              not\n              and\n              swap1\n              dup4\n              iszero\n              iszero\n              mul\n              or\n              swap1\n              sstore\n              pop\n                /* \"contracts/Car.sol\":385:476  function setAvailability(bool newStatus) public {\r... */\n              pop\n              jump\t// out\n                /* \"contracts/Car.sol\":303:373  function getID() public  returns(uint) {\r... */\n            tag_17:\n                /* \"contracts/Car.sol\":336:340  uint */\n              0x00\n                /* \"contracts/Car.sol\":360:365  carID */\n              dup1\n              sload\n                /* \"contracts/Car.sol\":353:365  return carID */\n              swap1\n              pop\n                /* \"contracts/Car.sol\":303:373  function getID() public  returns(uint) {\r... */\n              swap1\n              jump\t// out\n                /* \"contracts/Car.sol\":109:133  bool public availability */\n            tag_21:\n              0x02\n              0x00\n              swap1\n              sload\n              swap1\n              0x0100\n              exp\n              swap1\n              div\n              0xff\n              and\n              dup2\n              jump\t// out\n                /* \"contracts/Car.sol\":57:74  uint public carID */\n            tag_25:\n              sload(0x00)\n              dup2\n              jump\t// out\n                /* \"#utility.yul\":7:140   */\n            tag_36:\n                /* \"#utility.yul\":50:55   */\n              0x00\n                /* \"#utility.yul\":88:94   */\n              dup2\n                /* \"#utility.yul\":75:95   */\n              calldataload\n                /* \"#utility.yul\":66:95   */\n              swap1\n              pop\n                /* \"#utility.yul\":104:134   */\n              tag_38\n                /* \"#utility.yul\":128:133   */\n              dup2\n                /* \"#utility.yul\":104:134   */\n              tag_39\n              jump\t// in\n            tag_38:\n                /* \"#utility.yul\":7:140   */\n              swap3\n              swap2\n              pop\n              pop\n              jump\t// out\n                /* \"#utility.yul\":146:469   */\n            tag_14:\n                /* \"#utility.yul\":202:208   */\n              0x00\n                /* \"#utility.yul\":251:253   */\n              0x20\n                /* \"#utility.yul\":239:248   */\n              dup3\n                /* \"#utility.yul\":230:237   */\n              dup5\n                /* \"#utility.yul\":226:249   */\n              sub\n                /* \"#utility.yul\":222:254   */\n              slt\n                /* \"#utility.yul\":219:338   */\n              iszero\n              tag_41\n              jumpi\n                /* \"#utility.yul\":257:336   */\n              tag_42\n              tag_43\n              jump\t// in\n            tag_42:\n                /* \"#utility.yul\":219:338   */\n            tag_41:\n                /* \"#utility.yul\":377:378   */\n              0x00\n                /* \"#utility.yul\":402:452   */\n              tag_44\n                /* \"#utility.yul\":444:451   */\n              dup5\n                /* \"#utility.yul\":435:441   */\n              dup3\n                /* \"#utility.yul\":424:433   */\n              dup6\n                /* \"#utility.yul\":420:442   */\n              add\n                /* \"#utility.yul\":402:452   */\n              tag_36\n              jump\t// in\n            tag_44:\n                /* \"#utility.yul\":392:452   */\n              swap2\n              pop\n                /* \"#utility.yul\":348:462   */\n              pop\n                /* \"#utility.yul\":146:469   */\n              swap3\n              swap2\n              pop\n              pop\n              jump\t// out\n                /* \"#utility.yul\":475:584   */\n            tag_45:\n                /* \"#utility.yul\":556:577   */\n              tag_47\n                /* \"#utility.yul\":571:576   */\n              dup2\n                /* \"#utility.yul\":556:577   */\n              tag_48\n              jump\t// in\n            tag_47:\n                /* \"#utility.yul\":551:554   */\n              dup3\n                /* \"#utility.yul\":544:578   */\n              mstore\n                /* \"#utility.yul\":475:584   */\n              pop\n              pop\n              jump\t// out\n                /* \"#utility.yul\":590:954   */\n            tag_49:\n                /* \"#utility.yul\":678:681   */\n              0x00\n                /* \"#utility.yul\":706:745   */\n              tag_51\n                /* \"#utility.yul\":739:744   */\n              dup3\n                /* \"#utility.yul\":706:745   */\n              tag_52\n              jump\t// in\n            tag_51:\n                /* \"#utility.yul\":761:832   */\n              tag_53\n                /* \"#utility.yul\":825:831   */\n              dup2\n                /* \"#utility.yul\":820:823   */\n              dup6\n                /* \"#utility.yul\":761:832   */\n              tag_54\n              jump\t// in\n            tag_53:\n                /* \"#utility.yul\":754:832   */\n              swap4\n              pop\n                /* \"#utility.yul\":841:893   */\n              tag_55\n                /* \"#utility.yul\":886:892   */\n              dup2\n                /* \"#utility.yul\":881:884   */\n              dup6\n                /* \"#utility.yul\":874:878   */\n              0x20\n                /* \"#utility.yul\":867:872   */\n              dup7\n                /* \"#utility.yul\":863:879   */\n              add\n                /* \"#utility.yul\":841:893   */\n              tag_56\n              jump\t// in\n            tag_55:\n                /* \"#utility.yul\":918:947   */\n              tag_57\n                /* \"#utility.yul\":940:946   */\n              dup2\n                /* \"#utility.yul\":918:947   */\n              tag_58\n              jump\t// in\n            tag_57:\n                /* \"#utility.yul\":913:916   */\n              dup5\n                /* \"#utility.yul\":909:948   */\n              add\n                /* \"#utility.yul\":902:948   */\n              swap2\n              pop\n                /* \"#utility.yul\":682:954   */\n              pop\n                /* \"#utility.yul\":590:954   */\n              swap3\n              swap2\n              pop\n              pop\n              jump\t// out\n                /* \"#utility.yul\":960:1078   */\n            tag_59:\n                /* \"#utility.yul\":1047:1071   */\n              tag_61\n                /* \"#utility.yul\":1065:1070   */\n              dup2\n                /* \"#utility.yul\":1047:1071   */\n              tag_62\n              jump\t// in\n            tag_61:\n                /* \"#utility.yul\":1042:1045   */\n              dup3\n                /* \"#utility.yul\":1035:1072   */\n              mstore\n                /* \"#utility.yul\":960:1078   */\n              pop\n              pop\n              jump\t// out\n                /* \"#utility.yul\":1084:1294   */\n            tag_23:\n                /* \"#utility.yul\":1171:1175   */\n              0x00\n                /* \"#utility.yul\":1209:1211   */\n              0x20\n                /* \"#utility.yul\":1198:1207   */\n              dup3\n                /* \"#utility.yul\":1194:1212   */\n              add\n                /* \"#utility.yul\":1186:1212   */\n              swap1\n              pop\n                /* \"#utility.yul\":1222:1287   */\n              tag_64\n                /* \"#utility.yul\":1284:1285   */\n              0x00\n                /* \"#utility.yul\":1273:1282   */\n              dup4\n                /* \"#utility.yul\":1269:1286   */\n              add\n                /* \"#utility.yul\":1260:1266   */\n              dup5\n                /* \"#utility.yul\":1222:1287   */\n              tag_45\n              jump\t// in\n            tag_64:\n                /* \"#utility.yul\":1084:1294   */\n              swap3\n              swap2\n              pop\n              pop\n              jump\t// out\n                /* \"#utility.yul\":1300:1613   */\n            tag_11:\n                /* \"#utility.yul\":1413:1417   */\n              0x00\n                /* \"#utility.yul\":1451:1453   */\n              0x20\n                /* \"#utility.yul\":1440:1449   */\n              dup3\n                /* \"#utility.yul\":1436:1454   */\n              add\n                /* \"#utility.yul\":1428:1454   */\n              swap1\n              pop\n                /* \"#utility.yul\":1500:1509   */\n              dup2\n                /* \"#utility.yul\":1494:1498   */\n              dup2\n                /* \"#utility.yul\":1490:1510   */\n              sub\n                /* \"#utility.yul\":1486:1487   */\n              0x00\n                /* \"#utility.yul\":1475:1484   */\n              dup4\n                /* \"#utility.yul\":1471:1488   */\n              add\n                /* \"#utility.yul\":1464:1511   */\n              mstore\n                /* \"#utility.yul\":1528:1606   */\n              tag_66\n                /* \"#utility.yul\":1601:1605   */\n              dup2\n                /* \"#utility.yul\":1592:1598   */\n              dup5\n                /* \"#utility.yul\":1528:1606   */\n              tag_49\n              jump\t// in\n            tag_66:\n                /* \"#utility.yul\":1520:1606   */\n              swap1\n              pop\n                /* \"#utility.yul\":1300:1613   */\n              swap3\n              swap2\n              pop\n              pop\n              jump\t// out\n                /* \"#utility.yul\":1619:1841   */\n            tag_19:\n                /* \"#utility.yul\":1712:1716   */\n              0x00\n                /* \"#utility.yul\":1750:1752   */\n              0x20\n                /* \"#utility.yul\":1739:1748   */\n              dup3\n                /* \"#utility.yul\":1735:1753   */\n              add\n                /* \"#utility.yul\":1727:1753   */\n              swap1\n              pop\n                /* \"#utility.yul\":1763:1834   */\n              tag_68\n                /* \"#utility.yul\":1831:1832   */\n              0x00\n                /* \"#utility.yul\":1820:1829   */\n              dup4\n                /* \"#utility.yul\":1816:1833   */\n              add\n                /* \"#utility.yul\":1807:1813   */\n              dup5\n                /* \"#utility.yul\":1763:1834   */\n              tag_59\n              jump\t// in\n            tag_68:\n                /* \"#utility.yul\":1619:1841   */\n              swap3\n              swap2\n              pop\n              pop\n              jump\t// out\n                /* \"#utility.yul\":1928:2027   */\n            tag_52:\n                /* \"#utility.yul\":1980:1986   */\n              0x00\n                /* \"#utility.yul\":2014:2019   */\n              dup2\n                /* \"#utility.yul\":2008:2020   */\n              mload\n                /* \"#utility.yul\":1998:2020   */\n              swap1\n              pop\n                /* \"#utility.yul\":1928:2027   */\n              swap2\n              swap1\n              pop\n              jump\t// out\n                /* \"#utility.yul\":2033:2202   */\n            tag_54:\n                /* \"#utility.yul\":2117:2128   */\n              0x00\n                /* \"#utility.yul\":2151:2157   */\n              dup3\n                /* \"#utility.yul\":2146:2149   */\n              dup3\n                /* \"#utility.yul\":2139:2158   */\n              mstore\n                /* \"#utility.yul\":2191:2195   */\n              0x20\n                /* \"#utility.yul\":2186:2189   */\n              dup3\n                /* \"#utility.yul\":2182:2196   */\n              add\n                /* \"#utility.yul\":2167:2196   */\n              swap1\n              pop\n                /* \"#utility.yul\":2033:2202   */\n              swap3\n              swap2\n              pop\n              pop\n              jump\t// out\n                /* \"#utility.yul\":2208:2298   */\n            tag_48:\n                /* \"#utility.yul\":2242:2249   */\n              0x00\n                /* \"#utility.yul\":2285:2290   */\n              dup2\n                /* \"#utility.yul\":2278:2291   */\n              iszero\n                /* \"#utility.yul\":2271:2292   */\n              iszero\n                /* \"#utility.yul\":2260:2292   */\n              swap1\n              pop\n                /* \"#utility.yul\":2208:2298   */\n              swap2\n              swap1\n              pop\n              jump\t// out\n                /* \"#utility.yul\":2304:2381   */\n            tag_62:\n                /* \"#utility.yul\":2341:2348   */\n              0x00\n                /* \"#utility.yul\":2370:2375   */\n              dup2\n                /* \"#utility.yul\":2359:2375   */\n              swap1\n              pop\n                /* \"#utility.yul\":2304:2381   */\n              swap2\n              swap1\n              pop\n              jump\t// out\n                /* \"#utility.yul\":2387:2694   */\n            tag_56:\n                /* \"#utility.yul\":2455:2456   */\n              0x00\n                /* \"#utility.yul\":2465:2578   */\n            tag_76:\n                /* \"#utility.yul\":2479:2485   */\n              dup4\n                /* \"#utility.yul\":2476:2477   */\n              dup2\n                /* \"#utility.yul\":2473:2486   */\n              lt\n                /* \"#utility.yul\":2465:2578   */\n              iszero\n              tag_78\n              jumpi\n                /* \"#utility.yul\":2564:2565   */\n              dup1\n                /* \"#utility.yul\":2559:2562   */\n              dup3\n                /* \"#utility.yul\":2555:2566   */\n              add\n                /* \"#utility.yul\":2549:2567   */\n              mload\n                /* \"#utility.yul\":2545:2546   */\n              dup2\n                /* \"#utility.yul\":2540:2543   */\n              dup5\n                /* \"#utility.yul\":2536:2547   */\n              add\n                /* \"#utility.yul\":2529:2568   */\n              mstore\n                /* \"#utility.yul\":2501:2503   */\n              0x20\n                /* \"#utility.yul\":2498:2499   */\n              dup2\n                /* \"#utility.yul\":2494:2504   */\n              add\n                /* \"#utility.yul\":2489:2504   */\n              swap1\n              pop\n                /* \"#utility.yul\":2465:2578   */\n              jump(tag_76)\n            tag_78:\n                /* \"#utility.yul\":2596:2602   */\n              dup4\n                /* \"#utility.yul\":2593:2594   */\n              dup2\n                /* \"#utility.yul\":2590:2603   */\n              gt\n                /* \"#utility.yul\":2587:2688   */\n              iszero\n              tag_79\n              jumpi\n                /* \"#utility.yul\":2676:2677   */\n              0x00\n                /* \"#utility.yul\":2667:2673   */\n              dup5\n                /* \"#utility.yul\":2662:2665   */\n              dup5\n                /* \"#utility.yul\":2658:2674   */\n              add\n                /* \"#utility.yul\":2651:2678   */\n              mstore\n                /* \"#utility.yul\":2587:2688   */\n            tag_79:\n                /* \"#utility.yul\":2436:2694   */\n              pop\n                /* \"#utility.yul\":2387:2694   */\n              pop\n              pop\n              pop\n              jump\t// out\n                /* \"#utility.yul\":2700:3020   */\n            tag_28:\n                /* \"#utility.yul\":2744:2750   */\n              0x00\n                /* \"#utility.yul\":2781:2782   */\n              0x02\n                /* \"#utility.yul\":2775:2779   */\n              dup3\n                /* \"#utility.yul\":2771:2783   */\n              div\n                /* \"#utility.yul\":2761:2783   */\n              swap1\n              pop\n                /* \"#utility.yul\":2828:2829   */\n              0x01\n                /* \"#utility.yul\":2822:2826   */\n              dup3\n                /* \"#utility.yul\":2818:2830   */\n              and\n                /* \"#utility.yul\":2849:2867   */\n              dup1\n                /* \"#utility.yul\":2839:2920   */\n              tag_81\n              jumpi\n                /* \"#utility.yul\":2905:2909   */\n              0x7f\n                /* \"#utility.yul\":2897:2903   */\n              dup3\n                /* \"#utility.yul\":2893:2910   */\n              and\n                /* \"#utility.yul\":2883:2910   */\n              swap2\n              pop\n                /* \"#utility.yul\":2839:2920   */\n            tag_81:\n                /* \"#utility.yul\":2967:2969   */\n              0x20\n                /* \"#utility.yul\":2959:2965   */\n              dup3\n                /* \"#utility.yul\":2956:2970   */\n              lt\n                /* \"#utility.yul\":2936:2954   */\n              dup2\n                /* \"#utility.yul\":2933:2971   */\n              eq\n                /* \"#utility.yul\":2930:3014   */\n              iszero\n              tag_82\n              jumpi\n                /* \"#utility.yul\":2986:3004   */\n              tag_83\n              tag_84\n              jump\t// in\n            tag_83:\n                /* \"#utility.yul\":2930:3014   */\n            tag_82:\n                /* \"#utility.yul\":2751:3020   */\n              pop\n                /* \"#utility.yul\":2700:3020   */\n              swap2\n              swap1\n              pop\n              jump\t// out\n                /* \"#utility.yul\":3026:3206   */\n            tag_84:\n                /* \"#utility.yul\":3074:3151   */\n              0x4e487b7100000000000000000000000000000000000000000000000000000000\n                /* \"#utility.yul\":3071:3072   */\n              0x00\n                /* \"#utility.yul\":3064:3152   */\n              mstore\n                /* \"#utility.yul\":3171:3175   */\n              0x22\n                /* \"#utility.yul\":3168:3169   */\n              0x04\n                /* \"#utility.yul\":3161:3176   */\n              mstore\n                /* \"#utility.yul\":3195:3199   */\n              0x24\n                /* \"#utility.yul\":3192:3193   */\n              0x00\n                /* \"#utility.yul\":3185:3200   */\n              revert\n                /* \"#utility.yul\":3335:3452   */\n            tag_43:\n                /* \"#utility.yul\":3444:3445   */\n              0x00\n                /* \"#utility.yul\":3441:3442   */\n              dup1\n                /* \"#utility.yul\":3434:3446   */\n              revert\n                /* \"#utility.yul\":3458:3560   */\n            tag_58:\n                /* \"#utility.yul\":3499:3505   */\n              0x00\n                /* \"#utility.yul\":3550:3552   */\n              0x1f\n                /* \"#utility.yul\":3546:3553   */\n              not\n                /* \"#utility.yul\":3541:3543   */\n              0x1f\n                /* \"#utility.yul\":3534:3539   */\n              dup4\n                /* \"#utility.yul\":3530:3544   */\n              add\n                /* \"#utility.yul\":3526:3554   */\n              and\n                /* \"#utility.yul\":3516:3554   */\n              swap1\n              pop\n                /* \"#utility.yul\":3458:3560   */\n              swap2\n              swap1\n              pop\n              jump\t// out\n                /* \"#utility.yul\":3566:3682   */\n            tag_39:\n                /* \"#utility.yul\":3636:3657   */\n              tag_91\n                /* \"#utility.yul\":3651:3656   */\n              dup2\n                /* \"#utility.yul\":3636:3657   */\n              tag_48\n              jump\t// in\n            tag_91:\n                /* \"#utility.yul\":3629:3634   */\n              dup2\n                /* \"#utility.yul\":3626:3658   */\n              eq\n                /* \"#utility.yul\":3616:3676   */\n              tag_92\n              jumpi\n                /* \"#utility.yul\":3672:3673   */\n              0x00\n                /* \"#utility.yul\":3669:3670   */\n              dup1\n                /* \"#utility.yul\":3662:3674   */\n              revert\n                /* \"#utility.yul\":3616:3676   */\n            tag_92:\n                /* \"#utility.yul\":3566:3682   */\n              pop\n              jump\t// out\n\n            auxdata: 0xa264697066735822122087f452ae05dae797de3bf128b593c1f1bfcf987900fd9c613f44a34178457bd164736f6c63430008070033\n        }\n    }\n\n    auxdata: 0xa26469706673582212209438f92e3bbbcbf25b0490d4f2cffd8a1c8ff4045cf73064935ce9ebd66dde3264736f6c63430008070033\n}\n",
				"bytecode": {
					"linkReferences": {},
					"object": "6080604052600567ffffffffffffffff81111561001f5761001e61011d565b5b60405190808252806020026020018201604052801561004d5781602001602082028036833780820191505090505b5060009080519060200190610063929190610076565b5034801561007057600080fd5b5061014c565b8280548282559060005260206000209081019282156100ef579160200282015b828111156100ee5782518260006101000a81548173ffffffffffffffffffffffffffffffffffffffff021916908373ffffffffffffffffffffffffffffffffffffffff16021790555091602001919060010190610096565b5b5090506100fc9190610100565b5090565b5b80821115610119576000816000905550600101610101565b5090565b7f4e487b7100000000000000000000000000000000000000000000000000000000600052604160045260246000fd5b610f918061015b6000396000f3fe60806040523480156200001157600080fd5b5060043610620000465760003560e01c806317c39286146200004b57806334f719e1146200006d5780638fe7cdf6146200008d575b600080fd5b62000055620000c3565b604051620000649190620004a7565b60405180910390f35b6200008b600480360381019062000085919062000323565b62000153565b005b620000ab6004803603810190620000a59190620002f1565b620001f7565b604051620000ba9190620004cb565b60405180910390f35b606060008054806020026020016040519081016040528092919081815260200182805480156200014957602002820191906000526020600020905b8160009054906101000a900473ffffffffffffffffffffffffffffffffffffffff1673ffffffffffffffffffffffffffffffffffffffff1681526020019060010190808311620000fe575b5050505050905090565b6000838383604051620001669062000237565b6200017493929190620004e8565b604051809103906000f08015801562000191573d6000803e3d6000fd5b509080600181540180825580915050600190039060005260206000200160009091909190916101000a81548173ffffffffffffffffffffffffffffffffffffffff021916908373ffffffffffffffffffffffffffffffffffffffff160217905550505050565b600081815481106200020857600080fd5b906000526020600020016000915054906101000a900473ffffffffffffffffffffffffffffffffffffffff1681565b610806806200075683390190565b60006200025c620002568462000555565b6200052c565b9050828152602081018484840111156200027b576200027a62000701565b5b6200028884828562000652565b509392505050565b600081359050620002a18162000721565b92915050565b600082601f830112620002bf57620002be620006fc565b5b8135620002d184826020860162000245565b91505092915050565b600081359050620002eb816200073b565b92915050565b6000602082840312156200030a57620003096200070b565b5b60006200031a84828501620002da565b91505092915050565b6000806000606084860312156200033f576200033e6200070b565b5b60006200034f86828701620002da565b935050602084013567ffffffffffffffff81111562000373576200037262000706565b5b6200038186828701620002a7565b9250506040620003948682870162000290565b9150509250925092565b6000620003ac838362000433565b60208301905092915050565b6000620003c5826200059b565b620003d18185620005be565b9350620003de836200058b565b8060005b8381101562000415578151620003f988826200039e565b97506200040683620005b1565b925050600181019050620003e2565b5085935050505092915050565b6200042d81620005e0565b82525050565b6200043e8162000616565b82525050565b6200044f8162000616565b82525050565b60006200046282620005a6565b6200046e8185620005cf565b93506200048081856020860162000661565b6200048b8162000710565b840191505092915050565b620004a1816200060c565b82525050565b60006020820190508181036000830152620004c38184620003b8565b905092915050565b6000602082019050620004e2600083018462000444565b92915050565b6000606082019050620004ff600083018662000496565b818103602083015262000513818562000455565b905062000524604083018462000422565b949350505050565b6000620005386200054b565b905062000546828262000697565b919050565b6000604051905090565b600067ffffffffffffffff821115620005735762000572620006cd565b5b6200057e8262000710565b9050602081019050919050565b6000819050602082019050919050565b600081519050919050565b600081519050919050565b6000602082019050919050565b600082825260208201905092915050565b600082825260208201905092915050565b60008115159050919050565b600073ffffffffffffffffffffffffffffffffffffffff82169050919050565b6000819050919050565b600062000623826200062a565b9050919050565b600062000637826200063e565b9050919050565b60006200064b82620005ec565b9050919050565b82818337600083830152505050565b60005b838110156200068157808201518184015260208101905062000664565b8381111562000691576000848401525b50505050565b620006a28262000710565b810181811067ffffffffffffffff82111715620006c457620006c3620006cd565b5b80604052505050565b7f4e487b7100000000000000000000000000000000000000000000000000000000600052604160045260246000fd5b600080fd5b600080fd5b600080fd5b600080fd5b6000601f19601f8301169050919050565b6200072c81620005e0565b81146200073857600080fd5b50565b62000746816200060c565b81146200075257600080fd5b5056fe60806040523480156200001157600080fd5b5060405162000806380380620008068339818101604052810190620000379190620001d6565b826000819055508160019080519060200190620000569291906200007a565b5080600260006101000a81548160ff0219169083151502179055505050506200041f565b8280546200008890620002fc565b90600052602060002090601f016020900481019282620000ac5760008555620000f8565b82601f10620000c757805160ff1916838001178555620000f8565b82800160010185558215620000f8579182015b82811115620000f7578251825591602001919060010190620000da565b5b5090506200010791906200010b565b5090565b5b80821115620001265760008160009055506001016200010c565b5090565b6000620001416200013b846200027a565b62000251565b90508281526020810184848401111562000160576200015f620003cb565b5b6200016d848285620002c6565b509392505050565b6000815190506200018681620003eb565b92915050565b600082601f830112620001a457620001a3620003c6565b5b8151620001b68482602086016200012a565b91505092915050565b600081519050620001d08162000405565b92915050565b600080600060608486031215620001f257620001f1620003d5565b5b60006200020286828701620001bf565b935050602084015167ffffffffffffffff811115620002265762000225620003d0565b5b62000234868287016200018c565b9250506040620002478682870162000175565b9150509250925092565b60006200025d62000270565b90506200026b828262000332565b919050565b6000604051905090565b600067ffffffffffffffff82111562000298576200029762000397565b5b620002a382620003da565b9050602081019050919050565b60008115159050919050565b6000819050919050565b60005b83811015620002e6578082015181840152602081019050620002c9565b83811115620002f6576000848401525b50505050565b600060028204905060018216806200031557607f821691505b602082108114156200032c576200032b62000368565b5b50919050565b6200033d82620003da565b810181811067ffffffffffffffff821117156200035f576200035e62000397565b5b80604052505050565b7f4e487b7100000000000000000000000000000000000000000000000000000000600052602260045260246000fd5b7f4e487b7100000000000000000000000000000000000000000000000000000000600052604160045260246000fd5b600080fd5b600080fd5b600080fd5b600080fd5b6000601f19601f8301169050919050565b620003f681620002b0565b81146200040257600080fd5b50565b6200041081620002bc565b81146200041c57600080fd5b50565b6103d7806200042f6000396000f3fe608060405234801561001057600080fd5b50600436106100575760003560e01c80631a28cc731461005c57806326a183751461007a578063ab9dbd0714610096578063c9b53900146100b4578063ea73dbd2146100d2575b600080fd5b6100646100f0565b6040516100719190610271565b60405180910390f35b610094600480360381019061008f91906101d2565b61017e565b005b61009e61019b565b6040516100ab9190610293565b60405180910390f35b6100bc6101a4565b6040516100c99190610256565b60405180910390f35b6100da6101b7565b6040516100e79190610293565b60405180910390f35b600180546100fd90610313565b80601f016020809104026020016040519081016040528092919081815260200182805461012990610313565b80156101765780601f1061014b57610100808354040283529160200191610176565b820191906000526020600020905b81548152906001019060200180831161015957829003601f168201915b505050505081565b80600260006101000a81548160ff02191690831515021790555050565b60008054905090565b600260009054906101000a900460ff1681565b60005481565b6000813590506101cc8161038a565b92915050565b6000602082840312156101e8576101e7610374565b5b60006101f6848285016101bd565b91505092915050565b610208816102ca565b82525050565b6000610219826102ae565b61022381856102b9565b93506102338185602086016102e0565b61023c81610379565b840191505092915050565b610250816102d6565b82525050565b600060208201905061026b60008301846101ff565b92915050565b6000602082019050818103600083015261028b818461020e565b905092915050565b60006020820190506102a86000830184610247565b92915050565b600081519050919050565b600082825260208201905092915050565b60008115159050919050565b6000819050919050565b60005b838110156102fe5780820151818401526020810190506102e3565b8381111561030d576000848401525b50505050565b6000600282049050600182168061032b57607f821691505b6020821081141561033f5761033e610345565b5b50919050565b7f4e487b7100000000000000000000000000000000000000000000000000000000600052602260045260246000fd5b600080fd5b6000601f19601f8301169050919050565b610393816102ca565b811461039e57600080fd5b5056fea264697066735822122087f452ae05dae797de3bf128b593c1f1bfcf987900fd9c613f44a34178457bd164736f6c63430008070033a26469706673582212209438f92e3bbbcbf25b0490d4f2cffd8a1c8ff4045cf73064935ce9ebd66dde3264736f6c63430008070033",
					"opcodes": "PUSH1 0x80 PUSH1 0x40 MSTORE PUSH1 0x5 PUSH8 0xFFFFFFFFFFFFFFFF DUP2 GT ISZERO PUSH2 0x1F JUMPI PUSH2 0x1E PUSH2 0x11D JUMP JUMPDEST JUMPDEST PUSH1 0x40 MLOAD SWAP1 DUP1 DUP3 MSTORE DUP1 PUSH1 0x20 MUL PUSH1 0x20 ADD DUP3 ADD PUSH1 0x40 MSTORE DUP1 ISZERO PUSH2 0x4D JUMPI DUP2 PUSH1 0x20 ADD PUSH1 0x20 DUP3 MUL DUP1 CALLDATASIZE DUP4 CALLDATACOPY DUP1 DUP3 ADD SWAP2 POP POP SWAP1 POP JUMPDEST POP PUSH1 0x0 SWAP1 DUP1 MLOAD SWAP1 PUSH1 0x20 ADD SWAP1 PUSH2 0x63 SWAP3 SWAP2 SWAP1 PUSH2 0x76 JUMP JUMPDEST POP CALLVALUE DUP1 ISZERO PUSH2 0x70 JUMPI PUSH1 0x0 DUP1 REVERT JUMPDEST POP PUSH2 0x14C JUMP JUMPDEST DUP3 DUP1 SLOAD DUP3 DUP3 SSTORE SWAP1 PUSH1 0x0 MSTORE PUSH1 0x20 PUSH1 0x0 KECCAK256 SWAP1 DUP2 ADD SWAP3 DUP3 ISZERO PUSH2 0xEF JUMPI SWAP2 PUSH1 0x20 MUL DUP3 ADD JUMPDEST DUP3 DUP2 GT ISZERO PUSH2 0xEE JUMPI DUP3 MLOAD DUP3 PUSH1 0x0 PUSH2 0x100 EXP DUP2 SLOAD DUP2 PUSH20 0xFFFFFFFFFFFFFFFFFFFFFFFFFFFFFFFFFFFFFFFF MUL NOT AND SWAP1 DUP4 PUSH20 0xFFFFFFFFFFFFFFFFFFFFFFFFFFFFFFFFFFFFFFFF AND MUL OR SWAP1 SSTORE POP SWAP2 PUSH1 0x20 ADD SWAP2 SWAP1 PUSH1 0x1 ADD SWAP1 PUSH2 0x96 JUMP JUMPDEST JUMPDEST POP SWAP1 POP PUSH2 0xFC SWAP2 SWAP1 PUSH2 0x100 JUMP JUMPDEST POP SWAP1 JUMP JUMPDEST JUMPDEST DUP1 DUP3 GT ISZERO PUSH2 0x119 JUMPI PUSH1 0x0 DUP2 PUSH1 0x0 SWAP1 SSTORE POP PUSH1 0x1 ADD PUSH2 0x101 JUMP JUMPDEST POP SWAP1 JUMP JUMPDEST PUSH32 0x4E487B7100000000000000000000000000000000000000000000000000000000 PUSH1 0x0 MSTORE PUSH1 0x41 PUSH1 0x4 MSTORE PUSH1 0x24 PUSH1 0x0 REVERT JUMPDEST PUSH2 0xF91 DUP1 PUSH2 0x15B PUSH1 0x0 CODECOPY PUSH1 0x0 RETURN INVALID PUSH1 0x80 PUSH1 0x40 MSTORE CALLVALUE DUP1 ISZERO PUSH3 0x11 JUMPI PUSH1 0x0 DUP1 REVERT JUMPDEST POP PUSH1 0x4 CALLDATASIZE LT PUSH3 0x46 JUMPI PUSH1 0x0 CALLDATALOAD PUSH1 0xE0 SHR DUP1 PUSH4 0x17C39286 EQ PUSH3 0x4B JUMPI DUP1 PUSH4 0x34F719E1 EQ PUSH3 0x6D JUMPI DUP1 PUSH4 0x8FE7CDF6 EQ PUSH3 0x8D JUMPI JUMPDEST PUSH1 0x0 DUP1 REVERT JUMPDEST PUSH3 0x55 PUSH3 0xC3 JUMP JUMPDEST PUSH1 0x40 MLOAD PUSH3 0x64 SWAP2 SWAP1 PUSH3 0x4A7 JUMP JUMPDEST PUSH1 0x40 MLOAD DUP1 SWAP2 SUB SWAP1 RETURN JUMPDEST PUSH3 0x8B PUSH1 0x4 DUP1 CALLDATASIZE SUB DUP2 ADD SWAP1 PUSH3 0x85 SWAP2 SWAP1 PUSH3 0x323 JUMP JUMPDEST PUSH3 0x153 JUMP JUMPDEST STOP JUMPDEST PUSH3 0xAB PUSH1 0x4 DUP1 CALLDATASIZE SUB DUP2 ADD SWAP1 PUSH3 0xA5 SWAP2 SWAP1 PUSH3 0x2F1 JUMP JUMPDEST PUSH3 0x1F7 JUMP JUMPDEST PUSH1 0x40 MLOAD PUSH3 0xBA SWAP2 SWAP1 PUSH3 0x4CB JUMP JUMPDEST PUSH1 0x40 MLOAD DUP1 SWAP2 SUB SWAP1 RETURN JUMPDEST PUSH1 0x60 PUSH1 0x0 DUP1 SLOAD DUP1 PUSH1 0x20 MUL PUSH1 0x20 ADD PUSH1 0x40 MLOAD SWAP1 DUP2 ADD PUSH1 0x40 MSTORE DUP1 SWAP3 SWAP2 SWAP1 DUP2 DUP2 MSTORE PUSH1 0x20 ADD DUP3 DUP1 SLOAD DUP1 ISZERO PUSH3 0x149 JUMPI PUSH1 0x20 MUL DUP3 ADD SWAP2 SWAP1 PUSH1 0x0 MSTORE PUSH1 0x20 PUSH1 0x0 KECCAK256 SWAP1 JUMPDEST DUP2 PUSH1 0x0 SWAP1 SLOAD SWAP1 PUSH2 0x100 EXP SWAP1 DIV PUSH20 0xFFFFFFFFFFFFFFFFFFFFFFFFFFFFFFFFFFFFFFFF AND PUSH20 0xFFFFFFFFFFFFFFFFFFFFFFFFFFFFFFFFFFFFFFFF AND DUP2 MSTORE PUSH1 0x20 ADD SWAP1 PUSH1 0x1 ADD SWAP1 DUP1 DUP4 GT PUSH3 0xFE JUMPI JUMPDEST POP POP POP POP POP SWAP1 POP SWAP1 JUMP JUMPDEST PUSH1 0x0 DUP4 DUP4 DUP4 PUSH1 0x40 MLOAD PUSH3 0x166 SWAP1 PUSH3 0x237 JUMP JUMPDEST PUSH3 0x174 SWAP4 SWAP3 SWAP2 SWAP1 PUSH3 0x4E8 JUMP JUMPDEST PUSH1 0x40 MLOAD DUP1 SWAP2 SUB SWAP1 PUSH1 0x0 CREATE DUP1 ISZERO DUP1 ISZERO PUSH3 0x191 JUMPI RETURNDATASIZE PUSH1 0x0 DUP1 RETURNDATACOPY RETURNDATASIZE PUSH1 0x0 REVERT JUMPDEST POP SWAP1 DUP1 PUSH1 0x1 DUP2 SLOAD ADD DUP1 DUP3 SSTORE DUP1 SWAP2 POP POP PUSH1 0x1 SWAP1 SUB SWAP1 PUSH1 0x0 MSTORE PUSH1 0x20 PUSH1 0x0 KECCAK256 ADD PUSH1 0x0 SWAP1 SWAP2 SWAP1 SWAP2 SWAP1 SWAP2 PUSH2 0x100 EXP DUP2 SLOAD DUP2 PUSH20 0xFFFFFFFFFFFFFFFFFFFFFFFFFFFFFFFFFFFFFFFF MUL NOT AND SWAP1 DUP4 PUSH20 0xFFFFFFFFFFFFFFFFFFFFFFFFFFFFFFFFFFFFFFFF AND MUL OR SWAP1 SSTORE POP POP POP POP JUMP JUMPDEST PUSH1 0x0 DUP2 DUP2 SLOAD DUP2 LT PUSH3 0x208 JUMPI PUSH1 0x0 DUP1 REVERT JUMPDEST SWAP1 PUSH1 0x0 MSTORE PUSH1 0x20 PUSH1 0x0 KECCAK256 ADD PUSH1 0x0 SWAP2 POP SLOAD SWAP1 PUSH2 0x100 EXP SWAP1 DIV PUSH20 0xFFFFFFFFFFFFFFFFFFFFFFFFFFFFFFFFFFFFFFFF AND DUP2 JUMP JUMPDEST PUSH2 0x806 DUP1 PUSH3 0x756 DUP4 CODECOPY ADD SWAP1 JUMP JUMPDEST PUSH1 0x0 PUSH3 0x25C PUSH3 0x256 DUP5 PUSH3 0x555 JUMP JUMPDEST PUSH3 0x52C JUMP JUMPDEST SWAP1 POP DUP3 DUP2 MSTORE PUSH1 0x20 DUP2 ADD DUP5 DUP5 DUP5 ADD GT ISZERO PUSH3 0x27B JUMPI PUSH3 0x27A PUSH3 0x701 JUMP JUMPDEST JUMPDEST PUSH3 0x288 DUP5 DUP3 DUP6 PUSH3 0x652 JUMP JUMPDEST POP SWAP4 SWAP3 POP POP POP JUMP JUMPDEST PUSH1 0x0 DUP2 CALLDATALOAD SWAP1 POP PUSH3 0x2A1 DUP2 PUSH3 0x721 JUMP JUMPDEST SWAP3 SWAP2 POP POP JUMP JUMPDEST PUSH1 0x0 DUP3 PUSH1 0x1F DUP4 ADD SLT PUSH3 0x2BF JUMPI PUSH3 0x2BE PUSH3 0x6FC JUMP JUMPDEST JUMPDEST DUP2 CALLDATALOAD PUSH3 0x2D1 DUP5 DUP3 PUSH1 0x20 DUP7 ADD PUSH3 0x245 JUMP JUMPDEST SWAP2 POP POP SWAP3 SWAP2 POP POP JUMP JUMPDEST PUSH1 0x0 DUP2 CALLDATALOAD SWAP1 POP PUSH3 0x2EB DUP2 PUSH3 0x73B JUMP JUMPDEST SWAP3 SWAP2 POP POP JUMP JUMPDEST PUSH1 0x0 PUSH1 0x20 DUP3 DUP5 SUB SLT ISZERO PUSH3 0x30A JUMPI PUSH3 0x309 PUSH3 0x70B JUMP JUMPDEST JUMPDEST PUSH1 0x0 PUSH3 0x31A DUP5 DUP3 DUP6 ADD PUSH3 0x2DA JUMP JUMPDEST SWAP2 POP POP SWAP3 SWAP2 POP POP JUMP JUMPDEST PUSH1 0x0 DUP1 PUSH1 0x0 PUSH1 0x60 DUP5 DUP7 SUB SLT ISZERO PUSH3 0x33F JUMPI PUSH3 0x33E PUSH3 0x70B JUMP JUMPDEST JUMPDEST PUSH1 0x0 PUSH3 0x34F DUP7 DUP3 DUP8 ADD PUSH3 0x2DA JUMP JUMPDEST SWAP4 POP POP PUSH1 0x20 DUP5 ADD CALLDATALOAD PUSH8 0xFFFFFFFFFFFFFFFF DUP2 GT ISZERO PUSH3 0x373 JUMPI PUSH3 0x372 PUSH3 0x706 JUMP JUMPDEST JUMPDEST PUSH3 0x381 DUP7 DUP3 DUP8 ADD PUSH3 0x2A7 JUMP JUMPDEST SWAP3 POP POP PUSH1 0x40 PUSH3 0x394 DUP7 DUP3 DUP8 ADD PUSH3 0x290 JUMP JUMPDEST SWAP2 POP POP SWAP3 POP SWAP3 POP SWAP3 JUMP JUMPDEST PUSH1 0x0 PUSH3 0x3AC DUP4 DUP4 PUSH3 0x433 JUMP JUMPDEST PUSH1 0x20 DUP4 ADD SWAP1 POP SWAP3 SWAP2 POP POP JUMP JUMPDEST PUSH1 0x0 PUSH3 0x3C5 DUP3 PUSH3 0x59B JUMP JUMPDEST PUSH3 0x3D1 DUP2 DUP6 PUSH3 0x5BE JUMP JUMPDEST SWAP4 POP PUSH3 0x3DE DUP4 PUSH3 0x58B JUMP JUMPDEST DUP1 PUSH1 0x0 JUMPDEST DUP4 DUP2 LT ISZERO PUSH3 0x415 JUMPI DUP2 MLOAD PUSH3 0x3F9 DUP9 DUP3 PUSH3 0x39E JUMP JUMPDEST SWAP8 POP PUSH3 0x406 DUP4 PUSH3 0x5B1 JUMP JUMPDEST SWAP3 POP POP PUSH1 0x1 DUP2 ADD SWAP1 POP PUSH3 0x3E2 JUMP JUMPDEST POP DUP6 SWAP4 POP POP POP POP SWAP3 SWAP2 POP POP JUMP JUMPDEST PUSH3 0x42D DUP2 PUSH3 0x5E0 JUMP JUMPDEST DUP3 MSTORE POP POP JUMP JUMPDEST PUSH3 0x43E DUP2 PUSH3 0x616 JUMP JUMPDEST DUP3 MSTORE POP POP JUMP JUMPDEST PUSH3 0x44F DUP2 PUSH3 0x616 JUMP JUMPDEST DUP3 MSTORE POP POP JUMP JUMPDEST PUSH1 0x0 PUSH3 0x462 DUP3 PUSH3 0x5A6 JUMP JUMPDEST PUSH3 0x46E DUP2 DUP6 PUSH3 0x5CF JUMP JUMPDEST SWAP4 POP PUSH3 0x480 DUP2 DUP6 PUSH1 0x20 DUP7 ADD PUSH3 0x661 JUMP JUMPDEST PUSH3 0x48B DUP2 PUSH3 0x710 JUMP JUMPDEST DUP5 ADD SWAP2 POP POP SWAP3 SWAP2 POP POP JUMP JUMPDEST PUSH3 0x4A1 DUP2 PUSH3 0x60C JUMP JUMPDEST DUP3 MSTORE POP POP JUMP JUMPDEST PUSH1 0x0 PUSH1 0x20 DUP3 ADD SWAP1 POP DUP2 DUP2 SUB PUSH1 0x0 DUP4 ADD MSTORE PUSH3 0x4C3 DUP2 DUP5 PUSH3 0x3B8 JUMP JUMPDEST SWAP1 POP SWAP3 SWAP2 POP POP JUMP JUMPDEST PUSH1 0x0 PUSH1 0x20 DUP3 ADD SWAP1 POP PUSH3 0x4E2 PUSH1 0x0 DUP4 ADD DUP5 PUSH3 0x444 JUMP JUMPDEST SWAP3 SWAP2 POP POP JUMP JUMPDEST PUSH1 0x0 PUSH1 0x60 DUP3 ADD SWAP1 POP PUSH3 0x4FF PUSH1 0x0 DUP4 ADD DUP7 PUSH3 0x496 JUMP JUMPDEST DUP2 DUP2 SUB PUSH1 0x20 DUP4 ADD MSTORE PUSH3 0x513 DUP2 DUP6 PUSH3 0x455 JUMP JUMPDEST SWAP1 POP PUSH3 0x524 PUSH1 0x40 DUP4 ADD DUP5 PUSH3 0x422 JUMP JUMPDEST SWAP5 SWAP4 POP POP POP POP JUMP JUMPDEST PUSH1 0x0 PUSH3 0x538 PUSH3 0x54B JUMP JUMPDEST SWAP1 POP PUSH3 0x546 DUP3 DUP3 PUSH3 0x697 JUMP JUMPDEST SWAP2 SWAP1 POP JUMP JUMPDEST PUSH1 0x0 PUSH1 0x40 MLOAD SWAP1 POP SWAP1 JUMP JUMPDEST PUSH1 0x0 PUSH8 0xFFFFFFFFFFFFFFFF DUP3 GT ISZERO PUSH3 0x573 JUMPI PUSH3 0x572 PUSH3 0x6CD JUMP JUMPDEST JUMPDEST PUSH3 0x57E DUP3 PUSH3 0x710 JUMP JUMPDEST SWAP1 POP PUSH1 0x20 DUP2 ADD SWAP1 POP SWAP2 SWAP1 POP JUMP JUMPDEST PUSH1 0x0 DUP2 SWAP1 POP PUSH1 0x20 DUP3 ADD SWAP1 POP SWAP2 SWAP1 POP JUMP JUMPDEST PUSH1 0x0 DUP2 MLOAD SWAP1 POP SWAP2 SWAP1 POP JUMP JUMPDEST PUSH1 0x0 DUP2 MLOAD SWAP1 POP SWAP2 SWAP1 POP JUMP JUMPDEST PUSH1 0x0 PUSH1 0x20 DUP3 ADD SWAP1 POP SWAP2 SWAP1 POP JUMP JUMPDEST PUSH1 0x0 DUP3 DUP3 MSTORE PUSH1 0x20 DUP3 ADD SWAP1 POP SWAP3 SWAP2 POP POP JUMP JUMPDEST PUSH1 0x0 DUP3 DUP3 MSTORE PUSH1 0x20 DUP3 ADD SWAP1 POP SWAP3 SWAP2 POP POP JUMP JUMPDEST PUSH1 0x0 DUP2 ISZERO ISZERO SWAP1 POP SWAP2 SWAP1 POP JUMP JUMPDEST PUSH1 0x0 PUSH20 0xFFFFFFFFFFFFFFFFFFFFFFFFFFFFFFFFFFFFFFFF DUP3 AND SWAP1 POP SWAP2 SWAP1 POP JUMP JUMPDEST PUSH1 0x0 DUP2 SWAP1 POP SWAP2 SWAP1 POP JUMP JUMPDEST PUSH1 0x0 PUSH3 0x623 DUP3 PUSH3 0x62A JUMP JUMPDEST SWAP1 POP SWAP2 SWAP1 POP JUMP JUMPDEST PUSH1 0x0 PUSH3 0x637 DUP3 PUSH3 0x63E JUMP JUMPDEST SWAP1 POP SWAP2 SWAP1 POP JUMP JUMPDEST PUSH1 0x0 PUSH3 0x64B DUP3 PUSH3 0x5EC JUMP JUMPDEST SWAP1 POP SWAP2 SWAP1 POP JUMP JUMPDEST DUP3 DUP2 DUP4 CALLDATACOPY PUSH1 0x0 DUP4 DUP4 ADD MSTORE POP POP POP JUMP JUMPDEST PUSH1 0x0 JUMPDEST DUP4 DUP2 LT ISZERO PUSH3 0x681 JUMPI DUP1 DUP3 ADD MLOAD DUP2 DUP5 ADD MSTORE PUSH1 0x20 DUP2 ADD SWAP1 POP PUSH3 0x664 JUMP JUMPDEST DUP4 DUP2 GT ISZERO PUSH3 0x691 JUMPI PUSH1 0x0 DUP5 DUP5 ADD MSTORE JUMPDEST POP POP POP POP JUMP JUMPDEST PUSH3 0x6A2 DUP3 PUSH3 0x710 JUMP JUMPDEST DUP2 ADD DUP2 DUP2 LT PUSH8 0xFFFFFFFFFFFFFFFF DUP3 GT OR ISZERO PUSH3 0x6C4 JUMPI PUSH3 0x6C3 PUSH3 0x6CD JUMP JUMPDEST JUMPDEST DUP1 PUSH1 0x40 MSTORE POP POP POP JUMP JUMPDEST PUSH32 0x4E487B7100000000000000000000000000000000000000000000000000000000 PUSH1 0x0 MSTORE PUSH1 0x41 PUSH1 0x4 MSTORE PUSH1 0x24 PUSH1 0x0 REVERT JUMPDEST PUSH1 0x0 DUP1 REVERT JUMPDEST PUSH1 0x0 DUP1 REVERT JUMPDEST PUSH1 0x0 DUP1 REVERT JUMPDEST PUSH1 0x0 DUP1 REVERT JUMPDEST PUSH1 0x0 PUSH1 0x1F NOT PUSH1 0x1F DUP4 ADD AND SWAP1 POP SWAP2 SWAP1 POP JUMP JUMPDEST PUSH3 0x72C DUP2 PUSH3 0x5E0 JUMP JUMPDEST DUP2 EQ PUSH3 0x738 JUMPI PUSH1 0x0 DUP1 REVERT JUMPDEST POP JUMP JUMPDEST PUSH3 0x746 DUP2 PUSH3 0x60C JUMP JUMPDEST DUP2 EQ PUSH3 0x752 JUMPI PUSH1 0x0 DUP1 REVERT JUMPDEST POP JUMP INVALID PUSH1 0x80 PUSH1 0x40 MSTORE CALLVALUE DUP1 ISZERO PUSH3 0x11 JUMPI PUSH1 0x0 DUP1 REVERT JUMPDEST POP PUSH1 0x40 MLOAD PUSH3 0x806 CODESIZE SUB DUP1 PUSH3 0x806 DUP4 CODECOPY DUP2 DUP2 ADD PUSH1 0x40 MSTORE DUP2 ADD SWAP1 PUSH3 0x37 SWAP2 SWAP1 PUSH3 0x1D6 JUMP JUMPDEST DUP3 PUSH1 0x0 DUP2 SWAP1 SSTORE POP DUP2 PUSH1 0x1 SWAP1 DUP1 MLOAD SWAP1 PUSH1 0x20 ADD SWAP1 PUSH3 0x56 SWAP3 SWAP2 SWAP1 PUSH3 0x7A JUMP JUMPDEST POP DUP1 PUSH1 0x2 PUSH1 0x0 PUSH2 0x100 EXP DUP2 SLOAD DUP2 PUSH1 0xFF MUL NOT AND SWAP1 DUP4 ISZERO ISZERO MUL OR SWAP1 SSTORE POP POP POP POP PUSH3 0x41F JUMP JUMPDEST DUP3 DUP1 SLOAD PUSH3 0x88 SWAP1 PUSH3 0x2FC JUMP JUMPDEST SWAP1 PUSH1 0x0 MSTORE PUSH1 0x20 PUSH1 0x0 KECCAK256 SWAP1 PUSH1 0x1F ADD PUSH1 0x20 SWAP1 DIV DUP2 ADD SWAP3 DUP3 PUSH3 0xAC JUMPI PUSH1 0x0 DUP6 SSTORE PUSH3 0xF8 JUMP JUMPDEST DUP3 PUSH1 0x1F LT PUSH3 0xC7 JUMPI DUP1 MLOAD PUSH1 0xFF NOT AND DUP4 DUP1 ADD OR DUP6 SSTORE PUSH3 0xF8 JUMP JUMPDEST DUP3 DUP1 ADD PUSH1 0x1 ADD DUP6 SSTORE DUP3 ISZERO PUSH3 0xF8 JUMPI SWAP2 DUP3 ADD JUMPDEST DUP3 DUP2 GT ISZERO PUSH3 0xF7 JUMPI DUP3 MLOAD DUP3 SSTORE SWAP2 PUSH1 0x20 ADD SWAP2 SWAP1 PUSH1 0x1 ADD SWAP1 PUSH3 0xDA JUMP JUMPDEST JUMPDEST POP SWAP1 POP PUSH3 0x107 SWAP2 SWAP1 PUSH3 0x10B JUMP JUMPDEST POP SWAP1 JUMP JUMPDEST JUMPDEST DUP1 DUP3 GT ISZERO PUSH3 0x126 JUMPI PUSH1 0x0 DUP2 PUSH1 0x0 SWAP1 SSTORE POP PUSH1 0x1 ADD PUSH3 0x10C JUMP JUMPDEST POP SWAP1 JUMP JUMPDEST PUSH1 0x0 PUSH3 0x141 PUSH3 0x13B DUP5 PUSH3 0x27A JUMP JUMPDEST PUSH3 0x251 JUMP JUMPDEST SWAP1 POP DUP3 DUP2 MSTORE PUSH1 0x20 DUP2 ADD DUP5 DUP5 DUP5 ADD GT ISZERO PUSH3 0x160 JUMPI PUSH3 0x15F PUSH3 0x3CB JUMP JUMPDEST JUMPDEST PUSH3 0x16D DUP5 DUP3 DUP6 PUSH3 0x2C6 JUMP JUMPDEST POP SWAP4 SWAP3 POP POP POP JUMP JUMPDEST PUSH1 0x0 DUP2 MLOAD SWAP1 POP PUSH3 0x186 DUP2 PUSH3 0x3EB JUMP JUMPDEST SWAP3 SWAP2 POP POP JUMP JUMPDEST PUSH1 0x0 DUP3 PUSH1 0x1F DUP4 ADD SLT PUSH3 0x1A4 JUMPI PUSH3 0x1A3 PUSH3 0x3C6 JUMP JUMPDEST JUMPDEST DUP2 MLOAD PUSH3 0x1B6 DUP5 DUP3 PUSH1 0x20 DUP7 ADD PUSH3 0x12A JUMP JUMPDEST SWAP2 POP POP SWAP3 SWAP2 POP POP JUMP JUMPDEST PUSH1 0x0 DUP2 MLOAD SWAP1 POP PUSH3 0x1D0 DUP2 PUSH3 0x405 JUMP JUMPDEST SWAP3 SWAP2 POP POP JUMP JUMPDEST PUSH1 0x0 DUP1 PUSH1 0x0 PUSH1 0x60 DUP5 DUP7 SUB SLT ISZERO PUSH3 0x1F2 JUMPI PUSH3 0x1F1 PUSH3 0x3D5 JUMP JUMPDEST JUMPDEST PUSH1 0x0 PUSH3 0x202 DUP7 DUP3 DUP8 ADD PUSH3 0x1BF JUMP JUMPDEST SWAP4 POP POP PUSH1 0x20 DUP5 ADD MLOAD PUSH8 0xFFFFFFFFFFFFFFFF DUP2 GT ISZERO PUSH3 0x226 JUMPI PUSH3 0x225 PUSH3 0x3D0 JUMP JUMPDEST JUMPDEST PUSH3 0x234 DUP7 DUP3 DUP8 ADD PUSH3 0x18C JUMP JUMPDEST SWAP3 POP POP PUSH1 0x40 PUSH3 0x247 DUP7 DUP3 DUP8 ADD PUSH3 0x175 JUMP JUMPDEST SWAP2 POP POP SWAP3 POP SWAP3 POP SWAP3 JUMP JUMPDEST PUSH1 0x0 PUSH3 0x25D PUSH3 0x270 JUMP JUMPDEST SWAP1 POP PUSH3 0x26B DUP3 DUP3 PUSH3 0x332 JUMP JUMPDEST SWAP2 SWAP1 POP JUMP JUMPDEST PUSH1 0x0 PUSH1 0x40 MLOAD SWAP1 POP SWAP1 JUMP JUMPDEST PUSH1 0x0 PUSH8 0xFFFFFFFFFFFFFFFF DUP3 GT ISZERO PUSH3 0x298 JUMPI PUSH3 0x297 PUSH3 0x397 JUMP JUMPDEST JUMPDEST PUSH3 0x2A3 DUP3 PUSH3 0x3DA JUMP JUMPDEST SWAP1 POP PUSH1 0x20 DUP2 ADD SWAP1 POP SWAP2 SWAP1 POP JUMP JUMPDEST PUSH1 0x0 DUP2 ISZERO ISZERO SWAP1 POP SWAP2 SWAP1 POP JUMP JUMPDEST PUSH1 0x0 DUP2 SWAP1 POP SWAP2 SWAP1 POP JUMP JUMPDEST PUSH1 0x0 JUMPDEST DUP4 DUP2 LT ISZERO PUSH3 0x2E6 JUMPI DUP1 DUP3 ADD MLOAD DUP2 DUP5 ADD MSTORE PUSH1 0x20 DUP2 ADD SWAP1 POP PUSH3 0x2C9 JUMP JUMPDEST DUP4 DUP2 GT ISZERO PUSH3 0x2F6 JUMPI PUSH1 0x0 DUP5 DUP5 ADD MSTORE JUMPDEST POP POP POP POP JUMP JUMPDEST PUSH1 0x0 PUSH1 0x2 DUP3 DIV SWAP1 POP PUSH1 0x1 DUP3 AND DUP1 PUSH3 0x315 JUMPI PUSH1 0x7F DUP3 AND SWAP2 POP JUMPDEST PUSH1 0x20 DUP3 LT DUP2 EQ ISZERO PUSH3 0x32C JUMPI PUSH3 0x32B PUSH3 0x368 JUMP JUMPDEST JUMPDEST POP SWAP2 SWAP1 POP JUMP JUMPDEST PUSH3 0x33D DUP3 PUSH3 0x3DA JUMP JUMPDEST DUP2 ADD DUP2 DUP2 LT PUSH8 0xFFFFFFFFFFFFFFFF DUP3 GT OR ISZERO PUSH3 0x35F JUMPI PUSH3 0x35E PUSH3 0x397 JUMP JUMPDEST JUMPDEST DUP1 PUSH1 0x40 MSTORE POP POP POP JUMP JUMPDEST PUSH32 0x4E487B7100000000000000000000000000000000000000000000000000000000 PUSH1 0x0 MSTORE PUSH1 0x22 PUSH1 0x4 MSTORE PUSH1 0x24 PUSH1 0x0 REVERT JUMPDEST PUSH32 0x4E487B7100000000000000000000000000000000000000000000000000000000 PUSH1 0x0 MSTORE PUSH1 0x41 PUSH1 0x4 MSTORE PUSH1 0x24 PUSH1 0x0 REVERT JUMPDEST PUSH1 0x0 DUP1 REVERT JUMPDEST PUSH1 0x0 DUP1 REVERT JUMPDEST PUSH1 0x0 DUP1 REVERT JUMPDEST PUSH1 0x0 DUP1 REVERT JUMPDEST PUSH1 0x0 PUSH1 0x1F NOT PUSH1 0x1F DUP4 ADD AND SWAP1 POP SWAP2 SWAP1 POP JUMP JUMPDEST PUSH3 0x3F6 DUP2 PUSH3 0x2B0 JUMP JUMPDEST DUP2 EQ PUSH3 0x402 JUMPI PUSH1 0x0 DUP1 REVERT JUMPDEST POP JUMP JUMPDEST PUSH3 0x410 DUP2 PUSH3 0x2BC JUMP JUMPDEST DUP2 EQ PUSH3 0x41C JUMPI PUSH1 0x0 DUP1 REVERT JUMPDEST POP JUMP JUMPDEST PUSH2 0x3D7 DUP1 PUSH3 0x42F PUSH1 0x0 CODECOPY PUSH1 0x0 RETURN INVALID PUSH1 0x80 PUSH1 0x40 MSTORE CALLVALUE DUP1 ISZERO PUSH2 0x10 JUMPI PUSH1 0x0 DUP1 REVERT JUMPDEST POP PUSH1 0x4 CALLDATASIZE LT PUSH2 0x57 JUMPI PUSH1 0x0 CALLDATALOAD PUSH1 0xE0 SHR DUP1 PUSH4 0x1A28CC73 EQ PUSH2 0x5C JUMPI DUP1 PUSH4 0x26A18375 EQ PUSH2 0x7A JUMPI DUP1 PUSH4 0xAB9DBD07 EQ PUSH2 0x96 JUMPI DUP1 PUSH4 0xC9B53900 EQ PUSH2 0xB4 JUMPI DUP1 PUSH4 0xEA73DBD2 EQ PUSH2 0xD2 JUMPI JUMPDEST PUSH1 0x0 DUP1 REVERT JUMPDEST PUSH2 0x64 PUSH2 0xF0 JUMP JUMPDEST PUSH1 0x40 MLOAD PUSH2 0x71 SWAP2 SWAP1 PUSH2 0x271 JUMP JUMPDEST PUSH1 0x40 MLOAD DUP1 SWAP2 SUB SWAP1 RETURN JUMPDEST PUSH2 0x94 PUSH1 0x4 DUP1 CALLDATASIZE SUB DUP2 ADD SWAP1 PUSH2 0x8F SWAP2 SWAP1 PUSH2 0x1D2 JUMP JUMPDEST PUSH2 0x17E JUMP JUMPDEST STOP JUMPDEST PUSH2 0x9E PUSH2 0x19B JUMP JUMPDEST PUSH1 0x40 MLOAD PUSH2 0xAB SWAP2 SWAP1 PUSH2 0x293 JUMP JUMPDEST PUSH1 0x40 MLOAD DUP1 SWAP2 SUB SWAP1 RETURN JUMPDEST PUSH2 0xBC PUSH2 0x1A4 JUMP JUMPDEST PUSH1 0x40 MLOAD PUSH2 0xC9 SWAP2 SWAP1 PUSH2 0x256 JUMP JUMPDEST PUSH1 0x40 MLOAD DUP1 SWAP2 SUB SWAP1 RETURN JUMPDEST PUSH2 0xDA PUSH2 0x1B7 JUMP JUMPDEST PUSH1 0x40 MLOAD PUSH2 0xE7 SWAP2 SWAP1 PUSH2 0x293 JUMP JUMPDEST PUSH1 0x40 MLOAD DUP1 SWAP2 SUB SWAP1 RETURN JUMPDEST PUSH1 0x1 DUP1 SLOAD PUSH2 0xFD SWAP1 PUSH2 0x313 JUMP JUMPDEST DUP1 PUSH1 0x1F ADD PUSH1 0x20 DUP1 SWAP2 DIV MUL PUSH1 0x20 ADD PUSH1 0x40 MLOAD SWAP1 DUP2 ADD PUSH1 0x40 MSTORE DUP1 SWAP3 SWAP2 SWAP1 DUP2 DUP2 MSTORE PUSH1 0x20 ADD DUP3 DUP1 SLOAD PUSH2 0x129 SWAP1 PUSH2 0x313 JUMP JUMPDEST DUP1 ISZERO PUSH2 0x176 JUMPI DUP1 PUSH1 0x1F LT PUSH2 0x14B JUMPI PUSH2 0x100 DUP1 DUP4 SLOAD DIV MUL DUP4 MSTORE SWAP2 PUSH1 0x20 ADD SWAP2 PUSH2 0x176 JUMP JUMPDEST DUP3 ADD SWAP2 SWAP1 PUSH1 0x0 MSTORE PUSH1 0x20 PUSH1 0x0 KECCAK256 SWAP1 JUMPDEST DUP2 SLOAD DUP2 MSTORE SWAP1 PUSH1 0x1 ADD SWAP1 PUSH1 0x20 ADD DUP1 DUP4 GT PUSH2 0x159 JUMPI DUP3 SWAP1 SUB PUSH1 0x1F AND DUP3 ADD SWAP2 JUMPDEST POP POP POP POP POP DUP2 JUMP JUMPDEST DUP1 PUSH1 0x2 PUSH1 0x0 PUSH2 0x100 EXP DUP2 SLOAD DUP2 PUSH1 0xFF MUL NOT AND SWAP1 DUP4 ISZERO ISZERO MUL OR SWAP1 SSTORE POP POP JUMP JUMPDEST PUSH1 0x0 DUP1 SLOAD SWAP1 POP SWAP1 JUMP JUMPDEST PUSH1 0x2 PUSH1 0x0 SWAP1 SLOAD SWAP1 PUSH2 0x100 EXP SWAP1 DIV PUSH1 0xFF AND DUP2 JUMP JUMPDEST PUSH1 0x0 SLOAD DUP2 JUMP JUMPDEST PUSH1 0x0 DUP2 CALLDATALOAD SWAP1 POP PUSH2 0x1CC DUP2 PUSH2 0x38A JUMP JUMPDEST SWAP3 SWAP2 POP POP JUMP JUMPDEST PUSH1 0x0 PUSH1 0x20 DUP3 DUP5 SUB SLT ISZERO PUSH2 0x1E8 JUMPI PUSH2 0x1E7 PUSH2 0x374 JUMP JUMPDEST JUMPDEST PUSH1 0x0 PUSH2 0x1F6 DUP5 DUP3 DUP6 ADD PUSH2 0x1BD JUMP JUMPDEST SWAP2 POP POP SWAP3 SWAP2 POP POP JUMP JUMPDEST PUSH2 0x208 DUP2 PUSH2 0x2CA JUMP JUMPDEST DUP3 MSTORE POP POP JUMP JUMPDEST PUSH1 0x0 PUSH2 0x219 DUP3 PUSH2 0x2AE JUMP JUMPDEST PUSH2 0x223 DUP2 DUP6 PUSH2 0x2B9 JUMP JUMPDEST SWAP4 POP PUSH2 0x233 DUP2 DUP6 PUSH1 0x20 DUP7 ADD PUSH2 0x2E0 JUMP JUMPDEST PUSH2 0x23C DUP2 PUSH2 0x379 JUMP JUMPDEST DUP5 ADD SWAP2 POP POP SWAP3 SWAP2 POP POP JUMP JUMPDEST PUSH2 0x250 DUP2 PUSH2 0x2D6 JUMP JUMPDEST DUP3 MSTORE POP POP JUMP JUMPDEST PUSH1 0x0 PUSH1 0x20 DUP3 ADD SWAP1 POP PUSH2 0x26B PUSH1 0x0 DUP4 ADD DUP5 PUSH2 0x1FF JUMP JUMPDEST SWAP3 SWAP2 POP POP JUMP JUMPDEST PUSH1 0x0 PUSH1 0x20 DUP3 ADD SWAP1 POP DUP2 DUP2 SUB PUSH1 0x0 DUP4 ADD MSTORE PUSH2 0x28B DUP2 DUP5 PUSH2 0x20E JUMP JUMPDEST SWAP1 POP SWAP3 SWAP2 POP POP JUMP JUMPDEST PUSH1 0x0 PUSH1 0x20 DUP3 ADD SWAP1 POP PUSH2 0x2A8 PUSH1 0x0 DUP4 ADD DUP5 PUSH2 0x247 JUMP JUMPDEST SWAP3 SWAP2 POP POP JUMP JUMPDEST PUSH1 0x0 DUP2 MLOAD SWAP1 POP SWAP2 SWAP1 POP JUMP JUMPDEST PUSH1 0x0 DUP3 DUP3 MSTORE PUSH1 0x20 DUP3 ADD SWAP1 POP SWAP3 SWAP2 POP POP JUMP JUMPDEST PUSH1 0x0 DUP2 ISZERO ISZERO SWAP1 POP SWAP2 SWAP1 POP JUMP JUMPDEST PUSH1 0x0 DUP2 SWAP1 POP SWAP2 SWAP1 POP JUMP JUMPDEST PUSH1 0x0 JUMPDEST DUP4 DUP2 LT ISZERO PUSH2 0x2FE JUMPI DUP1 DUP3 ADD MLOAD DUP2 DUP5 ADD MSTORE PUSH1 0x20 DUP2 ADD SWAP1 POP PUSH2 0x2E3 JUMP JUMPDEST DUP4 DUP2 GT ISZERO PUSH2 0x30D JUMPI PUSH1 0x0 DUP5 DUP5 ADD MSTORE JUMPDEST POP POP POP POP JUMP JUMPDEST PUSH1 0x0 PUSH1 0x2 DUP3 DIV SWAP1 POP PUSH1 0x1 DUP3 AND DUP1 PUSH2 0x32B JUMPI PUSH1 0x7F DUP3 AND SWAP2 POP JUMPDEST PUSH1 0x20 DUP3 LT DUP2 EQ ISZERO PUSH2 0x33F JUMPI PUSH2 0x33E PUSH2 0x345 JUMP JUMPDEST JUMPDEST POP SWAP2 SWAP1 POP JUMP JUMPDEST PUSH32 0x4E487B7100000000000000000000000000000000000000000000000000000000 PUSH1 0x0 MSTORE PUSH1 0x22 PUSH1 0x4 MSTORE PUSH1 0x24 PUSH1 0x0 REVERT JUMPDEST PUSH1 0x0 DUP1 REVERT JUMPDEST PUSH1 0x0 PUSH1 0x1F NOT PUSH1 0x1F DUP4 ADD AND SWAP1 POP SWAP2 SWAP1 POP JUMP JUMPDEST PUSH2 0x393 DUP2 PUSH2 0x2CA JUMP JUMPDEST DUP2 EQ PUSH2 0x39E JUMPI PUSH1 0x0 DUP1 REVERT JUMPDEST POP JUMP INVALID LOG2 PUSH5 0x6970667358 0x22 SLT KECCAK256 DUP8 DELEGATECALL MSTORE 0xAE SDIV 0xDA 0xE7 SWAP8 0xDE EXTCODESIZE CALL 0x28 0xB5 SWAP4 0xC1 CALL 0xBF 0xCF SWAP9 PUSH26 0xFD9C613F44A34178457BD164736F6C63430008070033A26469 PUSH17 0x6673582212209438F92E3BBBCBF25B0490 0xD4 CALLCODE 0xCF REVERT DUP11 SHR DUP16 DELEGATECALL DIV 0x5C 0xF7 ADDRESS PUSH5 0x935CE9EBD6 PUSH14 0xDE3264736F6C6343000807003300 "
				},
				"gasEstimates": {
					"creation": {
						"codeDepositCost": "797000",
						"executionCost": "infinite",
						"totalCost": "infinite"
					},
					"external": {
						"addingCar(uint256,string,bool)": "infinite",
						"carList(uint256)": "5064",
						"getCars()": "infinite"
					}
				},
				"methodIdentifiers": {
					"addingCar(uint256,string,bool)": "34f719e1",
					"carList(uint256)": "8fe7cdf6",
					"getCars()": "17c39286"
				}
			},
			"storageLayout": {
				"storage": [
					{
						"astId": 61,
						"contract": "contracts/Garage.sol:Garage",
						"label": "carList",
						"offset": 0,
						"slot": "0",
						"type": "t_array(t_contract(Car)48)dyn_storage"
					}
				],
				"types": {
					"t_array(t_contract(Car)48)dyn_storage": {
						"base": "t_contract(Car)48",
						"encoding": "dynamic_array",
						"label": "contract Car[]",
						"numberOfBytes": "32"
					},
					"t_contract(Car)48": {
						"encoding": "inplace",
						"label": "contract Car",
						"numberOfBytes": "20"
					}
				}
			},
			"userdoc": {
				"kind": "user",
				"methods": {},
				"version": 1
			}
		}
	}
}