{
	"contracts/CarRental.sol": {
		"CarRental": {
			"abi": [
				{
					"inputs": [
						{
							"internalType": "uint256",
							"name": "correctPrice",
							"type": "uint256"
						}
					],
					"name": "InvalidPrice",
					"type": "error"
				},
				{
					"inputs": [
						{
							"internalType": "string",
							"name": "model",
							"type": "string"
						},
						{
							"internalType": "address",
							"name": "owner",
							"type": "address"
						},
						{
							"internalType": "uint256",
							"name": "year",
							"type": "uint256"
						},
						{
							"internalType": "string",
							"name": "carLicense",
							"type": "string"
						},
						{
							"internalType": "uint256",
							"name": "price",
							"type": "uint256"
						}
					],
					"name": "addCarForRenting",
					"outputs": [
						{
							"internalType": "uint256",
							"name": "",
							"type": "uint256"
						}
					],
					"stateMutability": "nonpayable",
					"type": "function"
				},
				{
					"inputs": [],
					"name": "balanceReceived",
					"outputs": [
						{
							"internalType": "uint256",
							"name": "",
							"type": "uint256"
						}
					],
					"stateMutability": "view",
					"type": "function"
				},
				{
					"inputs": [
						{
							"internalType": "uint256",
							"name": "",
							"type": "uint256"
						}
					],
					"name": "cars",
					"outputs": [
						{
							"internalType": "uint256",
							"name": "carID",
							"type": "uint256"
						},
						{
							"internalType": "string",
							"name": "model",
							"type": "string"
						},
						{
							"internalType": "address",
							"name": "customer",
							"type": "address"
						},
						{
							"internalType": "address",
							"name": "owner",
							"type": "address"
						},
						{
							"internalType": "uint256",
							"name": "year",
							"type": "uint256"
						},
						{
							"internalType": "string",
							"name": "carLicense",
							"type": "string"
						},
						{
							"internalType": "bool",
							"name": "isAvailable",
							"type": "bool"
						},
						{
							"internalType": "uint256",
							"name": "price",
							"type": "uint256"
						}
					],
					"stateMutability": "view",
					"type": "function"
				},
				{
					"inputs": [
						{
							"internalType": "uint256",
							"name": "carID",
							"type": "uint256"
						}
					],
					"name": "getCarInfo",
					"outputs": [
						{
							"internalType": "uint256",
							"name": "",
							"type": "uint256"
						},
						{
							"internalType": "string",
							"name": "",
							"type": "string"
						},
						{
							"internalType": "address",
							"name": "",
							"type": "address"
						},
						{
							"internalType": "address",
							"name": "",
							"type": "address"
						},
						{
							"internalType": "uint256",
							"name": "",
							"type": "uint256"
						},
						{
							"internalType": "string",
							"name": "",
							"type": "string"
						},
						{
							"internalType": "bool",
							"name": "",
							"type": "bool"
						}
					],
					"stateMutability": "view",
					"type": "function"
				},
				{
					"inputs": [],
					"name": "getNumberOfCars",
					"outputs": [
						{
							"internalType": "uint256",
							"name": "",
							"type": "uint256"
						}
					],
					"stateMutability": "view",
					"type": "function"
				},
				{
					"inputs": [
						{
							"internalType": "uint256",
							"name": "carID",
							"type": "uint256"
						}
					],
					"name": "rentingACar",
					"outputs": [
						{
							"internalType": "bool",
							"name": "",
							"type": "bool"
						}
					],
					"stateMutability": "payable",
					"type": "function"
				}
			],
			"devdoc": {
				"kind": "dev",
				"methods": {},
				"version": 1
			},
			"evm": {
				"assembly": "    /* \"contracts/CarRental.sol\":103:2792  contract CarRental {\r... */\n  mstore(0x40, 0x80)\n  callvalue\n  dup1\n  iszero\n  tag_1\n  jumpi\n  0x00\n  dup1\n  revert\ntag_1:\n  pop\n  dataSize(sub_0)\n  dup1\n  dataOffset(sub_0)\n  0x00\n  codecopy\n  0x00\n  return\nstop\n\nsub_0: assembly {\n        /* \"contracts/CarRental.sol\":103:2792  contract CarRental {\r... */\n      mstore(0x40, 0x80)\n      jumpi(tag_1, lt(calldatasize, 0x04))\n      shr(0xe0, calldataload(0x00))\n      dup1\n      0x52a90c42\n      eq\n      tag_2\n      jumpi\n      dup1\n      0xa9b8fbdc\n      eq\n      tag_3\n      jumpi\n      dup1\n      0xb85ce4e9\n      eq\n      tag_4\n      jumpi\n      dup1\n      0xd01af8bc\n      eq\n      tag_5\n      jumpi\n      dup1\n      0xf750ef78\n      eq\n      tag_6\n      jumpi\n      dup1\n      0xf7746e36\n      eq\n      tag_7\n      jumpi\n    tag_1:\n      0x00\n      dup1\n      revert\n        /* \"contracts/CarRental.sol\":131:158  uint public balanceReceived */\n    tag_2:\n      callvalue\n      dup1\n      iszero\n      tag_8\n      jumpi\n      0x00\n      dup1\n      revert\n    tag_8:\n      pop\n      tag_9\n      tag_10\n      jump\t// in\n    tag_9:\n      mload(0x40)\n      tag_11\n      swap2\n      swap1\n      tag_12\n      jump\t// in\n    tag_11:\n      mload(0x40)\n      dup1\n      swap2\n      sub\n      swap1\n      return\n        /* \"contracts/CarRental.sol\":1522:2188  function rentingACar(uint carID) public payable returns (bool){\r... */\n    tag_3:\n      tag_13\n      0x04\n      dup1\n      calldatasize\n      sub\n      dup2\n      add\n      swap1\n      tag_14\n      swap2\n      swap1\n      tag_15\n      jump\t// in\n    tag_14:\n      tag_16\n      jump\t// in\n    tag_13:\n      mload(0x40)\n      tag_17\n      swap2\n      swap1\n      tag_18\n      jump\t// in\n    tag_17:\n      mload(0x40)\n      dup1\n      swap2\n      sub\n      swap1\n      return\n        /* \"contracts/CarRental.sol\":278:368  function getNumberOfCars() public view returns(uint) {\r... */\n    tag_4:\n      callvalue\n      dup1\n      iszero\n      tag_19\n      jumpi\n      0x00\n      dup1\n      revert\n    tag_19:\n      pop\n      tag_20\n      tag_21\n      jump\t// in\n    tag_20:\n      mload(0x40)\n      tag_22\n      swap2\n      swap1\n      tag_12\n      jump\t// in\n    tag_22:\n      mload(0x40)\n      dup1\n      swap2\n      sub\n      swap1\n      return\n        /* \"contracts/CarRental.sol\":2300:2788  function getCarInfo(uint carID) public view returns (uint, string memory, address, address, uint, string memory, bool){\r... */\n    tag_5:\n      callvalue\n      dup1\n      iszero\n      tag_23\n      jumpi\n      0x00\n      dup1\n      revert\n    tag_23:\n      pop\n      tag_24\n      0x04\n      dup1\n      calldatasize\n      sub\n      dup2\n      add\n      swap1\n      tag_25\n      swap2\n      swap1\n      tag_15\n      jump\t// in\n    tag_25:\n      tag_26\n      jump\t// in\n    tag_24:\n      mload(0x40)\n      tag_27\n      swap8\n      swap7\n      swap6\n      swap5\n      swap4\n      swap3\n      swap2\n      swap1\n      tag_28\n      jump\t// in\n    tag_27:\n      mload(0x40)\n      dup1\n      swap2\n      sub\n      swap1\n      return\n        /* \"contracts/CarRental.sol\":449:1098  function addCarForRenting(string memory model, address owner, uint year, string memory carLicense, uint price) public returns(uint) {\r... */\n    tag_6:\n      callvalue\n      dup1\n      iszero\n      tag_29\n      jumpi\n      0x00\n      dup1\n      revert\n    tag_29:\n      pop\n      tag_30\n      0x04\n      dup1\n      calldatasize\n      sub\n      dup2\n      add\n      swap1\n      tag_31\n      swap2\n      swap1\n      tag_32\n      jump\t// in\n    tag_31:\n      tag_33\n      jump\t// in\n    tag_30:\n      mload(0x40)\n      tag_34\n      swap2\n      swap1\n      tag_12\n      jump\t// in\n    tag_34:\n      mload(0x40)\n      dup1\n      swap2\n      sub\n      swap1\n      return\n        /* \"contracts/CarRental.sol\":210:237  CarMaking.Car[] public cars */\n    tag_7:\n      callvalue\n      dup1\n      iszero\n      tag_35\n      jumpi\n      0x00\n      dup1\n      revert\n    tag_35:\n      pop\n      tag_36\n      0x04\n      dup1\n      calldatasize\n      sub\n      dup2\n      add\n      swap1\n      tag_37\n      swap2\n      swap1\n      tag_15\n      jump\t// in\n    tag_37:\n      tag_38\n      jump\t// in\n    tag_36:\n      mload(0x40)\n      tag_39\n      swap9\n      swap8\n      swap7\n      swap6\n      swap5\n      swap4\n      swap3\n      swap2\n      swap1\n      tag_40\n      jump\t// in\n    tag_39:\n      mload(0x40)\n      dup1\n      swap2\n      sub\n      swap1\n      return\n        /* \"contracts/CarRental.sol\":131:158  uint public balanceReceived */\n    tag_10:\n      sload(0x00)\n      dup2\n      jump\t// out\n        /* \"contracts/CarRental.sol\":1522:2188  function rentingACar(uint carID) public payable returns (bool){\r... */\n    tag_16:\n        /* \"contracts/CarRental.sol\":1579:1583  bool */\n      0x00\n        /* \"contracts/CarRental.sol\":1686:1687  0 */\n      dup1\n        /* \"contracts/CarRental.sol\":1677:1682  carID */\n      dup3\n        /* \"contracts/CarRental.sol\":1677:1687  carID >= 0 */\n      lt\n      iszero\n        /* \"contracts/CarRental.sol\":1677:1716  carID >= 0 && carID < getNumberOfCars() */\n      dup1\n      iszero\n      tag_42\n      jumpi\n      pop\n        /* \"contracts/CarRental.sol\":1699:1716  getNumberOfCars() */\n      tag_43\n        /* \"contracts/CarRental.sol\":1699:1714  getNumberOfCars */\n      tag_21\n        /* \"contracts/CarRental.sol\":1699:1716  getNumberOfCars() */\n      jump\t// in\n    tag_43:\n        /* \"contracts/CarRental.sol\":1691:1696  carID */\n      dup3\n        /* \"contracts/CarRental.sol\":1691:1716  carID < getNumberOfCars() */\n      lt\n        /* \"contracts/CarRental.sol\":1677:1716  carID >= 0 && carID < getNumberOfCars() */\n    tag_42:\n        /* \"contracts/CarRental.sol\":1669:1717  require(carID >= 0 && carID < getNumberOfCars()) */\n      tag_44\n      jumpi\n      0x00\n      dup1\n      revert\n    tag_44:\n        /* \"contracts/CarRental.sol\":1812:1816  cars */\n      0x01\n        /* \"contracts/CarRental.sol\":1817:1822  carID */\n      dup3\n        /* \"contracts/CarRental.sol\":1812:1823  cars[carID] */\n      dup2\n      sload\n      dup2\n      lt\n      tag_45\n      jumpi\n      tag_46\n      tag_47\n      jump\t// in\n    tag_46:\n    tag_45:\n      swap1\n      0x00\n      mstore\n      keccak256(0x00, 0x20)\n      swap1\n      0x08\n      mul\n      add\n        /* \"contracts/CarRental.sol\":1812:1829  cars[carID].price */\n      0x07\n      add\n      sload\n        /* \"contracts/CarRental.sol\":1799:1808  msg.value */\n      callvalue\n        /* \"contracts/CarRental.sol\":1799:1829  msg.value != cars[carID].price */\n      eq\n        /* \"contracts/CarRental.sol\":1796:1882  if(msg.value != cars[carID].price)\r... */\n      tag_49\n      jumpi\n        /* \"contracts/CarRental.sol\":1864:1868  cars */\n      0x01\n        /* \"contracts/CarRental.sol\":1869:1874  carID */\n      dup3\n        /* \"contracts/CarRental.sol\":1864:1875  cars[carID] */\n      dup2\n      sload\n      dup2\n      lt\n      tag_50\n      jumpi\n      tag_51\n      tag_47\n      jump\t// in\n    tag_51:\n    tag_50:\n      swap1\n      0x00\n      mstore\n      keccak256(0x00, 0x20)\n      swap1\n      0x08\n      mul\n      add\n        /* \"contracts/CarRental.sol\":1864:1881  cars[carID].price */\n      0x07\n      add\n      sload\n        /* \"contracts/CarRental.sol\":1851:1882  InvalidPrice(cars[carID].price) */\n      mload(0x40)\n      0xf9632e8600000000000000000000000000000000000000000000000000000000\n      dup2\n      mstore\n      0x04\n      add\n      tag_53\n      swap2\n      swap1\n      tag_12\n      jump\t// in\n    tag_53:\n      mload(0x40)\n      dup1\n      swap2\n      sub\n      swap1\n      revert\n        /* \"contracts/CarRental.sol\":1796:1882  if(msg.value != cars[carID].price)\r... */\n    tag_49:\n        /* \"contracts/CarRental.sol\":2021:2025  true */\n      0x01\n        /* \"contracts/CarRental.sol\":1994:2025  cars[carID].isAvailable == true */\n      iszero\n      iszero\n        /* \"contracts/CarRental.sol\":1994:1998  cars */\n      0x01\n        /* \"contracts/CarRental.sol\":1999:2004  carID */\n      dup4\n        /* \"contracts/CarRental.sol\":1994:2005  cars[carID] */\n      dup2\n      sload\n      dup2\n      lt\n      tag_54\n      jumpi\n      tag_55\n      tag_47\n      jump\t// in\n    tag_55:\n    tag_54:\n      swap1\n      0x00\n      mstore\n      keccak256(0x00, 0x20)\n      swap1\n      0x08\n      mul\n      add\n        /* \"contracts/CarRental.sol\":1994:2017  cars[carID].isAvailable */\n      0x06\n      add\n      0x00\n      swap1\n      sload\n      swap1\n      0x0100\n      exp\n      swap1\n      div\n      0xff\n      and\n        /* \"contracts/CarRental.sol\":1994:2025  cars[carID].isAvailable == true */\n      iszero\n      iszero\n      eq\n        /* \"contracts/CarRental.sol\":1986:2026  require(cars[carID].isAvailable == true) */\n      tag_57\n      jumpi\n      0x00\n      dup1\n      revert\n    tag_57:\n        /* \"contracts/CarRental.sol\":2104:2114  msg.sender */\n      caller\n        /* \"contracts/CarRental.sol\":2081:2085  cars */\n      0x01\n        /* \"contracts/CarRental.sol\":2086:2091  carID */\n      dup4\n        /* \"contracts/CarRental.sol\":2081:2092  cars[carID] */\n      dup2\n      sload\n      dup2\n      lt\n      tag_58\n      jumpi\n      tag_59\n      tag_47\n      jump\t// in\n    tag_59:\n    tag_58:\n      swap1\n      0x00\n      mstore\n      keccak256(0x00, 0x20)\n      swap1\n      0x08\n      mul\n      add\n        /* \"contracts/CarRental.sol\":2081:2101  cars[carID].customer */\n      0x02\n      add\n      0x00\n        /* \"contracts/CarRental.sol\":2081:2114  cars[carID].customer = msg.sender */\n      0x0100\n      exp\n      dup2\n      sload\n      dup2\n      0xffffffffffffffffffffffffffffffffffffffff\n      mul\n      not\n      and\n      swap1\n      dup4\n      0xffffffffffffffffffffffffffffffffffffffff\n      and\n      mul\n      or\n      swap1\n      sstore\n      pop\n        /* \"contracts/CarRental.sol\":2151:2156  false */\n      0x00\n        /* \"contracts/CarRental.sol\":2125:2129  cars */\n      0x01\n        /* \"contracts/CarRental.sol\":2130:2135  carID */\n      dup4\n        /* \"contracts/CarRental.sol\":2125:2136  cars[carID] */\n      dup2\n      sload\n      dup2\n      lt\n      tag_61\n      jumpi\n      tag_62\n      tag_47\n      jump\t// in\n    tag_62:\n    tag_61:\n      swap1\n      0x00\n      mstore\n      keccak256(0x00, 0x20)\n      swap1\n      0x08\n      mul\n      add\n        /* \"contracts/CarRental.sol\":2125:2148  cars[carID].isAvailable */\n      0x06\n      add\n      0x00\n        /* \"contracts/CarRental.sol\":2125:2156  cars[carID].isAvailable = false */\n      0x0100\n      exp\n      dup2\n      sload\n      dup2\n      0xff\n      mul\n      not\n      and\n      swap1\n      dup4\n      iszero\n      iszero\n      mul\n      or\n      swap1\n      sstore\n      pop\n        /* \"contracts/CarRental.sol\":2176:2180  true */\n      0x01\n        /* \"contracts/CarRental.sol\":2169:2180  return true */\n      swap1\n      pop\n        /* \"contracts/CarRental.sol\":1522:2188  function rentingACar(uint carID) public payable returns (bool){\r... */\n      swap2\n      swap1\n      pop\n      jump\t// out\n        /* \"contracts/CarRental.sol\":278:368  function getNumberOfCars() public view returns(uint) {\r... */\n    tag_21:\n        /* \"contracts/CarRental.sol\":325:329  uint */\n      0x00\n        /* \"contracts/CarRental.sol\":349:353  cars */\n      0x01\n        /* \"contracts/CarRental.sol\":349:360  cars.length */\n      dup1\n      sload\n      swap1\n      pop\n        /* \"contracts/CarRental.sol\":342:360  return cars.length */\n      swap1\n      pop\n        /* \"contracts/CarRental.sol\":278:368  function getNumberOfCars() public view returns(uint) {\r... */\n      swap1\n      jump\t// out\n        /* \"contracts/CarRental.sol\":2300:2788  function getCarInfo(uint carID) public view returns (uint, string memory, address, address, uint, string memory, bool){\r... */\n    tag_26:\n        /* \"contracts/CarRental.sol\":2353:2357  uint */\n      0x00\n        /* \"contracts/CarRental.sol\":2359:2372  string memory */\n      0x60\n        /* \"contracts/CarRental.sol\":2374:2381  address */\n      0x00\n        /* \"contracts/CarRental.sol\":2383:2390  address */\n      dup1\n        /* \"contracts/CarRental.sol\":2392:2396  uint */\n      0x00\n        /* \"contracts/CarRental.sol\":2398:2411  string memory */\n      0x60\n        /* \"contracts/CarRental.sol\":2413:2417  bool */\n      0x00\n        /* \"contracts/CarRental.sol\":2510:2511  0 */\n      dup1\n        /* \"contracts/CarRental.sol\":2501:2506  carID */\n      dup9\n        /* \"contracts/CarRental.sol\":2501:2511  carID >= 0 */\n      lt\n      iszero\n        /* \"contracts/CarRental.sol\":2501:2540  carID >= 0 && carID < getNumberOfCars() */\n      dup1\n      iszero\n      tag_66\n      jumpi\n      pop\n        /* \"contracts/CarRental.sol\":2523:2540  getNumberOfCars() */\n      tag_67\n        /* \"contracts/CarRental.sol\":2523:2538  getNumberOfCars */\n      tag_21\n        /* \"contracts/CarRental.sol\":2523:2540  getNumberOfCars() */\n      jump\t// in\n    tag_67:\n        /* \"contracts/CarRental.sol\":2515:2520  carID */\n      dup9\n        /* \"contracts/CarRental.sol\":2515:2540  carID < getNumberOfCars() */\n      lt\n        /* \"contracts/CarRental.sol\":2501:2540  carID >= 0 && carID < getNumberOfCars() */\n    tag_66:\n        /* \"contracts/CarRental.sol\":2493:2541  require(carID >= 0 && carID < getNumberOfCars()) */\n      tag_68\n      jumpi\n      0x00\n      dup1\n      revert\n    tag_68:\n        /* \"contracts/CarRental.sol\":2586:2616  CarMaking.Car memory chosenCar */\n      0x00\n        /* \"contracts/CarRental.sol\":2619:2623  cars */\n      0x01\n        /* \"contracts/CarRental.sol\":2624:2629  carID */\n      dup10\n        /* \"contracts/CarRental.sol\":2619:2630  cars[carID] */\n      dup2\n      sload\n      dup2\n      lt\n      tag_69\n      jumpi\n      tag_70\n      tag_47\n      jump\t// in\n    tag_70:\n    tag_69:\n      swap1\n      0x00\n      mstore\n      keccak256(0x00, 0x20)\n      swap1\n      0x08\n      mul\n      add\n        /* \"contracts/CarRental.sol\":2586:2630  CarMaking.Car memory chosenCar = cars[carID] */\n      mload(0x40)\n      dup1\n      0x0100\n      add\n      0x40\n      mstore\n      swap1\n      dup2\n      0x00\n      dup3\n      add\n      sload\n      dup2\n      mstore\n      0x20\n      add\n      0x01\n      dup3\n      add\n      dup1\n      sload\n      tag_72\n      swap1\n      tag_73\n      jump\t// in\n    tag_72:\n      dup1\n      0x1f\n      add\n      0x20\n      dup1\n      swap2\n      div\n      mul\n      0x20\n      add\n      mload(0x40)\n      swap1\n      dup2\n      add\n      0x40\n      mstore\n      dup1\n      swap3\n      swap2\n      swap1\n      dup2\n      dup2\n      mstore\n      0x20\n      add\n      dup3\n      dup1\n      sload\n      tag_74\n      swap1\n      tag_73\n      jump\t// in\n    tag_74:\n      dup1\n      iszero\n      tag_75\n      jumpi\n      dup1\n      0x1f\n      lt\n      tag_76\n      jumpi\n      0x0100\n      dup1\n      dup4\n      sload\n      div\n      mul\n      dup4\n      mstore\n      swap2\n      0x20\n      add\n      swap2\n      jump(tag_75)\n    tag_76:\n      dup3\n      add\n      swap2\n      swap1\n      0x00\n      mstore\n      keccak256(0x00, 0x20)\n      swap1\n    tag_77:\n      dup2\n      sload\n      dup2\n      mstore\n      swap1\n      0x01\n      add\n      swap1\n      0x20\n      add\n      dup1\n      dup4\n      gt\n      tag_77\n      jumpi\n      dup3\n      swap1\n      sub\n      0x1f\n      and\n      dup3\n      add\n      swap2\n    tag_75:\n      pop\n      pop\n      pop\n      pop\n      pop\n      dup2\n      mstore\n      0x20\n      add\n      0x02\n      dup3\n      add\n      0x00\n      swap1\n      sload\n      swap1\n      0x0100\n      exp\n      swap1\n      div\n      0xffffffffffffffffffffffffffffffffffffffff\n      and\n      0xffffffffffffffffffffffffffffffffffffffff\n      and\n      0xffffffffffffffffffffffffffffffffffffffff\n      and\n      dup2\n      mstore\n      0x20\n      add\n      0x03\n      dup3\n      add\n      0x00\n      swap1\n      sload\n      swap1\n      0x0100\n      exp\n      swap1\n      div\n      0xffffffffffffffffffffffffffffffffffffffff\n      and\n      0xffffffffffffffffffffffffffffffffffffffff\n      and\n      0xffffffffffffffffffffffffffffffffffffffff\n      and\n      dup2\n      mstore\n      0x20\n      add\n      0x04\n      dup3\n      add\n      sload\n      dup2\n      mstore\n      0x20\n      add\n      0x05\n      dup3\n      add\n      dup1\n      sload\n      tag_78\n      swap1\n      tag_73\n      jump\t// in\n    tag_78:\n      dup1\n      0x1f\n      add\n      0x20\n      dup1\n      swap2\n      div\n      mul\n      0x20\n      add\n      mload(0x40)\n      swap1\n      dup2\n      add\n      0x40\n      mstore\n      dup1\n      swap3\n      swap2\n      swap1\n      dup2\n      dup2\n      mstore\n      0x20\n      add\n      dup3\n      dup1\n      sload\n      tag_79\n      swap1\n      tag_73\n      jump\t// in\n    tag_79:\n      dup1\n      iszero\n      tag_80\n      jumpi\n      dup1\n      0x1f\n      lt\n      tag_81\n      jumpi\n      0x0100\n      dup1\n      dup4\n      sload\n      div\n      mul\n      dup4\n      mstore\n      swap2\n      0x20\n      add\n      swap2\n      jump(tag_80)\n    tag_81:\n      dup3\n      add\n      swap2\n      swap1\n      0x00\n      mstore\n      keccak256(0x00, 0x20)\n      swap1\n    tag_82:\n      dup2\n      sload\n      dup2\n      mstore\n      swap1\n      0x01\n      add\n      swap1\n      0x20\n      add\n      dup1\n      dup4\n      gt\n      tag_82\n      jumpi\n      dup3\n      swap1\n      sub\n      0x1f\n      and\n      dup3\n      add\n      swap2\n    tag_80:\n      pop\n      pop\n      pop\n      pop\n      pop\n      dup2\n      mstore\n      0x20\n      add\n      0x06\n      dup3\n      add\n      0x00\n      swap1\n      sload\n      swap1\n      0x0100\n      exp\n      swap1\n      div\n      0xff\n      and\n      iszero\n      iszero\n      iszero\n      iszero\n      dup2\n      mstore\n      0x20\n      add\n      0x07\n      dup3\n      add\n      sload\n      dup2\n      mstore\n      pop\n      pop\n      swap1\n      pop\n        /* \"contracts/CarRental.sol\":2649:2658  chosenCar */\n      dup1\n        /* \"contracts/CarRental.sol\":2649:2664  chosenCar.carID */\n      0x00\n      add\n      mload\n        /* \"contracts/CarRental.sol\":2666:2675  chosenCar */\n      dup2\n        /* \"contracts/CarRental.sol\":2666:2681  chosenCar.model */\n      0x20\n      add\n      mload\n        /* \"contracts/CarRental.sol\":2683:2692  chosenCar */\n      dup3\n        /* \"contracts/CarRental.sol\":2683:2698  chosenCar.owner */\n      0x60\n      add\n      mload\n        /* \"contracts/CarRental.sol\":2700:2709  chosenCar */\n      dup4\n        /* \"contracts/CarRental.sol\":2700:2718  chosenCar.customer */\n      0x40\n      add\n      mload\n        /* \"contracts/CarRental.sol\":2720:2729  chosenCar */\n      dup5\n        /* \"contracts/CarRental.sol\":2720:2734  chosenCar.year */\n      0x80\n      add\n      mload\n        /* \"contracts/CarRental.sol\":2736:2745  chosenCar */\n      dup6\n        /* \"contracts/CarRental.sol\":2736:2756  chosenCar.carLicense */\n      0xa0\n      add\n      mload\n        /* \"contracts/CarRental.sol\":2758:2767  chosenCar */\n      dup7\n        /* \"contracts/CarRental.sol\":2758:2779  chosenCar.isAvailable */\n      0xc0\n      add\n      mload\n        /* \"contracts/CarRental.sol\":2641:2780  return (chosenCar.carID, chosenCar.model, chosenCar.owner, chosenCar.customer, chosenCar.year, chosenCar.carLicense, chosenCar.isAvailable) */\n      swap8\n      pop\n      swap8\n      pop\n      swap8\n      pop\n      swap8\n      pop\n      swap8\n      pop\n      swap8\n      pop\n      swap8\n      pop\n      pop\n        /* \"contracts/CarRental.sol\":2300:2788  function getCarInfo(uint carID) public view returns (uint, string memory, address, address, uint, string memory, bool){\r... */\n      swap2\n      swap4\n      swap6\n      swap8\n      swap1\n      swap3\n      swap5\n      swap7\n      pop\n      jump\t// out\n        /* \"contracts/CarRental.sol\":449:1098  function addCarForRenting(string memory model, address owner, uint year, string memory carLicense, uint price) public returns(uint) {\r... */\n    tag_33:\n        /* \"contracts/CarRental.sol\":575:579  uint */\n      0x00\n        /* \"contracts/CarRental.sol\":684:694  uint count */\n      dup1\n        /* \"contracts/CarRental.sol\":718:719  1 */\n      0x01\n        /* \"contracts/CarRental.sol\":698:715  getNumberOfCars() */\n      tag_84\n        /* \"contracts/CarRental.sol\":698:713  getNumberOfCars */\n      tag_21\n        /* \"contracts/CarRental.sol\":698:715  getNumberOfCars() */\n      jump\t// in\n    tag_84:\n        /* \"contracts/CarRental.sol\":698:719  getNumberOfCars() + 1 */\n      tag_85\n      swap2\n      swap1\n      tag_86\n      jump\t// in\n    tag_85:\n        /* \"contracts/CarRental.sol\":684:719  uint count =  getNumberOfCars() + 1 */\n      swap1\n      pop\n        /* \"contracts/CarRental.sol\":976:980  cars */\n      0x01\n        /* \"contracts/CarRental.sol\":986:1064  CarMaking.Car(count, model, address(0) , owner, year, carLicense, true, price) */\n      mload(0x40)\n      dup1\n      0x0100\n      add\n      0x40\n      mstore\n      dup1\n        /* \"contracts/CarRental.sol\":1000:1005  count */\n      dup4\n        /* \"contracts/CarRental.sol\":986:1064  CarMaking.Car(count, model, address(0) , owner, year, carLicense, true, price) */\n      dup2\n      mstore\n      0x20\n      add\n        /* \"contracts/CarRental.sol\":1007:1012  model */\n      dup10\n        /* \"contracts/CarRental.sol\":986:1064  CarMaking.Car(count, model, address(0) , owner, year, carLicense, true, price) */\n      dup2\n      mstore\n      0x20\n      add\n        /* \"contracts/CarRental.sol\":1022:1023  0 */\n      0x00\n        /* \"contracts/CarRental.sol\":986:1064  CarMaking.Car(count, model, address(0) , owner, year, carLicense, true, price) */\n      0xffffffffffffffffffffffffffffffffffffffff\n      and\n      dup2\n      mstore\n      0x20\n      add\n        /* \"contracts/CarRental.sol\":1027:1032  owner */\n      dup9\n        /* \"contracts/CarRental.sol\":986:1064  CarMaking.Car(count, model, address(0) , owner, year, carLicense, true, price) */\n      0xffffffffffffffffffffffffffffffffffffffff\n      and\n      dup2\n      mstore\n      0x20\n      add\n        /* \"contracts/CarRental.sol\":1034:1038  year */\n      dup8\n        /* \"contracts/CarRental.sol\":986:1064  CarMaking.Car(count, model, address(0) , owner, year, carLicense, true, price) */\n      dup2\n      mstore\n      0x20\n      add\n        /* \"contracts/CarRental.sol\":1040:1050  carLicense */\n      dup7\n        /* \"contracts/CarRental.sol\":986:1064  CarMaking.Car(count, model, address(0) , owner, year, carLicense, true, price) */\n      dup2\n      mstore\n      0x20\n      add\n        /* \"contracts/CarRental.sol\":1052:1056  true */\n      0x01\n        /* \"contracts/CarRental.sol\":986:1064  CarMaking.Car(count, model, address(0) , owner, year, carLicense, true, price) */\n      iszero\n      iszero\n      dup2\n      mstore\n      0x20\n      add\n        /* \"contracts/CarRental.sol\":1058:1063  price */\n      dup6\n        /* \"contracts/CarRental.sol\":986:1064  CarMaking.Car(count, model, address(0) , owner, year, carLicense, true, price) */\n      dup2\n      mstore\n      pop\n        /* \"contracts/CarRental.sol\":976:1065  cars.push(CarMaking.Car(count, model, address(0) , owner, year, carLicense, true, price)) */\n      swap1\n      dup1\n      0x01\n      dup2\n      sload\n      add\n      dup1\n      dup3\n      sstore\n      dup1\n      swap2\n      pop\n      pop\n      0x01\n      swap1\n      sub\n      swap1\n      0x00\n      mstore\n      keccak256(0x00, 0x20)\n      swap1\n      0x08\n      mul\n      add\n      0x00\n      swap1\n      swap2\n      swap1\n      swap2\n      swap1\n      swap2\n      pop\n      0x00\n      dup3\n      add\n      mload\n      dup2\n      0x00\n      add\n      sstore\n      0x20\n      dup3\n      add\n      mload\n      dup2\n      0x01\n      add\n      swap1\n      dup1\n      mload\n      swap1\n      0x20\n      add\n      swap1\n      tag_88\n      swap3\n      swap2\n      swap1\n      tag_89\n      jump\t// in\n    tag_88:\n      pop\n      0x40\n      dup3\n      add\n      mload\n      dup2\n      0x02\n      add\n      exp(0x0100, 0x00)\n      dup2\n      sload\n      dup2\n      0xffffffffffffffffffffffffffffffffffffffff\n      mul\n      not\n      and\n      swap1\n      dup4\n      0xffffffffffffffffffffffffffffffffffffffff\n      and\n      mul\n      or\n      swap1\n      sstore\n      pop\n      0x60\n      dup3\n      add\n      mload\n      dup2\n      0x03\n      add\n      exp(0x0100, 0x00)\n      dup2\n      sload\n      dup2\n      0xffffffffffffffffffffffffffffffffffffffff\n      mul\n      not\n      and\n      swap1\n      dup4\n      0xffffffffffffffffffffffffffffffffffffffff\n      and\n      mul\n      or\n      swap1\n      sstore\n      pop\n      0x80\n      dup3\n      add\n      mload\n      dup2\n      0x04\n      add\n      sstore\n      0xa0\n      dup3\n      add\n      mload\n      dup2\n      0x05\n      add\n      swap1\n      dup1\n      mload\n      swap1\n      0x20\n      add\n      swap1\n      tag_90\n      swap3\n      swap2\n      swap1\n      tag_89\n      jump\t// in\n    tag_90:\n      pop\n      0xc0\n      dup3\n      add\n      mload\n      dup2\n      0x06\n      add\n      exp(0x0100, 0x00)\n      dup2\n      sload\n      dup2\n      0xff\n      mul\n      not\n      and\n      swap1\n      dup4\n      iszero\n      iszero\n      mul\n      or\n      swap1\n      sstore\n      pop\n      0xe0\n      dup3\n      add\n      mload\n      dup2\n      0x07\n      add\n      sstore\n      pop\n      pop\n        /* \"contracts/CarRental.sol\":1085:1090  count */\n      dup1\n        /* \"contracts/CarRental.sol\":1078:1090  return count */\n      swap2\n      pop\n      pop\n        /* \"contracts/CarRental.sol\":449:1098  function addCarForRenting(string memory model, address owner, uint year, string memory carLicense, uint price) public returns(uint) {\r... */\n      swap6\n      swap5\n      pop\n      pop\n      pop\n      pop\n      pop\n      jump\t// out\n        /* \"contracts/CarRental.sol\":210:237  CarMaking.Car[] public cars */\n    tag_38:\n      0x01\n      dup2\n      dup2\n      sload\n      dup2\n      lt\n      tag_91\n      jumpi\n      0x00\n      dup1\n      revert\n    tag_91:\n      swap1\n      0x00\n      mstore\n      keccak256(0x00, 0x20)\n      swap1\n      0x08\n      mul\n      add\n      0x00\n      swap2\n      pop\n      swap1\n      pop\n      dup1\n      0x00\n      add\n      sload\n      swap1\n      dup1\n      0x01\n      add\n      dup1\n      sload\n      tag_93\n      swap1\n      tag_73\n      jump\t// in\n    tag_93:\n      dup1\n      0x1f\n      add\n      0x20\n      dup1\n      swap2\n      div\n      mul\n      0x20\n      add\n      mload(0x40)\n      swap1\n      dup2\n      add\n      0x40\n      mstore\n      dup1\n      swap3\n      swap2\n      swap1\n      dup2\n      dup2\n      mstore\n      0x20\n      add\n      dup3\n      dup1\n      sload\n      tag_94\n      swap1\n      tag_73\n      jump\t// in\n    tag_94:\n      dup1\n      iszero\n      tag_95\n      jumpi\n      dup1\n      0x1f\n      lt\n      tag_96\n      jumpi\n      0x0100\n      dup1\n      dup4\n      sload\n      div\n      mul\n      dup4\n      mstore\n      swap2\n      0x20\n      add\n      swap2\n      jump(tag_95)\n    tag_96:\n      dup3\n      add\n      swap2\n      swap1\n      0x00\n      mstore\n      keccak256(0x00, 0x20)\n      swap1\n    tag_97:\n      dup2\n      sload\n      dup2\n      mstore\n      swap1\n      0x01\n      add\n      swap1\n      0x20\n      add\n      dup1\n      dup4\n      gt\n      tag_97\n      jumpi\n      dup3\n      swap1\n      sub\n      0x1f\n      and\n      dup3\n      add\n      swap2\n    tag_95:\n      pop\n      pop\n      pop\n      pop\n      pop\n      swap1\n      dup1\n      0x02\n      add\n      0x00\n      swap1\n      sload\n      swap1\n      0x0100\n      exp\n      swap1\n      div\n      0xffffffffffffffffffffffffffffffffffffffff\n      and\n      swap1\n      dup1\n      0x03\n      add\n      0x00\n      swap1\n      sload\n      swap1\n      0x0100\n      exp\n      swap1\n      div\n      0xffffffffffffffffffffffffffffffffffffffff\n      and\n      swap1\n      dup1\n      0x04\n      add\n      sload\n      swap1\n      dup1\n      0x05\n      add\n      dup1\n      sload\n      tag_98\n      swap1\n      tag_73\n      jump\t// in\n    tag_98:\n      dup1\n      0x1f\n      add\n      0x20\n      dup1\n      swap2\n      div\n      mul\n      0x20\n      add\n      mload(0x40)\n      swap1\n      dup2\n      add\n      0x40\n      mstore\n      dup1\n      swap3\n      swap2\n      swap1\n      dup2\n      dup2\n      mstore\n      0x20\n      add\n      dup3\n      dup1\n      sload\n      tag_99\n      swap1\n      tag_73\n      jump\t// in\n    tag_99:\n      dup1\n      iszero\n      tag_100\n      jumpi\n      dup1\n      0x1f\n      lt\n      tag_101\n      jumpi\n      0x0100\n      dup1\n      dup4\n      sload\n      div\n      mul\n      dup4\n      mstore\n      swap2\n      0x20\n      add\n      swap2\n      jump(tag_100)\n    tag_101:\n      dup3\n      add\n      swap2\n      swap1\n      0x00\n      mstore\n      keccak256(0x00, 0x20)\n      swap1\n    tag_102:\n      dup2\n      sload\n      dup2\n      mstore\n      swap1\n      0x01\n      add\n      swap1\n      0x20\n      add\n      dup1\n      dup4\n      gt\n      tag_102\n      jumpi\n      dup3\n      swap1\n      sub\n      0x1f\n      and\n      dup3\n      add\n      swap2\n    tag_100:\n      pop\n      pop\n      pop\n      pop\n      pop\n      swap1\n      dup1\n      0x06\n      add\n      0x00\n      swap1\n      sload\n      swap1\n      0x0100\n      exp\n      swap1\n      div\n      0xff\n      and\n      swap1\n      dup1\n      0x07\n      add\n      sload\n      swap1\n      pop\n      dup9\n      jump\t// out\n    tag_89:\n      dup3\n      dup1\n      sload\n      tag_103\n      swap1\n      tag_73\n      jump\t// in\n    tag_103:\n      swap1\n      0x00\n      mstore\n      keccak256(0x00, 0x20)\n      swap1\n      0x1f\n      add\n      0x20\n      swap1\n      div\n      dup2\n      add\n      swap3\n      dup3\n      tag_105\n      jumpi\n      0x00\n      dup6\n      sstore\n      jump(tag_104)\n    tag_105:\n      dup3\n      0x1f\n      lt\n      tag_106\n      jumpi\n      dup1\n      mload\n      not(0xff)\n      and\n      dup4\n      dup1\n      add\n      or\n      dup6\n      sstore\n      jump(tag_104)\n    tag_106:\n      dup3\n      dup1\n      add\n      0x01\n      add\n      dup6\n      sstore\n      dup3\n      iszero\n      tag_104\n      jumpi\n      swap2\n      dup3\n      add\n    tag_107:\n      dup3\n      dup2\n      gt\n      iszero\n      tag_108\n      jumpi\n      dup3\n      mload\n      dup3\n      sstore\n      swap2\n      0x20\n      add\n      swap2\n      swap1\n      0x01\n      add\n      swap1\n      jump(tag_107)\n    tag_108:\n    tag_104:\n      pop\n      swap1\n      pop\n      tag_109\n      swap2\n      swap1\n      tag_110\n      jump\t// in\n    tag_109:\n      pop\n      swap1\n      jump\t// out\n    tag_110:\n    tag_111:\n      dup1\n      dup3\n      gt\n      iszero\n      tag_112\n      jumpi\n      0x00\n      dup2\n      0x00\n      swap1\n      sstore\n      pop\n      0x01\n      add\n      jump(tag_111)\n    tag_112:\n      pop\n      swap1\n      jump\t// out\n        /* \"#utility.yul\":7:419   */\n    tag_114:\n        /* \"#utility.yul\":85:90   */\n      0x00\n        /* \"#utility.yul\":110:176   */\n      tag_116\n        /* \"#utility.yul\":126:175   */\n      tag_117\n        /* \"#utility.yul\":168:174   */\n      dup5\n        /* \"#utility.yul\":126:175   */\n      tag_118\n      jump\t// in\n    tag_117:\n        /* \"#utility.yul\":110:176   */\n      tag_119\n      jump\t// in\n    tag_116:\n        /* \"#utility.yul\":101:176   */\n      swap1\n      pop\n        /* \"#utility.yul\":199:205   */\n      dup3\n        /* \"#utility.yul\":192:197   */\n      dup2\n        /* \"#utility.yul\":185:206   */\n      mstore\n        /* \"#utility.yul\":237:241   */\n      0x20\n        /* \"#utility.yul\":230:235   */\n      dup2\n        /* \"#utility.yul\":226:242   */\n      add\n        /* \"#utility.yul\":275:278   */\n      dup5\n        /* \"#utility.yul\":266:272   */\n      dup5\n        /* \"#utility.yul\":261:264   */\n      dup5\n        /* \"#utility.yul\":257:273   */\n      add\n        /* \"#utility.yul\":254:279   */\n      gt\n        /* \"#utility.yul\":251:363   */\n      iszero\n      tag_120\n      jumpi\n        /* \"#utility.yul\":282:361   */\n      tag_121\n      tag_122\n      jump\t// in\n    tag_121:\n        /* \"#utility.yul\":251:363   */\n    tag_120:\n        /* \"#utility.yul\":372:413   */\n      tag_123\n        /* \"#utility.yul\":406:412   */\n      dup5\n        /* \"#utility.yul\":401:404   */\n      dup3\n        /* \"#utility.yul\":396:399   */\n      dup6\n        /* \"#utility.yul\":372:413   */\n      tag_124\n      jump\t// in\n    tag_123:\n        /* \"#utility.yul\":91:419   */\n      pop\n        /* \"#utility.yul\":7:419   */\n      swap4\n      swap3\n      pop\n      pop\n      pop\n      jump\t// out\n        /* \"#utility.yul\":425:564   */\n    tag_125:\n        /* \"#utility.yul\":471:476   */\n      0x00\n        /* \"#utility.yul\":509:515   */\n      dup2\n        /* \"#utility.yul\":496:516   */\n      calldataload\n        /* \"#utility.yul\":487:516   */\n      swap1\n      pop\n        /* \"#utility.yul\":525:558   */\n      tag_127\n        /* \"#utility.yul\":552:557   */\n      dup2\n        /* \"#utility.yul\":525:558   */\n      tag_128\n      jump\t// in\n    tag_127:\n        /* \"#utility.yul\":425:564   */\n      swap3\n      swap2\n      pop\n      pop\n      jump\t// out\n        /* \"#utility.yul\":584:924   */\n    tag_129:\n        /* \"#utility.yul\":640:645   */\n      0x00\n        /* \"#utility.yul\":689:692   */\n      dup3\n        /* \"#utility.yul\":682:686   */\n      0x1f\n        /* \"#utility.yul\":674:680   */\n      dup4\n        /* \"#utility.yul\":670:687   */\n      add\n        /* \"#utility.yul\":666:693   */\n      slt\n        /* \"#utility.yul\":656:778   */\n      tag_131\n      jumpi\n        /* \"#utility.yul\":697:776   */\n      tag_132\n      tag_133\n      jump\t// in\n    tag_132:\n        /* \"#utility.yul\":656:778   */\n    tag_131:\n        /* \"#utility.yul\":814:820   */\n      dup2\n        /* \"#utility.yul\":801:821   */\n      calldataload\n        /* \"#utility.yul\":839:918   */\n      tag_134\n        /* \"#utility.yul\":914:917   */\n      dup5\n        /* \"#utility.yul\":906:912   */\n      dup3\n        /* \"#utility.yul\":899:903   */\n      0x20\n        /* \"#utility.yul\":891:897   */\n      dup7\n        /* \"#utility.yul\":887:904   */\n      add\n        /* \"#utility.yul\":839:918   */\n      tag_114\n      jump\t// in\n    tag_134:\n        /* \"#utility.yul\":830:918   */\n      swap2\n      pop\n        /* \"#utility.yul\":646:924   */\n      pop\n        /* \"#utility.yul\":584:924   */\n      swap3\n      swap2\n      pop\n      pop\n      jump\t// out\n        /* \"#utility.yul\":930:1069   */\n    tag_135:\n        /* \"#utility.yul\":976:981   */\n      0x00\n        /* \"#utility.yul\":1014:1020   */\n      dup2\n        /* \"#utility.yul\":1001:1021   */\n      calldataload\n        /* \"#utility.yul\":992:1021   */\n      swap1\n      pop\n        /* \"#utility.yul\":1030:1063   */\n      tag_137\n        /* \"#utility.yul\":1057:1062   */\n      dup2\n        /* \"#utility.yul\":1030:1063   */\n      tag_138\n      jump\t// in\n    tag_137:\n        /* \"#utility.yul\":930:1069   */\n      swap3\n      swap2\n      pop\n      pop\n      jump\t// out\n        /* \"#utility.yul\":1075:2346   */\n    tag_32:\n        /* \"#utility.yul\":1190:1196   */\n      0x00\n        /* \"#utility.yul\":1198:1204   */\n      dup1\n        /* \"#utility.yul\":1206:1212   */\n      0x00\n        /* \"#utility.yul\":1214:1220   */\n      dup1\n        /* \"#utility.yul\":1222:1228   */\n      0x00\n        /* \"#utility.yul\":1271:1274   */\n      0xa0\n        /* \"#utility.yul\":1259:1268   */\n      dup7\n        /* \"#utility.yul\":1250:1257   */\n      dup9\n        /* \"#utility.yul\":1246:1269   */\n      sub\n        /* \"#utility.yul\":1242:1275   */\n      slt\n        /* \"#utility.yul\":1239:1359   */\n      iszero\n      tag_140\n      jumpi\n        /* \"#utility.yul\":1278:1357   */\n      tag_141\n      tag_142\n      jump\t// in\n    tag_141:\n        /* \"#utility.yul\":1239:1359   */\n    tag_140:\n        /* \"#utility.yul\":1426:1427   */\n      0x00\n        /* \"#utility.yul\":1415:1424   */\n      dup7\n        /* \"#utility.yul\":1411:1428   */\n      add\n        /* \"#utility.yul\":1398:1429   */\n      calldataload\n        /* \"#utility.yul\":1456:1474   */\n      0xffffffffffffffff\n        /* \"#utility.yul\":1448:1454   */\n      dup2\n        /* \"#utility.yul\":1445:1475   */\n      gt\n        /* \"#utility.yul\":1442:1559   */\n      iszero\n      tag_143\n      jumpi\n        /* \"#utility.yul\":1478:1557   */\n      tag_144\n      tag_145\n      jump\t// in\n    tag_144:\n        /* \"#utility.yul\":1442:1559   */\n    tag_143:\n        /* \"#utility.yul\":1583:1646   */\n      tag_146\n        /* \"#utility.yul\":1638:1645   */\n      dup9\n        /* \"#utility.yul\":1629:1635   */\n      dup3\n        /* \"#utility.yul\":1618:1627   */\n      dup10\n        /* \"#utility.yul\":1614:1636   */\n      add\n        /* \"#utility.yul\":1583:1646   */\n      tag_129\n      jump\t// in\n    tag_146:\n        /* \"#utility.yul\":1573:1646   */\n      swap6\n      pop\n        /* \"#utility.yul\":1369:1656   */\n      pop\n        /* \"#utility.yul\":1695:1697   */\n      0x20\n        /* \"#utility.yul\":1721:1774   */\n      tag_147\n        /* \"#utility.yul\":1766:1773   */\n      dup9\n        /* \"#utility.yul\":1757:1763   */\n      dup3\n        /* \"#utility.yul\":1746:1755   */\n      dup10\n        /* \"#utility.yul\":1742:1764   */\n      add\n        /* \"#utility.yul\":1721:1774   */\n      tag_125\n      jump\t// in\n    tag_147:\n        /* \"#utility.yul\":1711:1774   */\n      swap5\n      pop\n        /* \"#utility.yul\":1666:1784   */\n      pop\n        /* \"#utility.yul\":1823:1825   */\n      0x40\n        /* \"#utility.yul\":1849:1902   */\n      tag_148\n        /* \"#utility.yul\":1894:1901   */\n      dup9\n        /* \"#utility.yul\":1885:1891   */\n      dup3\n        /* \"#utility.yul\":1874:1883   */\n      dup10\n        /* \"#utility.yul\":1870:1892   */\n      add\n        /* \"#utility.yul\":1849:1902   */\n      tag_135\n      jump\t// in\n    tag_148:\n        /* \"#utility.yul\":1839:1902   */\n      swap4\n      pop\n        /* \"#utility.yul\":1794:1912   */\n      pop\n        /* \"#utility.yul\":1979:1981   */\n      0x60\n        /* \"#utility.yul\":1968:1977   */\n      dup7\n        /* \"#utility.yul\":1964:1982   */\n      add\n        /* \"#utility.yul\":1951:1983   */\n      calldataload\n        /* \"#utility.yul\":2010:2028   */\n      0xffffffffffffffff\n        /* \"#utility.yul\":2002:2008   */\n      dup2\n        /* \"#utility.yul\":1999:2029   */\n      gt\n        /* \"#utility.yul\":1996:2113   */\n      iszero\n      tag_149\n      jumpi\n        /* \"#utility.yul\":2032:2111   */\n      tag_150\n      tag_145\n      jump\t// in\n    tag_150:\n        /* \"#utility.yul\":1996:2113   */\n    tag_149:\n        /* \"#utility.yul\":2137:2200   */\n      tag_151\n        /* \"#utility.yul\":2192:2199   */\n      dup9\n        /* \"#utility.yul\":2183:2189   */\n      dup3\n        /* \"#utility.yul\":2172:2181   */\n      dup10\n        /* \"#utility.yul\":2168:2190   */\n      add\n        /* \"#utility.yul\":2137:2200   */\n      tag_129\n      jump\t// in\n    tag_151:\n        /* \"#utility.yul\":2127:2200   */\n      swap3\n      pop\n        /* \"#utility.yul\":1922:2210   */\n      pop\n        /* \"#utility.yul\":2249:2252   */\n      0x80\n        /* \"#utility.yul\":2276:2329   */\n      tag_152\n        /* \"#utility.yul\":2321:2328   */\n      dup9\n        /* \"#utility.yul\":2312:2318   */\n      dup3\n        /* \"#utility.yul\":2301:2310   */\n      dup10\n        /* \"#utility.yul\":2297:2319   */\n      add\n        /* \"#utility.yul\":2276:2329   */\n      tag_135\n      jump\t// in\n    tag_152:\n        /* \"#utility.yul\":2266:2329   */\n      swap2\n      pop\n        /* \"#utility.yul\":2220:2339   */\n      pop\n        /* \"#utility.yul\":1075:2346   */\n      swap3\n      swap6\n      pop\n      swap3\n      swap6\n      swap1\n      swap4\n      pop\n      jump\t// out\n        /* \"#utility.yul\":2352:2681   */\n    tag_15:\n        /* \"#utility.yul\":2411:2417   */\n      0x00\n        /* \"#utility.yul\":2460:2462   */\n      0x20\n        /* \"#utility.yul\":2448:2457   */\n      dup3\n        /* \"#utility.yul\":2439:2446   */\n      dup5\n        /* \"#utility.yul\":2435:2458   */\n      sub\n        /* \"#utility.yul\":2431:2463   */\n      slt\n        /* \"#utility.yul\":2428:2547   */\n      iszero\n      tag_154\n      jumpi\n        /* \"#utility.yul\":2466:2545   */\n      tag_155\n      tag_142\n      jump\t// in\n    tag_155:\n        /* \"#utility.yul\":2428:2547   */\n    tag_154:\n        /* \"#utility.yul\":2586:2587   */\n      0x00\n        /* \"#utility.yul\":2611:2664   */\n      tag_156\n        /* \"#utility.yul\":2656:2663   */\n      dup5\n        /* \"#utility.yul\":2647:2653   */\n      dup3\n        /* \"#utility.yul\":2636:2645   */\n      dup6\n        /* \"#utility.yul\":2632:2654   */\n      add\n        /* \"#utility.yul\":2611:2664   */\n      tag_135\n      jump\t// in\n    tag_156:\n        /* \"#utility.yul\":2601:2664   */\n      swap2\n      pop\n        /* \"#utility.yul\":2557:2674   */\n      pop\n        /* \"#utility.yul\":2352:2681   */\n      swap3\n      swap2\n      pop\n      pop\n      jump\t// out\n        /* \"#utility.yul\":2687:2805   */\n    tag_157:\n        /* \"#utility.yul\":2774:2798   */\n      tag_159\n        /* \"#utility.yul\":2792:2797   */\n      dup2\n        /* \"#utility.yul\":2774:2798   */\n      tag_160\n      jump\t// in\n    tag_159:\n        /* \"#utility.yul\":2769:2772   */\n      dup3\n        /* \"#utility.yul\":2762:2799   */\n      mstore\n        /* \"#utility.yul\":2687:2805   */\n      pop\n      pop\n      jump\t// out\n        /* \"#utility.yul\":2811:2920   */\n    tag_161:\n        /* \"#utility.yul\":2892:2913   */\n      tag_163\n        /* \"#utility.yul\":2907:2912   */\n      dup2\n        /* \"#utility.yul\":2892:2913   */\n      tag_164\n      jump\t// in\n    tag_163:\n        /* \"#utility.yul\":2887:2890   */\n      dup3\n        /* \"#utility.yul\":2880:2914   */\n      mstore\n        /* \"#utility.yul\":2811:2920   */\n      pop\n      pop\n      jump\t// out\n        /* \"#utility.yul\":2926:3290   */\n    tag_165:\n        /* \"#utility.yul\":3014:3017   */\n      0x00\n        /* \"#utility.yul\":3042:3081   */\n      tag_167\n        /* \"#utility.yul\":3075:3080   */\n      dup3\n        /* \"#utility.yul\":3042:3081   */\n      tag_168\n      jump\t// in\n    tag_167:\n        /* \"#utility.yul\":3097:3168   */\n      tag_169\n        /* \"#utility.yul\":3161:3167   */\n      dup2\n        /* \"#utility.yul\":3156:3159   */\n      dup6\n        /* \"#utility.yul\":3097:3168   */\n      tag_170\n      jump\t// in\n    tag_169:\n        /* \"#utility.yul\":3090:3168   */\n      swap4\n      pop\n        /* \"#utility.yul\":3177:3229   */\n      tag_171\n        /* \"#utility.yul\":3222:3228   */\n      dup2\n        /* \"#utility.yul\":3217:3220   */\n      dup6\n        /* \"#utility.yul\":3210:3214   */\n      0x20\n        /* \"#utility.yul\":3203:3208   */\n      dup7\n        /* \"#utility.yul\":3199:3215   */\n      add\n        /* \"#utility.yul\":3177:3229   */\n      tag_172\n      jump\t// in\n    tag_171:\n        /* \"#utility.yul\":3254:3283   */\n      tag_173\n        /* \"#utility.yul\":3276:3282   */\n      dup2\n        /* \"#utility.yul\":3254:3283   */\n      tag_174\n      jump\t// in\n    tag_173:\n        /* \"#utility.yul\":3249:3252   */\n      dup5\n        /* \"#utility.yul\":3245:3284   */\n      add\n        /* \"#utility.yul\":3238:3284   */\n      swap2\n      pop\n        /* \"#utility.yul\":3018:3290   */\n      pop\n        /* \"#utility.yul\":2926:3290   */\n      swap3\n      swap2\n      pop\n      pop\n      jump\t// out\n        /* \"#utility.yul\":3296:3414   */\n    tag_175:\n        /* \"#utility.yul\":3383:3407   */\n      tag_177\n        /* \"#utility.yul\":3401:3406   */\n      dup2\n        /* \"#utility.yul\":3383:3407   */\n      tag_178\n      jump\t// in\n    tag_177:\n        /* \"#utility.yul\":3378:3381   */\n      dup3\n        /* \"#utility.yul\":3371:3408   */\n      mstore\n        /* \"#utility.yul\":3296:3414   */\n      pop\n      pop\n      jump\t// out\n        /* \"#utility.yul\":3420:3630   */\n    tag_18:\n        /* \"#utility.yul\":3507:3511   */\n      0x00\n        /* \"#utility.yul\":3545:3547   */\n      0x20\n        /* \"#utility.yul\":3534:3543   */\n      dup3\n        /* \"#utility.yul\":3530:3548   */\n      add\n        /* \"#utility.yul\":3522:3548   */\n      swap1\n      pop\n        /* \"#utility.yul\":3558:3623   */\n      tag_180\n        /* \"#utility.yul\":3620:3621   */\n      0x00\n        /* \"#utility.yul\":3609:3618   */\n      dup4\n        /* \"#utility.yul\":3605:3622   */\n      add\n        /* \"#utility.yul\":3596:3602   */\n      dup5\n        /* \"#utility.yul\":3558:3623   */\n      tag_161\n      jump\t// in\n    tag_180:\n        /* \"#utility.yul\":3420:3630   */\n      swap3\n      swap2\n      pop\n      pop\n      jump\t// out\n        /* \"#utility.yul\":3636:3858   */\n    tag_12:\n        /* \"#utility.yul\":3729:3733   */\n      0x00\n        /* \"#utility.yul\":3767:3769   */\n      0x20\n        /* \"#utility.yul\":3756:3765   */\n      dup3\n        /* \"#utility.yul\":3752:3770   */\n      add\n        /* \"#utility.yul\":3744:3770   */\n      swap1\n      pop\n        /* \"#utility.yul\":3780:3851   */\n      tag_182\n        /* \"#utility.yul\":3848:3849   */\n      0x00\n        /* \"#utility.yul\":3837:3846   */\n      dup4\n        /* \"#utility.yul\":3833:3850   */\n      add\n        /* \"#utility.yul\":3824:3830   */\n      dup5\n        /* \"#utility.yul\":3780:3851   */\n      tag_175\n      jump\t// in\n    tag_182:\n        /* \"#utility.yul\":3636:3858   */\n      swap3\n      swap2\n      pop\n      pop\n      jump\t// out\n        /* \"#utility.yul\":3864:4920   */\n    tag_28:\n        /* \"#utility.yul\":4159:4163   */\n      0x00\n        /* \"#utility.yul\":4197:4200   */\n      0xe0\n        /* \"#utility.yul\":4186:4195   */\n      dup3\n        /* \"#utility.yul\":4182:4201   */\n      add\n        /* \"#utility.yul\":4174:4201   */\n      swap1\n      pop\n        /* \"#utility.yul\":4211:4282   */\n      tag_184\n        /* \"#utility.yul\":4279:4280   */\n      0x00\n        /* \"#utility.yul\":4268:4277   */\n      dup4\n        /* \"#utility.yul\":4264:4281   */\n      add\n        /* \"#utility.yul\":4255:4261   */\n      dup11\n        /* \"#utility.yul\":4211:4282   */\n      tag_175\n      jump\t// in\n    tag_184:\n        /* \"#utility.yul\":4329:4338   */\n      dup2\n        /* \"#utility.yul\":4323:4327   */\n      dup2\n        /* \"#utility.yul\":4319:4339   */\n      sub\n        /* \"#utility.yul\":4314:4316   */\n      0x20\n        /* \"#utility.yul\":4303:4312   */\n      dup4\n        /* \"#utility.yul\":4299:4317   */\n      add\n        /* \"#utility.yul\":4292:4340   */\n      mstore\n        /* \"#utility.yul\":4357:4435   */\n      tag_185\n        /* \"#utility.yul\":4430:4434   */\n      dup2\n        /* \"#utility.yul\":4421:4427   */\n      dup10\n        /* \"#utility.yul\":4357:4435   */\n      tag_165\n      jump\t// in\n    tag_185:\n        /* \"#utility.yul\":4349:4435   */\n      swap1\n      pop\n        /* \"#utility.yul\":4445:4517   */\n      tag_186\n        /* \"#utility.yul\":4513:4515   */\n      0x40\n        /* \"#utility.yul\":4502:4511   */\n      dup4\n        /* \"#utility.yul\":4498:4516   */\n      add\n        /* \"#utility.yul\":4489:4495   */\n      dup9\n        /* \"#utility.yul\":4445:4517   */\n      tag_157\n      jump\t// in\n    tag_186:\n        /* \"#utility.yul\":4527:4599   */\n      tag_187\n        /* \"#utility.yul\":4595:4597   */\n      0x60\n        /* \"#utility.yul\":4584:4593   */\n      dup4\n        /* \"#utility.yul\":4580:4598   */\n      add\n        /* \"#utility.yul\":4571:4577   */\n      dup8\n        /* \"#utility.yul\":4527:4599   */\n      tag_157\n      jump\t// in\n    tag_187:\n        /* \"#utility.yul\":4609:4682   */\n      tag_188\n        /* \"#utility.yul\":4677:4680   */\n      0x80\n        /* \"#utility.yul\":4666:4675   */\n      dup4\n        /* \"#utility.yul\":4662:4681   */\n      add\n        /* \"#utility.yul\":4653:4659   */\n      dup7\n        /* \"#utility.yul\":4609:4682   */\n      tag_175\n      jump\t// in\n    tag_188:\n        /* \"#utility.yul\":4730:4739   */\n      dup2\n        /* \"#utility.yul\":4724:4728   */\n      dup2\n        /* \"#utility.yul\":4720:4740   */\n      sub\n        /* \"#utility.yul\":4714:4717   */\n      0xa0\n        /* \"#utility.yul\":4703:4712   */\n      dup4\n        /* \"#utility.yul\":4699:4718   */\n      add\n        /* \"#utility.yul\":4692:4741   */\n      mstore\n        /* \"#utility.yul\":4758:4836   */\n      tag_189\n        /* \"#utility.yul\":4831:4835   */\n      dup2\n        /* \"#utility.yul\":4822:4828   */\n      dup6\n        /* \"#utility.yul\":4758:4836   */\n      tag_165\n      jump\t// in\n    tag_189:\n        /* \"#utility.yul\":4750:4836   */\n      swap1\n      pop\n        /* \"#utility.yul\":4846:4913   */\n      tag_190\n        /* \"#utility.yul\":4908:4911   */\n      0xc0\n        /* \"#utility.yul\":4897:4906   */\n      dup4\n        /* \"#utility.yul\":4893:4912   */\n      add\n        /* \"#utility.yul\":4884:4890   */\n      dup5\n        /* \"#utility.yul\":4846:4913   */\n      tag_161\n      jump\t// in\n    tag_190:\n        /* \"#utility.yul\":3864:4920   */\n      swap9\n      swap8\n      pop\n      pop\n      pop\n      pop\n      pop\n      pop\n      pop\n      pop\n      jump\t// out\n        /* \"#utility.yul\":4926:6093   */\n    tag_40:\n        /* \"#utility.yul\":5249:5253   */\n      0x00\n        /* \"#utility.yul\":5287:5290   */\n      0x0100\n        /* \"#utility.yul\":5276:5285   */\n      dup3\n        /* \"#utility.yul\":5272:5291   */\n      add\n        /* \"#utility.yul\":5264:5291   */\n      swap1\n      pop\n        /* \"#utility.yul\":5301:5372   */\n      tag_192\n        /* \"#utility.yul\":5369:5370   */\n      0x00\n        /* \"#utility.yul\":5358:5367   */\n      dup4\n        /* \"#utility.yul\":5354:5371   */\n      add\n        /* \"#utility.yul\":5345:5351   */\n      dup12\n        /* \"#utility.yul\":5301:5372   */\n      tag_175\n      jump\t// in\n    tag_192:\n        /* \"#utility.yul\":5419:5428   */\n      dup2\n        /* \"#utility.yul\":5413:5417   */\n      dup2\n        /* \"#utility.yul\":5409:5429   */\n      sub\n        /* \"#utility.yul\":5404:5406   */\n      0x20\n        /* \"#utility.yul\":5393:5402   */\n      dup4\n        /* \"#utility.yul\":5389:5407   */\n      add\n        /* \"#utility.yul\":5382:5430   */\n      mstore\n        /* \"#utility.yul\":5447:5525   */\n      tag_193\n        /* \"#utility.yul\":5520:5524   */\n      dup2\n        /* \"#utility.yul\":5511:5517   */\n      dup11\n        /* \"#utility.yul\":5447:5525   */\n      tag_165\n      jump\t// in\n    tag_193:\n        /* \"#utility.yul\":5439:5525   */\n      swap1\n      pop\n        /* \"#utility.yul\":5535:5607   */\n      tag_194\n        /* \"#utility.yul\":5603:5605   */\n      0x40\n        /* \"#utility.yul\":5592:5601   */\n      dup4\n        /* \"#utility.yul\":5588:5606   */\n      add\n        /* \"#utility.yul\":5579:5585   */\n      dup10\n        /* \"#utility.yul\":5535:5607   */\n      tag_157\n      jump\t// in\n    tag_194:\n        /* \"#utility.yul\":5617:5689   */\n      tag_195\n        /* \"#utility.yul\":5685:5687   */\n      0x60\n        /* \"#utility.yul\":5674:5683   */\n      dup4\n        /* \"#utility.yul\":5670:5688   */\n      add\n        /* \"#utility.yul\":5661:5667   */\n      dup9\n        /* \"#utility.yul\":5617:5689   */\n      tag_157\n      jump\t// in\n    tag_195:\n        /* \"#utility.yul\":5699:5772   */\n      tag_196\n        /* \"#utility.yul\":5767:5770   */\n      0x80\n        /* \"#utility.yul\":5756:5765   */\n      dup4\n        /* \"#utility.yul\":5752:5771   */\n      add\n        /* \"#utility.yul\":5743:5749   */\n      dup8\n        /* \"#utility.yul\":5699:5772   */\n      tag_175\n      jump\t// in\n    tag_196:\n        /* \"#utility.yul\":5820:5829   */\n      dup2\n        /* \"#utility.yul\":5814:5818   */\n      dup2\n        /* \"#utility.yul\":5810:5830   */\n      sub\n        /* \"#utility.yul\":5804:5807   */\n      0xa0\n        /* \"#utility.yul\":5793:5802   */\n      dup4\n        /* \"#utility.yul\":5789:5808   */\n      add\n        /* \"#utility.yul\":5782:5831   */\n      mstore\n        /* \"#utility.yul\":5848:5926   */\n      tag_197\n        /* \"#utility.yul\":5921:5925   */\n      dup2\n        /* \"#utility.yul\":5912:5918   */\n      dup7\n        /* \"#utility.yul\":5848:5926   */\n      tag_165\n      jump\t// in\n    tag_197:\n        /* \"#utility.yul\":5840:5926   */\n      swap1\n      pop\n        /* \"#utility.yul\":5936:6003   */\n      tag_198\n        /* \"#utility.yul\":5998:6001   */\n      0xc0\n        /* \"#utility.yul\":5987:5996   */\n      dup4\n        /* \"#utility.yul\":5983:6002   */\n      add\n        /* \"#utility.yul\":5974:5980   */\n      dup6\n        /* \"#utility.yul\":5936:6003   */\n      tag_161\n      jump\t// in\n    tag_198:\n        /* \"#utility.yul\":6013:6086   */\n      tag_199\n        /* \"#utility.yul\":6081:6084   */\n      0xe0\n        /* \"#utility.yul\":6070:6079   */\n      dup4\n        /* \"#utility.yul\":6066:6085   */\n      add\n        /* \"#utility.yul\":6057:6063   */\n      dup5\n        /* \"#utility.yul\":6013:6086   */\n      tag_175\n      jump\t// in\n    tag_199:\n        /* \"#utility.yul\":4926:6093   */\n      swap10\n      swap9\n      pop\n      pop\n      pop\n      pop\n      pop\n      pop\n      pop\n      pop\n      pop\n      jump\t// out\n        /* \"#utility.yul\":6099:6228   */\n    tag_119:\n        /* \"#utility.yul\":6133:6139   */\n      0x00\n        /* \"#utility.yul\":6160:6180   */\n      tag_201\n      tag_202\n      jump\t// in\n    tag_201:\n        /* \"#utility.yul\":6150:6180   */\n      swap1\n      pop\n        /* \"#utility.yul\":6189:6222   */\n      tag_203\n        /* \"#utility.yul\":6217:6221   */\n      dup3\n        /* \"#utility.yul\":6209:6215   */\n      dup3\n        /* \"#utility.yul\":6189:6222   */\n      tag_204\n      jump\t// in\n    tag_203:\n        /* \"#utility.yul\":6099:6228   */\n      swap2\n      swap1\n      pop\n      jump\t// out\n        /* \"#utility.yul\":6234:6309   */\n    tag_202:\n        /* \"#utility.yul\":6267:6273   */\n      0x00\n        /* \"#utility.yul\":6300:6302   */\n      0x40\n        /* \"#utility.yul\":6294:6303   */\n      mload\n        /* \"#utility.yul\":6284:6303   */\n      swap1\n      pop\n        /* \"#utility.yul\":6234:6309   */\n      swap1\n      jump\t// out\n        /* \"#utility.yul\":6315:6623   */\n    tag_118:\n        /* \"#utility.yul\":6377:6381   */\n      0x00\n        /* \"#utility.yul\":6467:6485   */\n      0xffffffffffffffff\n        /* \"#utility.yul\":6459:6465   */\n      dup3\n        /* \"#utility.yul\":6456:6486   */\n      gt\n        /* \"#utility.yul\":6453:6509   */\n      iszero\n      tag_207\n      jumpi\n        /* \"#utility.yul\":6489:6507   */\n      tag_208\n      tag_209\n      jump\t// in\n    tag_208:\n        /* \"#utility.yul\":6453:6509   */\n    tag_207:\n        /* \"#utility.yul\":6527:6556   */\n      tag_210\n        /* \"#utility.yul\":6549:6555   */\n      dup3\n        /* \"#utility.yul\":6527:6556   */\n      tag_174\n      jump\t// in\n    tag_210:\n        /* \"#utility.yul\":6519:6556   */\n      swap1\n      pop\n        /* \"#utility.yul\":6611:6615   */\n      0x20\n        /* \"#utility.yul\":6605:6609   */\n      dup2\n        /* \"#utility.yul\":6601:6616   */\n      add\n        /* \"#utility.yul\":6593:6616   */\n      swap1\n      pop\n        /* \"#utility.yul\":6315:6623   */\n      swap2\n      swap1\n      pop\n      jump\t// out\n        /* \"#utility.yul\":6629:6728   */\n    tag_168:\n        /* \"#utility.yul\":6681:6687   */\n      0x00\n        /* \"#utility.yul\":6715:6720   */\n      dup2\n        /* \"#utility.yul\":6709:6721   */\n      mload\n        /* \"#utility.yul\":6699:6721   */\n      swap1\n      pop\n        /* \"#utility.yul\":6629:6728   */\n      swap2\n      swap1\n      pop\n      jump\t// out\n        /* \"#utility.yul\":6734:6903   */\n    tag_170:\n        /* \"#utility.yul\":6818:6829   */\n      0x00\n        /* \"#utility.yul\":6852:6858   */\n      dup3\n        /* \"#utility.yul\":6847:6850   */\n      dup3\n        /* \"#utility.yul\":6840:6859   */\n      mstore\n        /* \"#utility.yul\":6892:6896   */\n      0x20\n        /* \"#utility.yul\":6887:6890   */\n      dup3\n        /* \"#utility.yul\":6883:6897   */\n      add\n        /* \"#utility.yul\":6868:6897   */\n      swap1\n      pop\n        /* \"#utility.yul\":6734:6903   */\n      swap3\n      swap2\n      pop\n      pop\n      jump\t// out\n        /* \"#utility.yul\":6909:7214   */\n    tag_86:\n        /* \"#utility.yul\":6949:6952   */\n      0x00\n        /* \"#utility.yul\":6968:6988   */\n      tag_214\n        /* \"#utility.yul\":6986:6987   */\n      dup3\n        /* \"#utility.yul\":6968:6988   */\n      tag_178\n      jump\t// in\n    tag_214:\n        /* \"#utility.yul\":6963:6988   */\n      swap2\n      pop\n        /* \"#utility.yul\":7002:7022   */\n      tag_215\n        /* \"#utility.yul\":7020:7021   */\n      dup4\n        /* \"#utility.yul\":7002:7022   */\n      tag_178\n      jump\t// in\n    tag_215:\n        /* \"#utility.yul\":6997:7022   */\n      swap3\n      pop\n        /* \"#utility.yul\":7156:7157   */\n      dup3\n        /* \"#utility.yul\":7088:7154   */\n      0xffffffffffffffffffffffffffffffffffffffffffffffffffffffffffffffff\n        /* \"#utility.yul\":7084:7158   */\n      sub\n        /* \"#utility.yul\":7081:7082   */\n      dup3\n        /* \"#utility.yul\":7078:7159   */\n      gt\n        /* \"#utility.yul\":7075:7182   */\n      iszero\n      tag_216\n      jumpi\n        /* \"#utility.yul\":7162:7180   */\n      tag_217\n      tag_218\n      jump\t// in\n    tag_217:\n        /* \"#utility.yul\":7075:7182   */\n    tag_216:\n        /* \"#utility.yul\":7206:7207   */\n      dup3\n        /* \"#utility.yul\":7203:7204   */\n      dup3\n        /* \"#utility.yul\":7199:7208   */\n      add\n        /* \"#utility.yul\":7192:7208   */\n      swap1\n      pop\n        /* \"#utility.yul\":6909:7214   */\n      swap3\n      swap2\n      pop\n      pop\n      jump\t// out\n        /* \"#utility.yul\":7220:7316   */\n    tag_160:\n        /* \"#utility.yul\":7257:7264   */\n      0x00\n        /* \"#utility.yul\":7286:7310   */\n      tag_220\n        /* \"#utility.yul\":7304:7309   */\n      dup3\n        /* \"#utility.yul\":7286:7310   */\n      tag_221\n      jump\t// in\n    tag_220:\n        /* \"#utility.yul\":7275:7310   */\n      swap1\n      pop\n        /* \"#utility.yul\":7220:7316   */\n      swap2\n      swap1\n      pop\n      jump\t// out\n        /* \"#utility.yul\":7322:7412   */\n    tag_164:\n        /* \"#utility.yul\":7356:7363   */\n      0x00\n        /* \"#utility.yul\":7399:7404   */\n      dup2\n        /* \"#utility.yul\":7392:7405   */\n      iszero\n        /* \"#utility.yul\":7385:7406   */\n      iszero\n        /* \"#utility.yul\":7374:7406   */\n      swap1\n      pop\n        /* \"#utility.yul\":7322:7412   */\n      swap2\n      swap1\n      pop\n      jump\t// out\n        /* \"#utility.yul\":7418:7544   */\n    tag_221:\n        /* \"#utility.yul\":7455:7462   */\n      0x00\n        /* \"#utility.yul\":7495:7537   */\n      0xffffffffffffffffffffffffffffffffffffffff\n        /* \"#utility.yul\":7488:7493   */\n      dup3\n        /* \"#utility.yul\":7484:7538   */\n      and\n        /* \"#utility.yul\":7473:7538   */\n      swap1\n      pop\n        /* \"#utility.yul\":7418:7544   */\n      swap2\n      swap1\n      pop\n      jump\t// out\n        /* \"#utility.yul\":7550:7627   */\n    tag_178:\n        /* \"#utility.yul\":7587:7594   */\n      0x00\n        /* \"#utility.yul\":7616:7621   */\n      dup2\n        /* \"#utility.yul\":7605:7621   */\n      swap1\n      pop\n        /* \"#utility.yul\":7550:7627   */\n      swap2\n      swap1\n      pop\n      jump\t// out\n        /* \"#utility.yul\":7633:7787   */\n    tag_124:\n        /* \"#utility.yul\":7717:7723   */\n      dup3\n        /* \"#utility.yul\":7712:7715   */\n      dup2\n        /* \"#utility.yul\":7707:7710   */\n      dup4\n        /* \"#utility.yul\":7694:7724   */\n      calldatacopy\n        /* \"#utility.yul\":7779:7780   */\n      0x00\n        /* \"#utility.yul\":7770:7776   */\n      dup4\n        /* \"#utility.yul\":7765:7768   */\n      dup4\n        /* \"#utility.yul\":7761:7777   */\n      add\n        /* \"#utility.yul\":7754:7781   */\n      mstore\n        /* \"#utility.yul\":7633:7787   */\n      pop\n      pop\n      pop\n      jump\t// out\n        /* \"#utility.yul\":7793:8100   */\n    tag_172:\n        /* \"#utility.yul\":7861:7862   */\n      0x00\n        /* \"#utility.yul\":7871:7984   */\n    tag_227:\n        /* \"#utility.yul\":7885:7891   */\n      dup4\n        /* \"#utility.yul\":7882:7883   */\n      dup2\n        /* \"#utility.yul\":7879:7892   */\n      lt\n        /* \"#utility.yul\":7871:7984   */\n      iszero\n      tag_229\n      jumpi\n        /* \"#utility.yul\":7970:7971   */\n      dup1\n        /* \"#utility.yul\":7965:7968   */\n      dup3\n        /* \"#utility.yul\":7961:7972   */\n      add\n        /* \"#utility.yul\":7955:7973   */\n      mload\n        /* \"#utility.yul\":7951:7952   */\n      dup2\n        /* \"#utility.yul\":7946:7949   */\n      dup5\n        /* \"#utility.yul\":7942:7953   */\n      add\n        /* \"#utility.yul\":7935:7974   */\n      mstore\n        /* \"#utility.yul\":7907:7909   */\n      0x20\n        /* \"#utility.yul\":7904:7905   */\n      dup2\n        /* \"#utility.yul\":7900:7910   */\n      add\n        /* \"#utility.yul\":7895:7910   */\n      swap1\n      pop\n        /* \"#utility.yul\":7871:7984   */\n      jump(tag_227)\n    tag_229:\n        /* \"#utility.yul\":8002:8008   */\n      dup4\n        /* \"#utility.yul\":7999:8000   */\n      dup2\n        /* \"#utility.yul\":7996:8009   */\n      gt\n        /* \"#utility.yul\":7993:8094   */\n      iszero\n      tag_230\n      jumpi\n        /* \"#utility.yul\":8082:8083   */\n      0x00\n        /* \"#utility.yul\":8073:8079   */\n      dup5\n        /* \"#utility.yul\":8068:8071   */\n      dup5\n        /* \"#utility.yul\":8064:8080   */\n      add\n        /* \"#utility.yul\":8057:8084   */\n      mstore\n        /* \"#utility.yul\":7993:8094   */\n    tag_230:\n        /* \"#utility.yul\":7842:8100   */\n      pop\n        /* \"#utility.yul\":7793:8100   */\n      pop\n      pop\n      pop\n      jump\t// out\n        /* \"#utility.yul\":8106:8426   */\n    tag_73:\n        /* \"#utility.yul\":8150:8156   */\n      0x00\n        /* \"#utility.yul\":8187:8188   */\n      0x02\n        /* \"#utility.yul\":8181:8185   */\n      dup3\n        /* \"#utility.yul\":8177:8189   */\n      div\n        /* \"#utility.yul\":8167:8189   */\n      swap1\n      pop\n        /* \"#utility.yul\":8234:8235   */\n      0x01\n        /* \"#utility.yul\":8228:8232   */\n      dup3\n        /* \"#utility.yul\":8224:8236   */\n      and\n        /* \"#utility.yul\":8255:8273   */\n      dup1\n        /* \"#utility.yul\":8245:8326   */\n      tag_232\n      jumpi\n        /* \"#utility.yul\":8311:8315   */\n      0x7f\n        /* \"#utility.yul\":8303:8309   */\n      dup3\n        /* \"#utility.yul\":8299:8316   */\n      and\n        /* \"#utility.yul\":8289:8316   */\n      swap2\n      pop\n        /* \"#utility.yul\":8245:8326   */\n    tag_232:\n        /* \"#utility.yul\":8373:8375   */\n      0x20\n        /* \"#utility.yul\":8365:8371   */\n      dup3\n        /* \"#utility.yul\":8362:8376   */\n      lt\n        /* \"#utility.yul\":8342:8360   */\n      dup2\n        /* \"#utility.yul\":8339:8377   */\n      eq\n        /* \"#utility.yul\":8336:8420   */\n      iszero\n      tag_233\n      jumpi\n        /* \"#utility.yul\":8392:8410   */\n      tag_234\n      tag_235\n      jump\t// in\n    tag_234:\n        /* \"#utility.yul\":8336:8420   */\n    tag_233:\n        /* \"#utility.yul\":8157:8426   */\n      pop\n        /* \"#utility.yul\":8106:8426   */\n      swap2\n      swap1\n      pop\n      jump\t// out\n        /* \"#utility.yul\":8432:8713   */\n    tag_204:\n        /* \"#utility.yul\":8515:8542   */\n      tag_237\n        /* \"#utility.yul\":8537:8541   */\n      dup3\n        /* \"#utility.yul\":8515:8542   */\n      tag_174\n      jump\t// in\n    tag_237:\n        /* \"#utility.yul\":8507:8513   */\n      dup2\n        /* \"#utility.yul\":8503:8543   */\n      add\n        /* \"#utility.yul\":8645:8651   */\n      dup2\n        /* \"#utility.yul\":8633:8643   */\n      dup2\n        /* \"#utility.yul\":8630:8652   */\n      lt\n        /* \"#utility.yul\":8609:8627   */\n      0xffffffffffffffff\n        /* \"#utility.yul\":8597:8607   */\n      dup3\n        /* \"#utility.yul\":8594:8628   */\n      gt\n        /* \"#utility.yul\":8591:8653   */\n      or\n        /* \"#utility.yul\":8588:8676   */\n      iszero\n      tag_238\n      jumpi\n        /* \"#utility.yul\":8656:8674   */\n      tag_239\n      tag_209\n      jump\t// in\n    tag_239:\n        /* \"#utility.yul\":8588:8676   */\n    tag_238:\n        /* \"#utility.yul\":8696:8706   */\n      dup1\n        /* \"#utility.yul\":8692:8694   */\n      0x40\n        /* \"#utility.yul\":8685:8707   */\n      mstore\n        /* \"#utility.yul\":8475:8713   */\n      pop\n        /* \"#utility.yul\":8432:8713   */\n      pop\n      pop\n      jump\t// out\n        /* \"#utility.yul\":8719:8899   */\n    tag_218:\n        /* \"#utility.yul\":8767:8844   */\n      0x4e487b7100000000000000000000000000000000000000000000000000000000\n        /* \"#utility.yul\":8764:8765   */\n      0x00\n        /* \"#utility.yul\":8757:8845   */\n      mstore\n        /* \"#utility.yul\":8864:8868   */\n      0x11\n        /* \"#utility.yul\":8861:8862   */\n      0x04\n        /* \"#utility.yul\":8854:8869   */\n      mstore\n        /* \"#utility.yul\":8888:8892   */\n      0x24\n        /* \"#utility.yul\":8885:8886   */\n      0x00\n        /* \"#utility.yul\":8878:8893   */\n      revert\n        /* \"#utility.yul\":8905:9085   */\n    tag_235:\n        /* \"#utility.yul\":8953:9030   */\n      0x4e487b7100000000000000000000000000000000000000000000000000000000\n        /* \"#utility.yul\":8950:8951   */\n      0x00\n        /* \"#utility.yul\":8943:9031   */\n      mstore\n        /* \"#utility.yul\":9050:9054   */\n      0x22\n        /* \"#utility.yul\":9047:9048   */\n      0x04\n        /* \"#utility.yul\":9040:9055   */\n      mstore\n        /* \"#utility.yul\":9074:9078   */\n      0x24\n        /* \"#utility.yul\":9071:9072   */\n      0x00\n        /* \"#utility.yul\":9064:9079   */\n      revert\n        /* \"#utility.yul\":9091:9271   */\n    tag_47:\n        /* \"#utility.yul\":9139:9216   */\n      0x4e487b7100000000000000000000000000000000000000000000000000000000\n        /* \"#utility.yul\":9136:9137   */\n      0x00\n        /* \"#utility.yul\":9129:9217   */\n      mstore\n        /* \"#utility.yul\":9236:9240   */\n      0x32\n        /* \"#utility.yul\":9233:9234   */\n      0x04\n        /* \"#utility.yul\":9226:9241   */\n      mstore\n        /* \"#utility.yul\":9260:9264   */\n      0x24\n        /* \"#utility.yul\":9257:9258   */\n      0x00\n        /* \"#utility.yul\":9250:9265   */\n      revert\n        /* \"#utility.yul\":9277:9457   */\n    tag_209:\n        /* \"#utility.yul\":9325:9402   */\n      0x4e487b7100000000000000000000000000000000000000000000000000000000\n        /* \"#utility.yul\":9322:9323   */\n      0x00\n        /* \"#utility.yul\":9315:9403   */\n      mstore\n        /* \"#utility.yul\":9422:9426   */\n      0x41\n        /* \"#utility.yul\":9419:9420   */\n      0x04\n        /* \"#utility.yul\":9412:9427   */\n      mstore\n        /* \"#utility.yul\":9446:9450   */\n      0x24\n        /* \"#utility.yul\":9443:9444   */\n      0x00\n        /* \"#utility.yul\":9436:9451   */\n      revert\n        /* \"#utility.yul\":9463:9580   */\n    tag_133:\n        /* \"#utility.yul\":9572:9573   */\n      0x00\n        /* \"#utility.yul\":9569:9570   */\n      dup1\n        /* \"#utility.yul\":9562:9574   */\n      revert\n        /* \"#utility.yul\":9586:9703   */\n    tag_122:\n        /* \"#utility.yul\":9695:9696   */\n      0x00\n        /* \"#utility.yul\":9692:9693   */\n      dup1\n        /* \"#utility.yul\":9685:9697   */\n      revert\n        /* \"#utility.yul\":9709:9826   */\n    tag_145:\n        /* \"#utility.yul\":9818:9819   */\n      0x00\n        /* \"#utility.yul\":9815:9816   */\n      dup1\n        /* \"#utility.yul\":9808:9820   */\n      revert\n        /* \"#utility.yul\":9832:9949   */\n    tag_142:\n        /* \"#utility.yul\":9941:9942   */\n      0x00\n        /* \"#utility.yul\":9938:9939   */\n      dup1\n        /* \"#utility.yul\":9931:9943   */\n      revert\n        /* \"#utility.yul\":9955:10057   */\n    tag_174:\n        /* \"#utility.yul\":9996:10002   */\n      0x00\n        /* \"#utility.yul\":10047:10049   */\n      0x1f\n        /* \"#utility.yul\":10043:10050   */\n      not\n        /* \"#utility.yul\":10038:10040   */\n      0x1f\n        /* \"#utility.yul\":10031:10036   */\n      dup4\n        /* \"#utility.yul\":10027:10041   */\n      add\n        /* \"#utility.yul\":10023:10051   */\n      and\n        /* \"#utility.yul\":10013:10051   */\n      swap1\n      pop\n        /* \"#utility.yul\":9955:10057   */\n      swap2\n      swap1\n      pop\n      jump\t// out\n        /* \"#utility.yul\":10063:10185   */\n    tag_128:\n        /* \"#utility.yul\":10136:10160   */\n      tag_250\n        /* \"#utility.yul\":10154:10159   */\n      dup2\n        /* \"#utility.yul\":10136:10160   */\n      tag_160\n      jump\t// in\n    tag_250:\n        /* \"#utility.yul\":10129:10134   */\n      dup2\n        /* \"#utility.yul\":10126:10161   */\n      eq\n        /* \"#utility.yul\":10116:10179   */\n      tag_251\n      jumpi\n        /* \"#utility.yul\":10175:10176   */\n      0x00\n        /* \"#utility.yul\":10172:10173   */\n      dup1\n        /* \"#utility.yul\":10165:10177   */\n      revert\n        /* \"#utility.yul\":10116:10179   */\n    tag_251:\n        /* \"#utility.yul\":10063:10185   */\n      pop\n      jump\t// out\n        /* \"#utility.yul\":10191:10313   */\n    tag_138:\n        /* \"#utility.yul\":10264:10288   */\n      tag_253\n        /* \"#utility.yul\":10282:10287   */\n      dup2\n        /* \"#utility.yul\":10264:10288   */\n      tag_178\n      jump\t// in\n    tag_253:\n        /* \"#utility.yul\":10257:10262   */\n      dup2\n        /* \"#utility.yul\":10254:10289   */\n      eq\n        /* \"#utility.yul\":10244:10307   */\n      tag_254\n      jumpi\n        /* \"#utility.yul\":10303:10304   */\n      0x00\n        /* \"#utility.yul\":10300:10301   */\n      dup1\n        /* \"#utility.yul\":10293:10305   */\n      revert\n        /* \"#utility.yul\":10244:10307   */\n    tag_254:\n        /* \"#utility.yul\":10191:10313   */\n      pop\n      jump\t// out\n\n    auxdata: 0xa26469706673582212209d27549db8c100b28e82cd3d67fe284f3fbd892bcc910b25f1430057d4fa00d164736f6c63430008070033\n}\n",
				"bytecode": {
					"linkReferences": {},
					"object": "608060405234801561001057600080fd5b5061102c806100206000396000f3fe6080604052600436106100555760003560e01c806352a90c421461005a578063a9b8fbdc14610085578063b85ce4e9146100b5578063d01af8bc146100e0578063f750ef7814610123578063f7746e3614610160575b600080fd5b34801561006657600080fd5b5061006f6101a4565b60405161007c9190610c0e565b60405180910390f35b61009f600480360381019061009a9190610b60565b6101aa565b6040516100ac9190610bf3565b60405180910390f35b3480156100c157600080fd5b506100ca610347565b6040516100d79190610c0e565b60405180910390f35b3480156100ec57600080fd5b5061010760048036038101906101029190610b60565b610354565b60405161011a9796959493929190610c29565b60405180910390f35b34801561012f57600080fd5b5061014a60048036038101906101459190610aad565b6105f8565b6040516101579190610c0e565b60405180910390f35b34801561016c57600080fd5b5061018760048036038101906101829190610b60565b6107bb565b60405161019b989796959493929190610ca6565b60405180910390f35b60005481565b60008082101580156101c257506101bf610347565b82105b6101cb57600080fd5b600182815481106101df576101de610f45565b5b9060005260206000209060080201600701543414610259576001828154811061020b5761020a610f45565b5b9060005260206000209060080201600701546040517ff9632e860000000000000000000000000000000000000000000000000000000081526004016102509190610c0e565b60405180910390fd5b600115156001838154811061027157610270610f45565b5b906000526020600020906008020160060160009054906101000a900460ff1615151461029c57600080fd5b33600183815481106102b1576102b0610f45565b5b906000526020600020906008020160020160006101000a81548173ffffffffffffffffffffffffffffffffffffffff021916908373ffffffffffffffffffffffffffffffffffffffff16021790555060006001838154811061031657610315610f45565b5b906000526020600020906008020160060160006101000a81548160ff02191690831515021790555060019050919050565b6000600180549050905090565b600060606000806000606060008088101580156103775750610374610347565b88105b61038057600080fd5b60006001898154811061039657610395610f45565b5b906000526020600020906008020160405180610100016040529081600082015481526020016001820180546103ca90610e84565b80601f01602080910402602001604051908101604052809291908181526020018280546103f690610e84565b80156104435780601f1061041857610100808354040283529160200191610443565b820191906000526020600020905b81548152906001019060200180831161042657829003601f168201915b505050505081526020016002820160009054906101000a900473ffffffffffffffffffffffffffffffffffffffff1673ffffffffffffffffffffffffffffffffffffffff1673ffffffffffffffffffffffffffffffffffffffff1681526020016003820160009054906101000a900473ffffffffffffffffffffffffffffffffffffffff1673ffffffffffffffffffffffffffffffffffffffff1673ffffffffffffffffffffffffffffffffffffffff1681526020016004820154815260200160058201805461051290610e84565b80601f016020809104026020016040519081016040528092919081815260200182805461053e90610e84565b801561058b5780601f106105605761010080835404028352916020019161058b565b820191906000526020600020905b81548152906001019060200180831161056e57829003601f168201915b505050505081526020016006820160009054906101000a900460ff161515151581526020016007820154815250509050806000015181602001518260600151836040015184608001518560a001518660c00151975097509750975097509750975050919395979092949650565b6000806001610605610347565b61060f9190610da4565b90506001604051806101000160405280838152602001898152602001600073ffffffffffffffffffffffffffffffffffffffff1681526020018873ffffffffffffffffffffffffffffffffffffffff1681526020018781526020018681526020016001151581526020018581525090806001815401808255809150506001900390600052602060002090600802016000909190919091506000820151816000015560208201518160010190805190602001906106cc929190610970565b5060408201518160020160006101000a81548173ffffffffffffffffffffffffffffffffffffffff021916908373ffffffffffffffffffffffffffffffffffffffff16021790555060608201518160030160006101000a81548173ffffffffffffffffffffffffffffffffffffffff021916908373ffffffffffffffffffffffffffffffffffffffff1602179055506080820151816004015560a0820151816005019080519060200190610781929190610970565b5060c08201518160060160006101000a81548160ff02191690831515021790555060e0820151816007015550508091505095945050505050565b600181815481106107cb57600080fd5b90600052602060002090600802016000915090508060000154908060010180546107f490610e84565b80601f016020809104026020016040519081016040528092919081815260200182805461082090610e84565b801561086d5780601f106108425761010080835404028352916020019161086d565b820191906000526020600020905b81548152906001019060200180831161085057829003601f168201915b5050505050908060020160009054906101000a900473ffffffffffffffffffffffffffffffffffffffff16908060030160009054906101000a900473ffffffffffffffffffffffffffffffffffffffff16908060040154908060050180546108d490610e84565b80601f016020809104026020016040519081016040528092919081815260200182805461090090610e84565b801561094d5780601f106109225761010080835404028352916020019161094d565b820191906000526020600020905b81548152906001019060200180831161093057829003601f168201915b5050505050908060060160009054906101000a900460ff16908060070154905088565b82805461097c90610e84565b90600052602060002090601f01602090048101928261099e57600085556109e5565b82601f106109b757805160ff19168380011785556109e5565b828001600101855582156109e5579182015b828111156109e45782518255916020019190600101906109c9565b5b5090506109f291906109f6565b5090565b5b80821115610a0f5760008160009055506001016109f7565b5090565b6000610a26610a2184610d57565b610d32565b905082815260208101848484011115610a4257610a41610fa8565b5b610a4d848285610e42565b509392505050565b600081359050610a6481610fc8565b92915050565b600082601f830112610a7f57610a7e610fa3565b5b8135610a8f848260208601610a13565b91505092915050565b600081359050610aa781610fdf565b92915050565b600080600080600060a08688031215610ac957610ac8610fb2565b5b600086013567ffffffffffffffff811115610ae757610ae6610fad565b5b610af388828901610a6a565b9550506020610b0488828901610a55565b9450506040610b1588828901610a98565b935050606086013567ffffffffffffffff811115610b3657610b35610fad565b5b610b4288828901610a6a565b9250506080610b5388828901610a98565b9150509295509295909350565b600060208284031215610b7657610b75610fb2565b5b6000610b8484828501610a98565b91505092915050565b610b9681610dfa565b82525050565b610ba581610e0c565b82525050565b6000610bb682610d88565b610bc08185610d93565b9350610bd0818560208601610e51565b610bd981610fb7565b840191505092915050565b610bed81610e38565b82525050565b6000602082019050610c086000830184610b9c565b92915050565b6000602082019050610c236000830184610be4565b92915050565b600060e082019050610c3e600083018a610be4565b8181036020830152610c508189610bab565b9050610c5f6040830188610b8d565b610c6c6060830187610b8d565b610c796080830186610be4565b81810360a0830152610c8b8185610bab565b9050610c9a60c0830184610b9c565b98975050505050505050565b600061010082019050610cbc600083018b610be4565b8181036020830152610cce818a610bab565b9050610cdd6040830189610b8d565b610cea6060830188610b8d565b610cf76080830187610be4565b81810360a0830152610d098186610bab565b9050610d1860c0830185610b9c565b610d2560e0830184610be4565b9998505050505050505050565b6000610d3c610d4d565b9050610d488282610eb6565b919050565b6000604051905090565b600067ffffffffffffffff821115610d7257610d71610f74565b5b610d7b82610fb7565b9050602081019050919050565b600081519050919050565b600082825260208201905092915050565b6000610daf82610e38565b9150610dba83610e38565b9250827fffffffffffffffffffffffffffffffffffffffffffffffffffffffffffffffff03821115610def57610dee610ee7565b5b828201905092915050565b6000610e0582610e18565b9050919050565b60008115159050919050565b600073ffffffffffffffffffffffffffffffffffffffff82169050919050565b6000819050919050565b82818337600083830152505050565b60005b83811015610e6f578082015181840152602081019050610e54565b83811115610e7e576000848401525b50505050565b60006002820490506001821680610e9c57607f821691505b60208210811415610eb057610eaf610f16565b5b50919050565b610ebf82610fb7565b810181811067ffffffffffffffff82111715610ede57610edd610f74565b5b80604052505050565b7f4e487b7100000000000000000000000000000000000000000000000000000000600052601160045260246000fd5b7f4e487b7100000000000000000000000000000000000000000000000000000000600052602260045260246000fd5b7f4e487b7100000000000000000000000000000000000000000000000000000000600052603260045260246000fd5b7f4e487b7100000000000000000000000000000000000000000000000000000000600052604160045260246000fd5b600080fd5b600080fd5b600080fd5b600080fd5b6000601f19601f8301169050919050565b610fd181610dfa565b8114610fdc57600080fd5b50565b610fe881610e38565b8114610ff357600080fd5b5056fea26469706673582212209d27549db8c100b28e82cd3d67fe284f3fbd892bcc910b25f1430057d4fa00d164736f6c63430008070033",
					"opcodes": "PUSH1 0x80 PUSH1 0x40 MSTORE CALLVALUE DUP1 ISZERO PUSH2 0x10 JUMPI PUSH1 0x0 DUP1 REVERT JUMPDEST POP PUSH2 0x102C DUP1 PUSH2 0x20 PUSH1 0x0 CODECOPY PUSH1 0x0 RETURN INVALID PUSH1 0x80 PUSH1 0x40 MSTORE PUSH1 0x4 CALLDATASIZE LT PUSH2 0x55 JUMPI PUSH1 0x0 CALLDATALOAD PUSH1 0xE0 SHR DUP1 PUSH4 0x52A90C42 EQ PUSH2 0x5A JUMPI DUP1 PUSH4 0xA9B8FBDC EQ PUSH2 0x85 JUMPI DUP1 PUSH4 0xB85CE4E9 EQ PUSH2 0xB5 JUMPI DUP1 PUSH4 0xD01AF8BC EQ PUSH2 0xE0 JUMPI DUP1 PUSH4 0xF750EF78 EQ PUSH2 0x123 JUMPI DUP1 PUSH4 0xF7746E36 EQ PUSH2 0x160 JUMPI JUMPDEST PUSH1 0x0 DUP1 REVERT JUMPDEST CALLVALUE DUP1 ISZERO PUSH2 0x66 JUMPI PUSH1 0x0 DUP1 REVERT JUMPDEST POP PUSH2 0x6F PUSH2 0x1A4 JUMP JUMPDEST PUSH1 0x40 MLOAD PUSH2 0x7C SWAP2 SWAP1 PUSH2 0xC0E JUMP JUMPDEST PUSH1 0x40 MLOAD DUP1 SWAP2 SUB SWAP1 RETURN JUMPDEST PUSH2 0x9F PUSH1 0x4 DUP1 CALLDATASIZE SUB DUP2 ADD SWAP1 PUSH2 0x9A SWAP2 SWAP1 PUSH2 0xB60 JUMP JUMPDEST PUSH2 0x1AA JUMP JUMPDEST PUSH1 0x40 MLOAD PUSH2 0xAC SWAP2 SWAP1 PUSH2 0xBF3 JUMP JUMPDEST PUSH1 0x40 MLOAD DUP1 SWAP2 SUB SWAP1 RETURN JUMPDEST CALLVALUE DUP1 ISZERO PUSH2 0xC1 JUMPI PUSH1 0x0 DUP1 REVERT JUMPDEST POP PUSH2 0xCA PUSH2 0x347 JUMP JUMPDEST PUSH1 0x40 MLOAD PUSH2 0xD7 SWAP2 SWAP1 PUSH2 0xC0E JUMP JUMPDEST PUSH1 0x40 MLOAD DUP1 SWAP2 SUB SWAP1 RETURN JUMPDEST CALLVALUE DUP1 ISZERO PUSH2 0xEC JUMPI PUSH1 0x0 DUP1 REVERT JUMPDEST POP PUSH2 0x107 PUSH1 0x4 DUP1 CALLDATASIZE SUB DUP2 ADD SWAP1 PUSH2 0x102 SWAP2 SWAP1 PUSH2 0xB60 JUMP JUMPDEST PUSH2 0x354 JUMP JUMPDEST PUSH1 0x40 MLOAD PUSH2 0x11A SWAP8 SWAP7 SWAP6 SWAP5 SWAP4 SWAP3 SWAP2 SWAP1 PUSH2 0xC29 JUMP JUMPDEST PUSH1 0x40 MLOAD DUP1 SWAP2 SUB SWAP1 RETURN JUMPDEST CALLVALUE DUP1 ISZERO PUSH2 0x12F JUMPI PUSH1 0x0 DUP1 REVERT JUMPDEST POP PUSH2 0x14A PUSH1 0x4 DUP1 CALLDATASIZE SUB DUP2 ADD SWAP1 PUSH2 0x145 SWAP2 SWAP1 PUSH2 0xAAD JUMP JUMPDEST PUSH2 0x5F8 JUMP JUMPDEST PUSH1 0x40 MLOAD PUSH2 0x157 SWAP2 SWAP1 PUSH2 0xC0E JUMP JUMPDEST PUSH1 0x40 MLOAD DUP1 SWAP2 SUB SWAP1 RETURN JUMPDEST CALLVALUE DUP1 ISZERO PUSH2 0x16C JUMPI PUSH1 0x0 DUP1 REVERT JUMPDEST POP PUSH2 0x187 PUSH1 0x4 DUP1 CALLDATASIZE SUB DUP2 ADD SWAP1 PUSH2 0x182 SWAP2 SWAP1 PUSH2 0xB60 JUMP JUMPDEST PUSH2 0x7BB JUMP JUMPDEST PUSH1 0x40 MLOAD PUSH2 0x19B SWAP9 SWAP8 SWAP7 SWAP6 SWAP5 SWAP4 SWAP3 SWAP2 SWAP1 PUSH2 0xCA6 JUMP JUMPDEST PUSH1 0x40 MLOAD DUP1 SWAP2 SUB SWAP1 RETURN JUMPDEST PUSH1 0x0 SLOAD DUP2 JUMP JUMPDEST PUSH1 0x0 DUP1 DUP3 LT ISZERO DUP1 ISZERO PUSH2 0x1C2 JUMPI POP PUSH2 0x1BF PUSH2 0x347 JUMP JUMPDEST DUP3 LT JUMPDEST PUSH2 0x1CB JUMPI PUSH1 0x0 DUP1 REVERT JUMPDEST PUSH1 0x1 DUP3 DUP2 SLOAD DUP2 LT PUSH2 0x1DF JUMPI PUSH2 0x1DE PUSH2 0xF45 JUMP JUMPDEST JUMPDEST SWAP1 PUSH1 0x0 MSTORE PUSH1 0x20 PUSH1 0x0 KECCAK256 SWAP1 PUSH1 0x8 MUL ADD PUSH1 0x7 ADD SLOAD CALLVALUE EQ PUSH2 0x259 JUMPI PUSH1 0x1 DUP3 DUP2 SLOAD DUP2 LT PUSH2 0x20B JUMPI PUSH2 0x20A PUSH2 0xF45 JUMP JUMPDEST JUMPDEST SWAP1 PUSH1 0x0 MSTORE PUSH1 0x20 PUSH1 0x0 KECCAK256 SWAP1 PUSH1 0x8 MUL ADD PUSH1 0x7 ADD SLOAD PUSH1 0x40 MLOAD PUSH32 0xF9632E8600000000000000000000000000000000000000000000000000000000 DUP2 MSTORE PUSH1 0x4 ADD PUSH2 0x250 SWAP2 SWAP1 PUSH2 0xC0E JUMP JUMPDEST PUSH1 0x40 MLOAD DUP1 SWAP2 SUB SWAP1 REVERT JUMPDEST PUSH1 0x1 ISZERO ISZERO PUSH1 0x1 DUP4 DUP2 SLOAD DUP2 LT PUSH2 0x271 JUMPI PUSH2 0x270 PUSH2 0xF45 JUMP JUMPDEST JUMPDEST SWAP1 PUSH1 0x0 MSTORE PUSH1 0x20 PUSH1 0x0 KECCAK256 SWAP1 PUSH1 0x8 MUL ADD PUSH1 0x6 ADD PUSH1 0x0 SWAP1 SLOAD SWAP1 PUSH2 0x100 EXP SWAP1 DIV PUSH1 0xFF AND ISZERO ISZERO EQ PUSH2 0x29C JUMPI PUSH1 0x0 DUP1 REVERT JUMPDEST CALLER PUSH1 0x1 DUP4 DUP2 SLOAD DUP2 LT PUSH2 0x2B1 JUMPI PUSH2 0x2B0 PUSH2 0xF45 JUMP JUMPDEST JUMPDEST SWAP1 PUSH1 0x0 MSTORE PUSH1 0x20 PUSH1 0x0 KECCAK256 SWAP1 PUSH1 0x8 MUL ADD PUSH1 0x2 ADD PUSH1 0x0 PUSH2 0x100 EXP DUP2 SLOAD DUP2 PUSH20 0xFFFFFFFFFFFFFFFFFFFFFFFFFFFFFFFFFFFFFFFF MUL NOT AND SWAP1 DUP4 PUSH20 0xFFFFFFFFFFFFFFFFFFFFFFFFFFFFFFFFFFFFFFFF AND MUL OR SWAP1 SSTORE POP PUSH1 0x0 PUSH1 0x1 DUP4 DUP2 SLOAD DUP2 LT PUSH2 0x316 JUMPI PUSH2 0x315 PUSH2 0xF45 JUMP JUMPDEST JUMPDEST SWAP1 PUSH1 0x0 MSTORE PUSH1 0x20 PUSH1 0x0 KECCAK256 SWAP1 PUSH1 0x8 MUL ADD PUSH1 0x6 ADD PUSH1 0x0 PUSH2 0x100 EXP DUP2 SLOAD DUP2 PUSH1 0xFF MUL NOT AND SWAP1 DUP4 ISZERO ISZERO MUL OR SWAP1 SSTORE POP PUSH1 0x1 SWAP1 POP SWAP2 SWAP1 POP JUMP JUMPDEST PUSH1 0x0 PUSH1 0x1 DUP1 SLOAD SWAP1 POP SWAP1 POP SWAP1 JUMP JUMPDEST PUSH1 0x0 PUSH1 0x60 PUSH1 0x0 DUP1 PUSH1 0x0 PUSH1 0x60 PUSH1 0x0 DUP1 DUP9 LT ISZERO DUP1 ISZERO PUSH2 0x377 JUMPI POP PUSH2 0x374 PUSH2 0x347 JUMP JUMPDEST DUP9 LT JUMPDEST PUSH2 0x380 JUMPI PUSH1 0x0 DUP1 REVERT JUMPDEST PUSH1 0x0 PUSH1 0x1 DUP10 DUP2 SLOAD DUP2 LT PUSH2 0x396 JUMPI PUSH2 0x395 PUSH2 0xF45 JUMP JUMPDEST JUMPDEST SWAP1 PUSH1 0x0 MSTORE PUSH1 0x20 PUSH1 0x0 KECCAK256 SWAP1 PUSH1 0x8 MUL ADD PUSH1 0x40 MLOAD DUP1 PUSH2 0x100 ADD PUSH1 0x40 MSTORE SWAP1 DUP2 PUSH1 0x0 DUP3 ADD SLOAD DUP2 MSTORE PUSH1 0x20 ADD PUSH1 0x1 DUP3 ADD DUP1 SLOAD PUSH2 0x3CA SWAP1 PUSH2 0xE84 JUMP JUMPDEST DUP1 PUSH1 0x1F ADD PUSH1 0x20 DUP1 SWAP2 DIV MUL PUSH1 0x20 ADD PUSH1 0x40 MLOAD SWAP1 DUP2 ADD PUSH1 0x40 MSTORE DUP1 SWAP3 SWAP2 SWAP1 DUP2 DUP2 MSTORE PUSH1 0x20 ADD DUP3 DUP1 SLOAD PUSH2 0x3F6 SWAP1 PUSH2 0xE84 JUMP JUMPDEST DUP1 ISZERO PUSH2 0x443 JUMPI DUP1 PUSH1 0x1F LT PUSH2 0x418 JUMPI PUSH2 0x100 DUP1 DUP4 SLOAD DIV MUL DUP4 MSTORE SWAP2 PUSH1 0x20 ADD SWAP2 PUSH2 0x443 JUMP JUMPDEST DUP3 ADD SWAP2 SWAP1 PUSH1 0x0 MSTORE PUSH1 0x20 PUSH1 0x0 KECCAK256 SWAP1 JUMPDEST DUP2 SLOAD DUP2 MSTORE SWAP1 PUSH1 0x1 ADD SWAP1 PUSH1 0x20 ADD DUP1 DUP4 GT PUSH2 0x426 JUMPI DUP3 SWAP1 SUB PUSH1 0x1F AND DUP3 ADD SWAP2 JUMPDEST POP POP POP POP POP DUP2 MSTORE PUSH1 0x20 ADD PUSH1 0x2 DUP3 ADD PUSH1 0x0 SWAP1 SLOAD SWAP1 PUSH2 0x100 EXP SWAP1 DIV PUSH20 0xFFFFFFFFFFFFFFFFFFFFFFFFFFFFFFFFFFFFFFFF AND PUSH20 0xFFFFFFFFFFFFFFFFFFFFFFFFFFFFFFFFFFFFFFFF AND PUSH20 0xFFFFFFFFFFFFFFFFFFFFFFFFFFFFFFFFFFFFFFFF AND DUP2 MSTORE PUSH1 0x20 ADD PUSH1 0x3 DUP3 ADD PUSH1 0x0 SWAP1 SLOAD SWAP1 PUSH2 0x100 EXP SWAP1 DIV PUSH20 0xFFFFFFFFFFFFFFFFFFFFFFFFFFFFFFFFFFFFFFFF AND PUSH20 0xFFFFFFFFFFFFFFFFFFFFFFFFFFFFFFFFFFFFFFFF AND PUSH20 0xFFFFFFFFFFFFFFFFFFFFFFFFFFFFFFFFFFFFFFFF AND DUP2 MSTORE PUSH1 0x20 ADD PUSH1 0x4 DUP3 ADD SLOAD DUP2 MSTORE PUSH1 0x20 ADD PUSH1 0x5 DUP3 ADD DUP1 SLOAD PUSH2 0x512 SWAP1 PUSH2 0xE84 JUMP JUMPDEST DUP1 PUSH1 0x1F ADD PUSH1 0x20 DUP1 SWAP2 DIV MUL PUSH1 0x20 ADD PUSH1 0x40 MLOAD SWAP1 DUP2 ADD PUSH1 0x40 MSTORE DUP1 SWAP3 SWAP2 SWAP1 DUP2 DUP2 MSTORE PUSH1 0x20 ADD DUP3 DUP1 SLOAD PUSH2 0x53E SWAP1 PUSH2 0xE84 JUMP JUMPDEST DUP1 ISZERO PUSH2 0x58B JUMPI DUP1 PUSH1 0x1F LT PUSH2 0x560 JUMPI PUSH2 0x100 DUP1 DUP4 SLOAD DIV MUL DUP4 MSTORE SWAP2 PUSH1 0x20 ADD SWAP2 PUSH2 0x58B JUMP JUMPDEST DUP3 ADD SWAP2 SWAP1 PUSH1 0x0 MSTORE PUSH1 0x20 PUSH1 0x0 KECCAK256 SWAP1 JUMPDEST DUP2 SLOAD DUP2 MSTORE SWAP1 PUSH1 0x1 ADD SWAP1 PUSH1 0x20 ADD DUP1 DUP4 GT PUSH2 0x56E JUMPI DUP3 SWAP1 SUB PUSH1 0x1F AND DUP3 ADD SWAP2 JUMPDEST POP POP POP POP POP DUP2 MSTORE PUSH1 0x20 ADD PUSH1 0x6 DUP3 ADD PUSH1 0x0 SWAP1 SLOAD SWAP1 PUSH2 0x100 EXP SWAP1 DIV PUSH1 0xFF AND ISZERO ISZERO ISZERO ISZERO DUP2 MSTORE PUSH1 0x20 ADD PUSH1 0x7 DUP3 ADD SLOAD DUP2 MSTORE POP POP SWAP1 POP DUP1 PUSH1 0x0 ADD MLOAD DUP2 PUSH1 0x20 ADD MLOAD DUP3 PUSH1 0x60 ADD MLOAD DUP4 PUSH1 0x40 ADD MLOAD DUP5 PUSH1 0x80 ADD MLOAD DUP6 PUSH1 0xA0 ADD MLOAD DUP7 PUSH1 0xC0 ADD MLOAD SWAP8 POP SWAP8 POP SWAP8 POP SWAP8 POP SWAP8 POP SWAP8 POP SWAP8 POP POP SWAP2 SWAP4 SWAP6 SWAP8 SWAP1 SWAP3 SWAP5 SWAP7 POP JUMP JUMPDEST PUSH1 0x0 DUP1 PUSH1 0x1 PUSH2 0x605 PUSH2 0x347 JUMP JUMPDEST PUSH2 0x60F SWAP2 SWAP1 PUSH2 0xDA4 JUMP JUMPDEST SWAP1 POP PUSH1 0x1 PUSH1 0x40 MLOAD DUP1 PUSH2 0x100 ADD PUSH1 0x40 MSTORE DUP1 DUP4 DUP2 MSTORE PUSH1 0x20 ADD DUP10 DUP2 MSTORE PUSH1 0x20 ADD PUSH1 0x0 PUSH20 0xFFFFFFFFFFFFFFFFFFFFFFFFFFFFFFFFFFFFFFFF AND DUP2 MSTORE PUSH1 0x20 ADD DUP9 PUSH20 0xFFFFFFFFFFFFFFFFFFFFFFFFFFFFFFFFFFFFFFFF AND DUP2 MSTORE PUSH1 0x20 ADD DUP8 DUP2 MSTORE PUSH1 0x20 ADD DUP7 DUP2 MSTORE PUSH1 0x20 ADD PUSH1 0x1 ISZERO ISZERO DUP2 MSTORE PUSH1 0x20 ADD DUP6 DUP2 MSTORE POP SWAP1 DUP1 PUSH1 0x1 DUP2 SLOAD ADD DUP1 DUP3 SSTORE DUP1 SWAP2 POP POP PUSH1 0x1 SWAP1 SUB SWAP1 PUSH1 0x0 MSTORE PUSH1 0x20 PUSH1 0x0 KECCAK256 SWAP1 PUSH1 0x8 MUL ADD PUSH1 0x0 SWAP1 SWAP2 SWAP1 SWAP2 SWAP1 SWAP2 POP PUSH1 0x0 DUP3 ADD MLOAD DUP2 PUSH1 0x0 ADD SSTORE PUSH1 0x20 DUP3 ADD MLOAD DUP2 PUSH1 0x1 ADD SWAP1 DUP1 MLOAD SWAP1 PUSH1 0x20 ADD SWAP1 PUSH2 0x6CC SWAP3 SWAP2 SWAP1 PUSH2 0x970 JUMP JUMPDEST POP PUSH1 0x40 DUP3 ADD MLOAD DUP2 PUSH1 0x2 ADD PUSH1 0x0 PUSH2 0x100 EXP DUP2 SLOAD DUP2 PUSH20 0xFFFFFFFFFFFFFFFFFFFFFFFFFFFFFFFFFFFFFFFF MUL NOT AND SWAP1 DUP4 PUSH20 0xFFFFFFFFFFFFFFFFFFFFFFFFFFFFFFFFFFFFFFFF AND MUL OR SWAP1 SSTORE POP PUSH1 0x60 DUP3 ADD MLOAD DUP2 PUSH1 0x3 ADD PUSH1 0x0 PUSH2 0x100 EXP DUP2 SLOAD DUP2 PUSH20 0xFFFFFFFFFFFFFFFFFFFFFFFFFFFFFFFFFFFFFFFF MUL NOT AND SWAP1 DUP4 PUSH20 0xFFFFFFFFFFFFFFFFFFFFFFFFFFFFFFFFFFFFFFFF AND MUL OR SWAP1 SSTORE POP PUSH1 0x80 DUP3 ADD MLOAD DUP2 PUSH1 0x4 ADD SSTORE PUSH1 0xA0 DUP3 ADD MLOAD DUP2 PUSH1 0x5 ADD SWAP1 DUP1 MLOAD SWAP1 PUSH1 0x20 ADD SWAP1 PUSH2 0x781 SWAP3 SWAP2 SWAP1 PUSH2 0x970 JUMP JUMPDEST POP PUSH1 0xC0 DUP3 ADD MLOAD DUP2 PUSH1 0x6 ADD PUSH1 0x0 PUSH2 0x100 EXP DUP2 SLOAD DUP2 PUSH1 0xFF MUL NOT AND SWAP1 DUP4 ISZERO ISZERO MUL OR SWAP1 SSTORE POP PUSH1 0xE0 DUP3 ADD MLOAD DUP2 PUSH1 0x7 ADD SSTORE POP POP DUP1 SWAP2 POP POP SWAP6 SWAP5 POP POP POP POP POP JUMP JUMPDEST PUSH1 0x1 DUP2 DUP2 SLOAD DUP2 LT PUSH2 0x7CB JUMPI PUSH1 0x0 DUP1 REVERT JUMPDEST SWAP1 PUSH1 0x0 MSTORE PUSH1 0x20 PUSH1 0x0 KECCAK256 SWAP1 PUSH1 0x8 MUL ADD PUSH1 0x0 SWAP2 POP SWAP1 POP DUP1 PUSH1 0x0 ADD SLOAD SWAP1 DUP1 PUSH1 0x1 ADD DUP1 SLOAD PUSH2 0x7F4 SWAP1 PUSH2 0xE84 JUMP JUMPDEST DUP1 PUSH1 0x1F ADD PUSH1 0x20 DUP1 SWAP2 DIV MUL PUSH1 0x20 ADD PUSH1 0x40 MLOAD SWAP1 DUP2 ADD PUSH1 0x40 MSTORE DUP1 SWAP3 SWAP2 SWAP1 DUP2 DUP2 MSTORE PUSH1 0x20 ADD DUP3 DUP1 SLOAD PUSH2 0x820 SWAP1 PUSH2 0xE84 JUMP JUMPDEST DUP1 ISZERO PUSH2 0x86D JUMPI DUP1 PUSH1 0x1F LT PUSH2 0x842 JUMPI PUSH2 0x100 DUP1 DUP4 SLOAD DIV MUL DUP4 MSTORE SWAP2 PUSH1 0x20 ADD SWAP2 PUSH2 0x86D JUMP JUMPDEST DUP3 ADD SWAP2 SWAP1 PUSH1 0x0 MSTORE PUSH1 0x20 PUSH1 0x0 KECCAK256 SWAP1 JUMPDEST DUP2 SLOAD DUP2 MSTORE SWAP1 PUSH1 0x1 ADD SWAP1 PUSH1 0x20 ADD DUP1 DUP4 GT PUSH2 0x850 JUMPI DUP3 SWAP1 SUB PUSH1 0x1F AND DUP3 ADD SWAP2 JUMPDEST POP POP POP POP POP SWAP1 DUP1 PUSH1 0x2 ADD PUSH1 0x0 SWAP1 SLOAD SWAP1 PUSH2 0x100 EXP SWAP1 DIV PUSH20 0xFFFFFFFFFFFFFFFFFFFFFFFFFFFFFFFFFFFFFFFF AND SWAP1 DUP1 PUSH1 0x3 ADD PUSH1 0x0 SWAP1 SLOAD SWAP1 PUSH2 0x100 EXP SWAP1 DIV PUSH20 0xFFFFFFFFFFFFFFFFFFFFFFFFFFFFFFFFFFFFFFFF AND SWAP1 DUP1 PUSH1 0x4 ADD SLOAD SWAP1 DUP1 PUSH1 0x5 ADD DUP1 SLOAD PUSH2 0x8D4 SWAP1 PUSH2 0xE84 JUMP JUMPDEST DUP1 PUSH1 0x1F ADD PUSH1 0x20 DUP1 SWAP2 DIV MUL PUSH1 0x20 ADD PUSH1 0x40 MLOAD SWAP1 DUP2 ADD PUSH1 0x40 MSTORE DUP1 SWAP3 SWAP2 SWAP1 DUP2 DUP2 MSTORE PUSH1 0x20 ADD DUP3 DUP1 SLOAD PUSH2 0x900 SWAP1 PUSH2 0xE84 JUMP JUMPDEST DUP1 ISZERO PUSH2 0x94D JUMPI DUP1 PUSH1 0x1F LT PUSH2 0x922 JUMPI PUSH2 0x100 DUP1 DUP4 SLOAD DIV MUL DUP4 MSTORE SWAP2 PUSH1 0x20 ADD SWAP2 PUSH2 0x94D JUMP JUMPDEST DUP3 ADD SWAP2 SWAP1 PUSH1 0x0 MSTORE PUSH1 0x20 PUSH1 0x0 KECCAK256 SWAP1 JUMPDEST DUP2 SLOAD DUP2 MSTORE SWAP1 PUSH1 0x1 ADD SWAP1 PUSH1 0x20 ADD DUP1 DUP4 GT PUSH2 0x930 JUMPI DUP3 SWAP1 SUB PUSH1 0x1F AND DUP3 ADD SWAP2 JUMPDEST POP POP POP POP POP SWAP1 DUP1 PUSH1 0x6 ADD PUSH1 0x0 SWAP1 SLOAD SWAP1 PUSH2 0x100 EXP SWAP1 DIV PUSH1 0xFF AND SWAP1 DUP1 PUSH1 0x7 ADD SLOAD SWAP1 POP DUP9 JUMP JUMPDEST DUP3 DUP1 SLOAD PUSH2 0x97C SWAP1 PUSH2 0xE84 JUMP JUMPDEST SWAP1 PUSH1 0x0 MSTORE PUSH1 0x20 PUSH1 0x0 KECCAK256 SWAP1 PUSH1 0x1F ADD PUSH1 0x20 SWAP1 DIV DUP2 ADD SWAP3 DUP3 PUSH2 0x99E JUMPI PUSH1 0x0 DUP6 SSTORE PUSH2 0x9E5 JUMP JUMPDEST DUP3 PUSH1 0x1F LT PUSH2 0x9B7 JUMPI DUP1 MLOAD PUSH1 0xFF NOT AND DUP4 DUP1 ADD OR DUP6 SSTORE PUSH2 0x9E5 JUMP JUMPDEST DUP3 DUP1 ADD PUSH1 0x1 ADD DUP6 SSTORE DUP3 ISZERO PUSH2 0x9E5 JUMPI SWAP2 DUP3 ADD JUMPDEST DUP3 DUP2 GT ISZERO PUSH2 0x9E4 JUMPI DUP3 MLOAD DUP3 SSTORE SWAP2 PUSH1 0x20 ADD SWAP2 SWAP1 PUSH1 0x1 ADD SWAP1 PUSH2 0x9C9 JUMP JUMPDEST JUMPDEST POP SWAP1 POP PUSH2 0x9F2 SWAP2 SWAP1 PUSH2 0x9F6 JUMP JUMPDEST POP SWAP1 JUMP JUMPDEST JUMPDEST DUP1 DUP3 GT ISZERO PUSH2 0xA0F JUMPI PUSH1 0x0 DUP2 PUSH1 0x0 SWAP1 SSTORE POP PUSH1 0x1 ADD PUSH2 0x9F7 JUMP JUMPDEST POP SWAP1 JUMP JUMPDEST PUSH1 0x0 PUSH2 0xA26 PUSH2 0xA21 DUP5 PUSH2 0xD57 JUMP JUMPDEST PUSH2 0xD32 JUMP JUMPDEST SWAP1 POP DUP3 DUP2 MSTORE PUSH1 0x20 DUP2 ADD DUP5 DUP5 DUP5 ADD GT ISZERO PUSH2 0xA42 JUMPI PUSH2 0xA41 PUSH2 0xFA8 JUMP JUMPDEST JUMPDEST PUSH2 0xA4D DUP5 DUP3 DUP6 PUSH2 0xE42 JUMP JUMPDEST POP SWAP4 SWAP3 POP POP POP JUMP JUMPDEST PUSH1 0x0 DUP2 CALLDATALOAD SWAP1 POP PUSH2 0xA64 DUP2 PUSH2 0xFC8 JUMP JUMPDEST SWAP3 SWAP2 POP POP JUMP JUMPDEST PUSH1 0x0 DUP3 PUSH1 0x1F DUP4 ADD SLT PUSH2 0xA7F JUMPI PUSH2 0xA7E PUSH2 0xFA3 JUMP JUMPDEST JUMPDEST DUP2 CALLDATALOAD PUSH2 0xA8F DUP5 DUP3 PUSH1 0x20 DUP7 ADD PUSH2 0xA13 JUMP JUMPDEST SWAP2 POP POP SWAP3 SWAP2 POP POP JUMP JUMPDEST PUSH1 0x0 DUP2 CALLDATALOAD SWAP1 POP PUSH2 0xAA7 DUP2 PUSH2 0xFDF JUMP JUMPDEST SWAP3 SWAP2 POP POP JUMP JUMPDEST PUSH1 0x0 DUP1 PUSH1 0x0 DUP1 PUSH1 0x0 PUSH1 0xA0 DUP7 DUP9 SUB SLT ISZERO PUSH2 0xAC9 JUMPI PUSH2 0xAC8 PUSH2 0xFB2 JUMP JUMPDEST JUMPDEST PUSH1 0x0 DUP7 ADD CALLDATALOAD PUSH8 0xFFFFFFFFFFFFFFFF DUP2 GT ISZERO PUSH2 0xAE7 JUMPI PUSH2 0xAE6 PUSH2 0xFAD JUMP JUMPDEST JUMPDEST PUSH2 0xAF3 DUP9 DUP3 DUP10 ADD PUSH2 0xA6A JUMP JUMPDEST SWAP6 POP POP PUSH1 0x20 PUSH2 0xB04 DUP9 DUP3 DUP10 ADD PUSH2 0xA55 JUMP JUMPDEST SWAP5 POP POP PUSH1 0x40 PUSH2 0xB15 DUP9 DUP3 DUP10 ADD PUSH2 0xA98 JUMP JUMPDEST SWAP4 POP POP PUSH1 0x60 DUP7 ADD CALLDATALOAD PUSH8 0xFFFFFFFFFFFFFFFF DUP2 GT ISZERO PUSH2 0xB36 JUMPI PUSH2 0xB35 PUSH2 0xFAD JUMP JUMPDEST JUMPDEST PUSH2 0xB42 DUP9 DUP3 DUP10 ADD PUSH2 0xA6A JUMP JUMPDEST SWAP3 POP POP PUSH1 0x80 PUSH2 0xB53 DUP9 DUP3 DUP10 ADD PUSH2 0xA98 JUMP JUMPDEST SWAP2 POP POP SWAP3 SWAP6 POP SWAP3 SWAP6 SWAP1 SWAP4 POP JUMP JUMPDEST PUSH1 0x0 PUSH1 0x20 DUP3 DUP5 SUB SLT ISZERO PUSH2 0xB76 JUMPI PUSH2 0xB75 PUSH2 0xFB2 JUMP JUMPDEST JUMPDEST PUSH1 0x0 PUSH2 0xB84 DUP5 DUP3 DUP6 ADD PUSH2 0xA98 JUMP JUMPDEST SWAP2 POP POP SWAP3 SWAP2 POP POP JUMP JUMPDEST PUSH2 0xB96 DUP2 PUSH2 0xDFA JUMP JUMPDEST DUP3 MSTORE POP POP JUMP JUMPDEST PUSH2 0xBA5 DUP2 PUSH2 0xE0C JUMP JUMPDEST DUP3 MSTORE POP POP JUMP JUMPDEST PUSH1 0x0 PUSH2 0xBB6 DUP3 PUSH2 0xD88 JUMP JUMPDEST PUSH2 0xBC0 DUP2 DUP6 PUSH2 0xD93 JUMP JUMPDEST SWAP4 POP PUSH2 0xBD0 DUP2 DUP6 PUSH1 0x20 DUP7 ADD PUSH2 0xE51 JUMP JUMPDEST PUSH2 0xBD9 DUP2 PUSH2 0xFB7 JUMP JUMPDEST DUP5 ADD SWAP2 POP POP SWAP3 SWAP2 POP POP JUMP JUMPDEST PUSH2 0xBED DUP2 PUSH2 0xE38 JUMP JUMPDEST DUP3 MSTORE POP POP JUMP JUMPDEST PUSH1 0x0 PUSH1 0x20 DUP3 ADD SWAP1 POP PUSH2 0xC08 PUSH1 0x0 DUP4 ADD DUP5 PUSH2 0xB9C JUMP JUMPDEST SWAP3 SWAP2 POP POP JUMP JUMPDEST PUSH1 0x0 PUSH1 0x20 DUP3 ADD SWAP1 POP PUSH2 0xC23 PUSH1 0x0 DUP4 ADD DUP5 PUSH2 0xBE4 JUMP JUMPDEST SWAP3 SWAP2 POP POP JUMP JUMPDEST PUSH1 0x0 PUSH1 0xE0 DUP3 ADD SWAP1 POP PUSH2 0xC3E PUSH1 0x0 DUP4 ADD DUP11 PUSH2 0xBE4 JUMP JUMPDEST DUP2 DUP2 SUB PUSH1 0x20 DUP4 ADD MSTORE PUSH2 0xC50 DUP2 DUP10 PUSH2 0xBAB JUMP JUMPDEST SWAP1 POP PUSH2 0xC5F PUSH1 0x40 DUP4 ADD DUP9 PUSH2 0xB8D JUMP JUMPDEST PUSH2 0xC6C PUSH1 0x60 DUP4 ADD DUP8 PUSH2 0xB8D JUMP JUMPDEST PUSH2 0xC79 PUSH1 0x80 DUP4 ADD DUP7 PUSH2 0xBE4 JUMP JUMPDEST DUP2 DUP2 SUB PUSH1 0xA0 DUP4 ADD MSTORE PUSH2 0xC8B DUP2 DUP6 PUSH2 0xBAB JUMP JUMPDEST SWAP1 POP PUSH2 0xC9A PUSH1 0xC0 DUP4 ADD DUP5 PUSH2 0xB9C JUMP JUMPDEST SWAP9 SWAP8 POP POP POP POP POP POP POP POP JUMP JUMPDEST PUSH1 0x0 PUSH2 0x100 DUP3 ADD SWAP1 POP PUSH2 0xCBC PUSH1 0x0 DUP4 ADD DUP12 PUSH2 0xBE4 JUMP JUMPDEST DUP2 DUP2 SUB PUSH1 0x20 DUP4 ADD MSTORE PUSH2 0xCCE DUP2 DUP11 PUSH2 0xBAB JUMP JUMPDEST SWAP1 POP PUSH2 0xCDD PUSH1 0x40 DUP4 ADD DUP10 PUSH2 0xB8D JUMP JUMPDEST PUSH2 0xCEA PUSH1 0x60 DUP4 ADD DUP9 PUSH2 0xB8D JUMP JUMPDEST PUSH2 0xCF7 PUSH1 0x80 DUP4 ADD DUP8 PUSH2 0xBE4 JUMP JUMPDEST DUP2 DUP2 SUB PUSH1 0xA0 DUP4 ADD MSTORE PUSH2 0xD09 DUP2 DUP7 PUSH2 0xBAB JUMP JUMPDEST SWAP1 POP PUSH2 0xD18 PUSH1 0xC0 DUP4 ADD DUP6 PUSH2 0xB9C JUMP JUMPDEST PUSH2 0xD25 PUSH1 0xE0 DUP4 ADD DUP5 PUSH2 0xBE4 JUMP JUMPDEST SWAP10 SWAP9 POP POP POP POP POP POP POP POP POP JUMP JUMPDEST PUSH1 0x0 PUSH2 0xD3C PUSH2 0xD4D JUMP JUMPDEST SWAP1 POP PUSH2 0xD48 DUP3 DUP3 PUSH2 0xEB6 JUMP JUMPDEST SWAP2 SWAP1 POP JUMP JUMPDEST PUSH1 0x0 PUSH1 0x40 MLOAD SWAP1 POP SWAP1 JUMP JUMPDEST PUSH1 0x0 PUSH8 0xFFFFFFFFFFFFFFFF DUP3 GT ISZERO PUSH2 0xD72 JUMPI PUSH2 0xD71 PUSH2 0xF74 JUMP JUMPDEST JUMPDEST PUSH2 0xD7B DUP3 PUSH2 0xFB7 JUMP JUMPDEST SWAP1 POP PUSH1 0x20 DUP2 ADD SWAP1 POP SWAP2 SWAP1 POP JUMP JUMPDEST PUSH1 0x0 DUP2 MLOAD SWAP1 POP SWAP2 SWAP1 POP JUMP JUMPDEST PUSH1 0x0 DUP3 DUP3 MSTORE PUSH1 0x20 DUP3 ADD SWAP1 POP SWAP3 SWAP2 POP POP JUMP JUMPDEST PUSH1 0x0 PUSH2 0xDAF DUP3 PUSH2 0xE38 JUMP JUMPDEST SWAP2 POP PUSH2 0xDBA DUP4 PUSH2 0xE38 JUMP JUMPDEST SWAP3 POP DUP3 PUSH32 0xFFFFFFFFFFFFFFFFFFFFFFFFFFFFFFFFFFFFFFFFFFFFFFFFFFFFFFFFFFFFFFFF SUB DUP3 GT ISZERO PUSH2 0xDEF JUMPI PUSH2 0xDEE PUSH2 0xEE7 JUMP JUMPDEST JUMPDEST DUP3 DUP3 ADD SWAP1 POP SWAP3 SWAP2 POP POP JUMP JUMPDEST PUSH1 0x0 PUSH2 0xE05 DUP3 PUSH2 0xE18 JUMP JUMPDEST SWAP1 POP SWAP2 SWAP1 POP JUMP JUMPDEST PUSH1 0x0 DUP2 ISZERO ISZERO SWAP1 POP SWAP2 SWAP1 POP JUMP JUMPDEST PUSH1 0x0 PUSH20 0xFFFFFFFFFFFFFFFFFFFFFFFFFFFFFFFFFFFFFFFF DUP3 AND SWAP1 POP SWAP2 SWAP1 POP JUMP JUMPDEST PUSH1 0x0 DUP2 SWAP1 POP SWAP2 SWAP1 POP JUMP JUMPDEST DUP3 DUP2 DUP4 CALLDATACOPY PUSH1 0x0 DUP4 DUP4 ADD MSTORE POP POP POP JUMP JUMPDEST PUSH1 0x0 JUMPDEST DUP4 DUP2 LT ISZERO PUSH2 0xE6F JUMPI DUP1 DUP3 ADD MLOAD DUP2 DUP5 ADD MSTORE PUSH1 0x20 DUP2 ADD SWAP1 POP PUSH2 0xE54 JUMP JUMPDEST DUP4 DUP2 GT ISZERO PUSH2 0xE7E JUMPI PUSH1 0x0 DUP5 DUP5 ADD MSTORE JUMPDEST POP POP POP POP JUMP JUMPDEST PUSH1 0x0 PUSH1 0x2 DUP3 DIV SWAP1 POP PUSH1 0x1 DUP3 AND DUP1 PUSH2 0xE9C JUMPI PUSH1 0x7F DUP3 AND SWAP2 POP JUMPDEST PUSH1 0x20 DUP3 LT DUP2 EQ ISZERO PUSH2 0xEB0 JUMPI PUSH2 0xEAF PUSH2 0xF16 JUMP JUMPDEST JUMPDEST POP SWAP2 SWAP1 POP JUMP JUMPDEST PUSH2 0xEBF DUP3 PUSH2 0xFB7 JUMP JUMPDEST DUP2 ADD DUP2 DUP2 LT PUSH8 0xFFFFFFFFFFFFFFFF DUP3 GT OR ISZERO PUSH2 0xEDE JUMPI PUSH2 0xEDD PUSH2 0xF74 JUMP JUMPDEST JUMPDEST DUP1 PUSH1 0x40 MSTORE POP POP POP JUMP JUMPDEST PUSH32 0x4E487B7100000000000000000000000000000000000000000000000000000000 PUSH1 0x0 MSTORE PUSH1 0x11 PUSH1 0x4 MSTORE PUSH1 0x24 PUSH1 0x0 REVERT JUMPDEST PUSH32 0x4E487B7100000000000000000000000000000000000000000000000000000000 PUSH1 0x0 MSTORE PUSH1 0x22 PUSH1 0x4 MSTORE PUSH1 0x24 PUSH1 0x0 REVERT JUMPDEST PUSH32 0x4E487B7100000000000000000000000000000000000000000000000000000000 PUSH1 0x0 MSTORE PUSH1 0x32 PUSH1 0x4 MSTORE PUSH1 0x24 PUSH1 0x0 REVERT JUMPDEST PUSH32 0x4E487B7100000000000000000000000000000000000000000000000000000000 PUSH1 0x0 MSTORE PUSH1 0x41 PUSH1 0x4 MSTORE PUSH1 0x24 PUSH1 0x0 REVERT JUMPDEST PUSH1 0x0 DUP1 REVERT JUMPDEST PUSH1 0x0 DUP1 REVERT JUMPDEST PUSH1 0x0 DUP1 REVERT JUMPDEST PUSH1 0x0 DUP1 REVERT JUMPDEST PUSH1 0x0 PUSH1 0x1F NOT PUSH1 0x1F DUP4 ADD AND SWAP1 POP SWAP2 SWAP1 POP JUMP JUMPDEST PUSH2 0xFD1 DUP2 PUSH2 0xDFA JUMP JUMPDEST DUP2 EQ PUSH2 0xFDC JUMPI PUSH1 0x0 DUP1 REVERT JUMPDEST POP JUMP JUMPDEST PUSH2 0xFE8 DUP2 PUSH2 0xE38 JUMP JUMPDEST DUP2 EQ PUSH2 0xFF3 JUMPI PUSH1 0x0 DUP1 REVERT JUMPDEST POP JUMP INVALID LOG2 PUSH5 0x6970667358 0x22 SLT KECCAK256 SWAP14 0x27 SLOAD SWAP14 0xB8 0xC1 STOP 0xB2 DUP15 DUP3 0xCD RETURNDATASIZE PUSH8 0xFE284F3FBD892BCC SWAP2 SIGNEXTEND 0x25 CALL NUMBER STOP JUMPI 0xD4 STATICCALL STOP 0xD1 PUSH5 0x736F6C6343 STOP ADDMOD SMOD STOP CALLER "
				},
				"gasEstimates": {
					"creation": {
						"codeDepositCost": "828000",
						"executionCost": "864",
						"totalCost": "828864"
					},
					"external": {
						"addCarForRenting(string,address,uint256,string,uint256)": "infinite",
						"balanceReceived()": "2407",
						"cars(uint256)": "infinite",
						"getCarInfo(uint256)": "infinite",
						"getNumberOfCars()": "2467",
						"rentingACar(uint256)": "infinite"
					}
				},
				"methodIdentifiers": {
					"addCarForRenting(string,address,uint256,string,uint256)": "f750ef78",
					"balanceReceived()": "52a90c42",
					"cars(uint256)": "f7746e36",
					"getCarInfo(uint256)": "d01af8bc",
					"getNumberOfCars()": "b85ce4e9",
					"rentingACar(uint256)": "a9b8fbdc"
				}
			},
			"storageLayout": {
				"storage": [
					{
						"astId": 25,
						"contract": "contracts/CarRental.sol:CarRental",
						"label": "balanceReceived",
						"offset": 0,
						"slot": "0",
						"type": "t_uint256"
					},
					{
						"astId": 29,
						"contract": "contracts/CarRental.sol:CarRental",
						"label": "cars",
						"offset": 0,
						"slot": "1",
						"type": "t_array(t_struct(Car)18_storage)dyn_storage"
					}
				],
				"types": {
					"t_address": {
						"encoding": "inplace",
						"label": "address",
						"numberOfBytes": "20"
					},
					"t_array(t_struct(Car)18_storage)dyn_storage": {
						"base": "t_struct(Car)18_storage",
						"encoding": "dynamic_array",
						"label": "struct CarMaking.Car[]",
						"numberOfBytes": "32"
					},
					"t_bool": {
						"encoding": "inplace",
						"label": "bool",
						"numberOfBytes": "1"
					},
					"t_string_storage": {
						"encoding": "bytes",
						"label": "string",
						"numberOfBytes": "32"
					},
					"t_struct(Car)18_storage": {
						"encoding": "inplace",
						"label": "struct CarMaking.Car",
						"members": [
							{
								"astId": 3,
								"contract": "contracts/CarRental.sol:CarRental",
								"label": "carID",
								"offset": 0,
								"slot": "0",
								"type": "t_uint256"
							},
							{
								"astId": 5,
								"contract": "contracts/CarRental.sol:CarRental",
								"label": "model",
								"offset": 0,
								"slot": "1",
								"type": "t_string_storage"
							},
							{
								"astId": 7,
								"contract": "contracts/CarRental.sol:CarRental",
								"label": "customer",
								"offset": 0,
								"slot": "2",
								"type": "t_address"
							},
							{
								"astId": 9,
								"contract": "contracts/CarRental.sol:CarRental",
								"label": "owner",
								"offset": 0,
								"slot": "3",
								"type": "t_address"
							},
							{
								"astId": 11,
								"contract": "contracts/CarRental.sol:CarRental",
								"label": "year",
								"offset": 0,
								"slot": "4",
								"type": "t_uint256"
							},
							{
								"astId": 13,
								"contract": "contracts/CarRental.sol:CarRental",
								"label": "carLicense",
								"offset": 0,
								"slot": "5",
								"type": "t_string_storage"
							},
							{
								"astId": 15,
								"contract": "contracts/CarRental.sol:CarRental",
								"label": "isAvailable",
								"offset": 0,
								"slot": "6",
								"type": "t_bool"
							},
							{
								"astId": 17,
								"contract": "contracts/CarRental.sol:CarRental",
								"label": "price",
								"offset": 0,
								"slot": "7",
								"type": "t_uint256"
							}
						],
						"numberOfBytes": "256"
					},
					"t_uint256": {
						"encoding": "inplace",
						"label": "uint256",
						"numberOfBytes": "32"
					}
				}
			},
			"userdoc": {
				"kind": "user",
				"methods": {},
				"version": 1
			}
		}
	}
}