{
	"contracts/Car.sol": {
		"Car": {
			"abi": [
				{
					"inputs": [
						{
							"internalType": "uint256",
							"name": "id",
							"type": "uint256"
						},
						{
							"internalType": "string",
							"name": "name",
							"type": "string"
						},
						{
							"internalType": "bool",
							"name": "status",
							"type": "bool"
						}
					],
					"stateMutability": "nonpayable",
					"type": "constructor"
				},
				{
					"inputs": [],
					"name": "getID",
					"outputs": [
						{
							"internalType": "uint256",
							"name": "",
							"type": "uint256"
						}
					],
					"stateMutability": "nonpayable",
					"type": "function"
				},
				{
					"inputs": [
						{
							"internalType": "bool",
							"name": "newStatus",
							"type": "bool"
						}
					],
					"name": "setAvailability",
					"outputs": [],
					"stateMutability": "nonpayable",
					"type": "function"
				}
			],
			"devdoc": {
				"kind": "dev",
				"methods": {},
				"version": 1
			},
			"evm": {
				"assembly": "    /* \"contracts/Car.sol\":35:462  contract Car {\r... */\n  mstore(0x40, 0x80)\n    /* \"contracts/Car.sol\":125:274  constructor(uint id, string memory name, bool status) public {\r... */\n  callvalue\n  dup1\n  iszero\n  tag_1\n  jumpi\n  0x00\n  dup1\n  revert\ntag_1:\n  pop\n  mload(0x40)\n  sub(codesize, bytecodeSize)\n  dup1\n  bytecodeSize\n  dup4\n  codecopy\n  dup2\n  dup2\n  add\n  0x40\n  mstore\n  dup2\n  add\n  swap1\n  tag_2\n  swap2\n  swap1\n  tag_3\n  jump\t// in\ntag_2:\n    /* \"contracts/Car.sol\":207:209  id */\n  dup3\n    /* \"contracts/Car.sol\":199:204  carID */\n  0x00\n    /* \"contracts/Car.sol\":199:209  carID = id */\n  dup2\n  swap1\n  sstore\n  pop\n    /* \"contracts/Car.sol\":230:234  name */\n  dup2\n    /* \"contracts/Car.sol\":220:227  carName */\n  0x01\n    /* \"contracts/Car.sol\":220:234  carName = name */\n  swap1\n  dup1\n  mload\n  swap1\n  0x20\n  add\n  swap1\n  tag_6\n  swap3\n  swap2\n  swap1\n  tag_7\n  jump\t// in\ntag_6:\n  pop\n    /* \"contracts/Car.sol\":260:266  status */\n  dup1\n    /* \"contracts/Car.sol\":245:257  availability */\n  0x02\n  0x00\n    /* \"contracts/Car.sol\":245:266  availability = status */\n  0x0100\n  exp\n  dup2\n  sload\n  dup2\n  0xff\n  mul\n  not\n  and\n  swap1\n  dup4\n  iszero\n  iszero\n  mul\n  or\n  swap1\n  sstore\n  pop\n    /* \"contracts/Car.sol\":125:274  constructor(uint id, string memory name, bool status) public {\r... */\n  pop\n  pop\n  pop\n    /* \"contracts/Car.sol\":35:462  contract Car {\r... */\n  jump(tag_8)\ntag_7:\n  dup3\n  dup1\n  sload\n  tag_9\n  swap1\n  tag_10\n  jump\t// in\ntag_9:\n  swap1\n  0x00\n  mstore\n  keccak256(0x00, 0x20)\n  swap1\n  0x1f\n  add\n  0x20\n  swap1\n  div\n  dup2\n  add\n  swap3\n  dup3\n  tag_12\n  jumpi\n  0x00\n  dup6\n  sstore\n  jump(tag_11)\ntag_12:\n  dup3\n  0x1f\n  lt\n  tag_13\n  jumpi\n  dup1\n  mload\n  not(0xff)\n  and\n  dup4\n  dup1\n  add\n  or\n  dup6\n  sstore\n  jump(tag_11)\ntag_13:\n  dup3\n  dup1\n  add\n  0x01\n  add\n  dup6\n  sstore\n  dup3\n  iszero\n  tag_11\n  jumpi\n  swap2\n  dup3\n  add\ntag_14:\n  dup3\n  dup2\n  gt\n  iszero\n  tag_15\n  jumpi\n  dup3\n  mload\n  dup3\n  sstore\n  swap2\n  0x20\n  add\n  swap2\n  swap1\n  0x01\n  add\n  swap1\n  jump(tag_14)\ntag_15:\ntag_11:\n  pop\n  swap1\n  pop\n  tag_16\n  swap2\n  swap1\n  tag_17\n  jump\t// in\ntag_16:\n  pop\n  swap1\n  jump\t// out\ntag_17:\ntag_18:\n  dup1\n  dup3\n  gt\n  iszero\n  tag_19\n  jumpi\n  0x00\n  dup2\n  0x00\n  swap1\n  sstore\n  pop\n  0x01\n  add\n  jump(tag_18)\ntag_19:\n  pop\n  swap1\n  jump\t// out\n    /* \"#utility.yul\":7:428   */\ntag_21:\n    /* \"#utility.yul\":96:101   */\n  0x00\n    /* \"#utility.yul\":121:187   */\n  tag_23\n    /* \"#utility.yul\":137:186   */\n  tag_24\n    /* \"#utility.yul\":179:185   */\n  dup5\n    /* \"#utility.yul\":137:186   */\n  tag_25\n  jump\t// in\ntag_24:\n    /* \"#utility.yul\":121:187   */\n  tag_26\n  jump\t// in\ntag_23:\n    /* \"#utility.yul\":112:187   */\n  swap1\n  pop\n    /* \"#utility.yul\":210:216   */\n  dup3\n    /* \"#utility.yul\":203:208   */\n  dup2\n    /* \"#utility.yul\":196:217   */\n  mstore\n    /* \"#utility.yul\":248:252   */\n  0x20\n    /* \"#utility.yul\":241:246   */\n  dup2\n    /* \"#utility.yul\":237:253   */\n  add\n    /* \"#utility.yul\":286:289   */\n  dup5\n    /* \"#utility.yul\":277:283   */\n  dup5\n    /* \"#utility.yul\":272:275   */\n  dup5\n    /* \"#utility.yul\":268:284   */\n  add\n    /* \"#utility.yul\":265:290   */\n  gt\n    /* \"#utility.yul\":262:374   */\n  iszero\n  tag_27\n  jumpi\n    /* \"#utility.yul\":293:372   */\n  tag_28\n  tag_29\n  jump\t// in\ntag_28:\n    /* \"#utility.yul\":262:374   */\ntag_27:\n    /* \"#utility.yul\":383:422   */\n  tag_30\n    /* \"#utility.yul\":415:421   */\n  dup5\n    /* \"#utility.yul\":410:413   */\n  dup3\n    /* \"#utility.yul\":405:408   */\n  dup6\n    /* \"#utility.yul\":383:422   */\n  tag_31\n  jump\t// in\ntag_30:\n    /* \"#utility.yul\":102:428   */\n  pop\n    /* \"#utility.yul\":7:428   */\n  swap4\n  swap3\n  pop\n  pop\n  pop\n  jump\t// out\n    /* \"#utility.yul\":434:571   */\ntag_32:\n    /* \"#utility.yul\":488:493   */\n  0x00\n    /* \"#utility.yul\":519:525   */\n  dup2\n    /* \"#utility.yul\":513:526   */\n  mload\n    /* \"#utility.yul\":504:526   */\n  swap1\n  pop\n    /* \"#utility.yul\":535:565   */\n  tag_34\n    /* \"#utility.yul\":559:564   */\n  dup2\n    /* \"#utility.yul\":535:565   */\n  tag_35\n  jump\t// in\ntag_34:\n    /* \"#utility.yul\":434:571   */\n  swap3\n  swap2\n  pop\n  pop\n  jump\t// out\n    /* \"#utility.yul\":591:946   */\ntag_36:\n    /* \"#utility.yul\":658:663   */\n  0x00\n    /* \"#utility.yul\":707:710   */\n  dup3\n    /* \"#utility.yul\":700:704   */\n  0x1f\n    /* \"#utility.yul\":692:698   */\n  dup4\n    /* \"#utility.yul\":688:705   */\n  add\n    /* \"#utility.yul\":684:711   */\n  slt\n    /* \"#utility.yul\":674:796   */\n  tag_38\n  jumpi\n    /* \"#utility.yul\":715:794   */\n  tag_39\n  tag_40\n  jump\t// in\ntag_39:\n    /* \"#utility.yul\":674:796   */\ntag_38:\n    /* \"#utility.yul\":825:831   */\n  dup2\n    /* \"#utility.yul\":819:832   */\n  mload\n    /* \"#utility.yul\":850:940   */\n  tag_41\n    /* \"#utility.yul\":936:939   */\n  dup5\n    /* \"#utility.yul\":928:934   */\n  dup3\n    /* \"#utility.yul\":921:925   */\n  0x20\n    /* \"#utility.yul\":913:919   */\n  dup7\n    /* \"#utility.yul\":909:926   */\n  add\n    /* \"#utility.yul\":850:940   */\n  tag_21\n  jump\t// in\ntag_41:\n    /* \"#utility.yul\":841:940   */\n  swap2\n  pop\n    /* \"#utility.yul\":664:946   */\n  pop\n    /* \"#utility.yul\":591:946   */\n  swap3\n  swap2\n  pop\n  pop\n  jump\t// out\n    /* \"#utility.yul\":952:1095   */\ntag_42:\n    /* \"#utility.yul\":1009:1014   */\n  0x00\n    /* \"#utility.yul\":1040:1046   */\n  dup2\n    /* \"#utility.yul\":1034:1047   */\n  mload\n    /* \"#utility.yul\":1025:1047   */\n  swap1\n  pop\n    /* \"#utility.yul\":1056:1089   */\n  tag_44\n    /* \"#utility.yul\":1083:1088   */\n  dup2\n    /* \"#utility.yul\":1056:1089   */\n  tag_45\n  jump\t// in\ntag_44:\n    /* \"#utility.yul\":952:1095   */\n  swap3\n  swap2\n  pop\n  pop\n  jump\t// out\n    /* \"#utility.yul\":1101:1931   */\ntag_3:\n    /* \"#utility.yul\":1196:1202   */\n  0x00\n    /* \"#utility.yul\":1204:1210   */\n  dup1\n    /* \"#utility.yul\":1212:1218   */\n  0x00\n    /* \"#utility.yul\":1261:1263   */\n  0x60\n    /* \"#utility.yul\":1249:1258   */\n  dup5\n    /* \"#utility.yul\":1240:1247   */\n  dup7\n    /* \"#utility.yul\":1236:1259   */\n  sub\n    /* \"#utility.yul\":1232:1264   */\n  slt\n    /* \"#utility.yul\":1229:1348   */\n  iszero\n  tag_47\n  jumpi\n    /* \"#utility.yul\":1267:1346   */\n  tag_48\n  tag_49\n  jump\t// in\ntag_48:\n    /* \"#utility.yul\":1229:1348   */\ntag_47:\n    /* \"#utility.yul\":1387:1388   */\n  0x00\n    /* \"#utility.yul\":1412:1476   */\n  tag_50\n    /* \"#utility.yul\":1468:1475   */\n  dup7\n    /* \"#utility.yul\":1459:1465   */\n  dup3\n    /* \"#utility.yul\":1448:1457   */\n  dup8\n    /* \"#utility.yul\":1444:1466   */\n  add\n    /* \"#utility.yul\":1412:1476   */\n  tag_42\n  jump\t// in\ntag_50:\n    /* \"#utility.yul\":1402:1476   */\n  swap4\n  pop\n    /* \"#utility.yul\":1358:1486   */\n  pop\n    /* \"#utility.yul\":1546:1548   */\n  0x20\n    /* \"#utility.yul\":1535:1544   */\n  dup5\n    /* \"#utility.yul\":1531:1549   */\n  add\n    /* \"#utility.yul\":1525:1550   */\n  mload\n    /* \"#utility.yul\":1577:1595   */\n  0xffffffffffffffff\n    /* \"#utility.yul\":1569:1575   */\n  dup2\n    /* \"#utility.yul\":1566:1596   */\n  gt\n    /* \"#utility.yul\":1563:1680   */\n  iszero\n  tag_51\n  jumpi\n    /* \"#utility.yul\":1599:1678   */\n  tag_52\n  tag_53\n  jump\t// in\ntag_52:\n    /* \"#utility.yul\":1563:1680   */\ntag_51:\n    /* \"#utility.yul\":1704:1778   */\n  tag_54\n    /* \"#utility.yul\":1770:1777   */\n  dup7\n    /* \"#utility.yul\":1761:1767   */\n  dup3\n    /* \"#utility.yul\":1750:1759   */\n  dup8\n    /* \"#utility.yul\":1746:1768   */\n  add\n    /* \"#utility.yul\":1704:1778   */\n  tag_36\n  jump\t// in\ntag_54:\n    /* \"#utility.yul\":1694:1778   */\n  swap3\n  pop\n    /* \"#utility.yul\":1496:1788   */\n  pop\n    /* \"#utility.yul\":1827:1829   */\n  0x40\n    /* \"#utility.yul\":1853:1914   */\n  tag_55\n    /* \"#utility.yul\":1906:1913   */\n  dup7\n    /* \"#utility.yul\":1897:1903   */\n  dup3\n    /* \"#utility.yul\":1886:1895   */\n  dup8\n    /* \"#utility.yul\":1882:1904   */\n  add\n    /* \"#utility.yul\":1853:1914   */\n  tag_32\n  jump\t// in\ntag_55:\n    /* \"#utility.yul\":1843:1914   */\n  swap2\n  pop\n    /* \"#utility.yul\":1798:1924   */\n  pop\n    /* \"#utility.yul\":1101:1931   */\n  swap3\n  pop\n  swap3\n  pop\n  swap3\n  jump\t// out\n    /* \"#utility.yul\":1937:2066   */\ntag_26:\n    /* \"#utility.yul\":1971:1977   */\n  0x00\n    /* \"#utility.yul\":1998:2018   */\n  tag_57\n  tag_58\n  jump\t// in\ntag_57:\n    /* \"#utility.yul\":1988:2018   */\n  swap1\n  pop\n    /* \"#utility.yul\":2027:2060   */\n  tag_59\n    /* \"#utility.yul\":2055:2059   */\n  dup3\n    /* \"#utility.yul\":2047:2053   */\n  dup3\n    /* \"#utility.yul\":2027:2060   */\n  tag_60\n  jump\t// in\ntag_59:\n    /* \"#utility.yul\":1937:2066   */\n  swap2\n  swap1\n  pop\n  jump\t// out\n    /* \"#utility.yul\":2072:2147   */\ntag_58:\n    /* \"#utility.yul\":2105:2111   */\n  0x00\n    /* \"#utility.yul\":2138:2140   */\n  0x40\n    /* \"#utility.yul\":2132:2141   */\n  mload\n    /* \"#utility.yul\":2122:2141   */\n  swap1\n  pop\n    /* \"#utility.yul\":2072:2147   */\n  swap1\n  jump\t// out\n    /* \"#utility.yul\":2153:2461   */\ntag_25:\n    /* \"#utility.yul\":2215:2219   */\n  0x00\n    /* \"#utility.yul\":2305:2323   */\n  0xffffffffffffffff\n    /* \"#utility.yul\":2297:2303   */\n  dup3\n    /* \"#utility.yul\":2294:2324   */\n  gt\n    /* \"#utility.yul\":2291:2347   */\n  iszero\n  tag_63\n  jumpi\n    /* \"#utility.yul\":2327:2345   */\n  tag_64\n  tag_65\n  jump\t// in\ntag_64:\n    /* \"#utility.yul\":2291:2347   */\ntag_63:\n    /* \"#utility.yul\":2365:2394   */\n  tag_66\n    /* \"#utility.yul\":2387:2393   */\n  dup3\n    /* \"#utility.yul\":2365:2394   */\n  tag_67\n  jump\t// in\ntag_66:\n    /* \"#utility.yul\":2357:2394   */\n  swap1\n  pop\n    /* \"#utility.yul\":2449:2453   */\n  0x20\n    /* \"#utility.yul\":2443:2447   */\n  dup2\n    /* \"#utility.yul\":2439:2454   */\n  add\n    /* \"#utility.yul\":2431:2454   */\n  swap1\n  pop\n    /* \"#utility.yul\":2153:2461   */\n  swap2\n  swap1\n  pop\n  jump\t// out\n    /* \"#utility.yul\":2467:2557   */\ntag_68:\n    /* \"#utility.yul\":2501:2508   */\n  0x00\n    /* \"#utility.yul\":2544:2549   */\n  dup2\n    /* \"#utility.yul\":2537:2550   */\n  iszero\n    /* \"#utility.yul\":2530:2551   */\n  iszero\n    /* \"#utility.yul\":2519:2551   */\n  swap1\n  pop\n    /* \"#utility.yul\":2467:2557   */\n  swap2\n  swap1\n  pop\n  jump\t// out\n    /* \"#utility.yul\":2563:2640   */\ntag_70:\n    /* \"#utility.yul\":2600:2607   */\n  0x00\n    /* \"#utility.yul\":2629:2634   */\n  dup2\n    /* \"#utility.yul\":2618:2634   */\n  swap1\n  pop\n    /* \"#utility.yul\":2563:2640   */\n  swap2\n  swap1\n  pop\n  jump\t// out\n    /* \"#utility.yul\":2646:2953   */\ntag_31:\n    /* \"#utility.yul\":2714:2715   */\n  0x00\n    /* \"#utility.yul\":2724:2837   */\ntag_73:\n    /* \"#utility.yul\":2738:2744   */\n  dup4\n    /* \"#utility.yul\":2735:2736   */\n  dup2\n    /* \"#utility.yul\":2732:2745   */\n  lt\n    /* \"#utility.yul\":2724:2837   */\n  iszero\n  tag_75\n  jumpi\n    /* \"#utility.yul\":2823:2824   */\n  dup1\n    /* \"#utility.yul\":2818:2821   */\n  dup3\n    /* \"#utility.yul\":2814:2825   */\n  add\n    /* \"#utility.yul\":2808:2826   */\n  mload\n    /* \"#utility.yul\":2804:2805   */\n  dup2\n    /* \"#utility.yul\":2799:2802   */\n  dup5\n    /* \"#utility.yul\":2795:2806   */\n  add\n    /* \"#utility.yul\":2788:2827   */\n  mstore\n    /* \"#utility.yul\":2760:2762   */\n  0x20\n    /* \"#utility.yul\":2757:2758   */\n  dup2\n    /* \"#utility.yul\":2753:2763   */\n  add\n    /* \"#utility.yul\":2748:2763   */\n  swap1\n  pop\n    /* \"#utility.yul\":2724:2837   */\n  jump(tag_73)\ntag_75:\n    /* \"#utility.yul\":2855:2861   */\n  dup4\n    /* \"#utility.yul\":2852:2853   */\n  dup2\n    /* \"#utility.yul\":2849:2862   */\n  gt\n    /* \"#utility.yul\":2846:2947   */\n  iszero\n  tag_76\n  jumpi\n    /* \"#utility.yul\":2935:2936   */\n  0x00\n    /* \"#utility.yul\":2926:2932   */\n  dup5\n    /* \"#utility.yul\":2921:2924   */\n  dup5\n    /* \"#utility.yul\":2917:2933   */\n  add\n    /* \"#utility.yul\":2910:2937   */\n  mstore\n    /* \"#utility.yul\":2846:2947   */\ntag_76:\n    /* \"#utility.yul\":2695:2953   */\n  pop\n    /* \"#utility.yul\":2646:2953   */\n  pop\n  pop\n  pop\n  jump\t// out\n    /* \"#utility.yul\":2959:3279   */\ntag_10:\n    /* \"#utility.yul\":3003:3009   */\n  0x00\n    /* \"#utility.yul\":3040:3041   */\n  0x02\n    /* \"#utility.yul\":3034:3038   */\n  dup3\n    /* \"#utility.yul\":3030:3042   */\n  div\n    /* \"#utility.yul\":3020:3042   */\n  swap1\n  pop\n    /* \"#utility.yul\":3087:3088   */\n  0x01\n    /* \"#utility.yul\":3081:3085   */\n  dup3\n    /* \"#utility.yul\":3077:3089   */\n  and\n    /* \"#utility.yul\":3108:3126   */\n  dup1\n    /* \"#utility.yul\":3098:3179   */\n  tag_78\n  jumpi\n    /* \"#utility.yul\":3164:3168   */\n  0x7f\n    /* \"#utility.yul\":3156:3162   */\n  dup3\n    /* \"#utility.yul\":3152:3169   */\n  and\n    /* \"#utility.yul\":3142:3169   */\n  swap2\n  pop\n    /* \"#utility.yul\":3098:3179   */\ntag_78:\n    /* \"#utility.yul\":3226:3228   */\n  0x20\n    /* \"#utility.yul\":3218:3224   */\n  dup3\n    /* \"#utility.yul\":3215:3229   */\n  lt\n    /* \"#utility.yul\":3195:3213   */\n  dup2\n    /* \"#utility.yul\":3192:3230   */\n  eq\n    /* \"#utility.yul\":3189:3273   */\n  iszero\n  tag_79\n  jumpi\n    /* \"#utility.yul\":3245:3263   */\n  tag_80\n  tag_81\n  jump\t// in\ntag_80:\n    /* \"#utility.yul\":3189:3273   */\ntag_79:\n    /* \"#utility.yul\":3010:3279   */\n  pop\n    /* \"#utility.yul\":2959:3279   */\n  swap2\n  swap1\n  pop\n  jump\t// out\n    /* \"#utility.yul\":3285:3566   */\ntag_60:\n    /* \"#utility.yul\":3368:3395   */\n  tag_83\n    /* \"#utility.yul\":3390:3394   */\n  dup3\n    /* \"#utility.yul\":3368:3395   */\n  tag_67\n  jump\t// in\ntag_83:\n    /* \"#utility.yul\":3360:3366   */\n  dup2\n    /* \"#utility.yul\":3356:3396   */\n  add\n    /* \"#utility.yul\":3498:3504   */\n  dup2\n    /* \"#utility.yul\":3486:3496   */\n  dup2\n    /* \"#utility.yul\":3483:3505   */\n  lt\n    /* \"#utility.yul\":3462:3480   */\n  0xffffffffffffffff\n    /* \"#utility.yul\":3450:3460   */\n  dup3\n    /* \"#utility.yul\":3447:3481   */\n  gt\n    /* \"#utility.yul\":3444:3506   */\n  or\n    /* \"#utility.yul\":3441:3529   */\n  iszero\n  tag_84\n  jumpi\n    /* \"#utility.yul\":3509:3527   */\n  tag_85\n  tag_65\n  jump\t// in\ntag_85:\n    /* \"#utility.yul\":3441:3529   */\ntag_84:\n    /* \"#utility.yul\":3549:3559   */\n  dup1\n    /* \"#utility.yul\":3545:3547   */\n  0x40\n    /* \"#utility.yul\":3538:3560   */\n  mstore\n    /* \"#utility.yul\":3328:3566   */\n  pop\n    /* \"#utility.yul\":3285:3566   */\n  pop\n  pop\n  jump\t// out\n    /* \"#utility.yul\":3572:3752   */\ntag_81:\n    /* \"#utility.yul\":3620:3697   */\n  0x4e487b7100000000000000000000000000000000000000000000000000000000\n    /* \"#utility.yul\":3617:3618   */\n  0x00\n    /* \"#utility.yul\":3610:3698   */\n  mstore\n    /* \"#utility.yul\":3717:3721   */\n  0x22\n    /* \"#utility.yul\":3714:3715   */\n  0x04\n    /* \"#utility.yul\":3707:3722   */\n  mstore\n    /* \"#utility.yul\":3741:3745   */\n  0x24\n    /* \"#utility.yul\":3738:3739   */\n  0x00\n    /* \"#utility.yul\":3731:3746   */\n  revert\n    /* \"#utility.yul\":3758:3938   */\ntag_65:\n    /* \"#utility.yul\":3806:3883   */\n  0x4e487b7100000000000000000000000000000000000000000000000000000000\n    /* \"#utility.yul\":3803:3804   */\n  0x00\n    /* \"#utility.yul\":3796:3884   */\n  mstore\n    /* \"#utility.yul\":3903:3907   */\n  0x41\n    /* \"#utility.yul\":3900:3901   */\n  0x04\n    /* \"#utility.yul\":3893:3908   */\n  mstore\n    /* \"#utility.yul\":3927:3931   */\n  0x24\n    /* \"#utility.yul\":3924:3925   */\n  0x00\n    /* \"#utility.yul\":3917:3932   */\n  revert\n    /* \"#utility.yul\":3944:4061   */\ntag_40:\n    /* \"#utility.yul\":4053:4054   */\n  0x00\n    /* \"#utility.yul\":4050:4051   */\n  dup1\n    /* \"#utility.yul\":4043:4055   */\n  revert\n    /* \"#utility.yul\":4067:4184   */\ntag_29:\n    /* \"#utility.yul\":4176:4177   */\n  0x00\n    /* \"#utility.yul\":4173:4174   */\n  dup1\n    /* \"#utility.yul\":4166:4178   */\n  revert\n    /* \"#utility.yul\":4190:4307   */\ntag_53:\n    /* \"#utility.yul\":4299:4300   */\n  0x00\n    /* \"#utility.yul\":4296:4297   */\n  dup1\n    /* \"#utility.yul\":4289:4301   */\n  revert\n    /* \"#utility.yul\":4313:4430   */\ntag_49:\n    /* \"#utility.yul\":4422:4423   */\n  0x00\n    /* \"#utility.yul\":4419:4420   */\n  dup1\n    /* \"#utility.yul\":4412:4424   */\n  revert\n    /* \"#utility.yul\":4436:4538   */\ntag_67:\n    /* \"#utility.yul\":4477:4483   */\n  0x00\n    /* \"#utility.yul\":4528:4530   */\n  0x1f\n    /* \"#utility.yul\":4524:4531   */\n  not\n    /* \"#utility.yul\":4519:4521   */\n  0x1f\n    /* \"#utility.yul\":4512:4517   */\n  dup4\n    /* \"#utility.yul\":4508:4522   */\n  add\n    /* \"#utility.yul\":4504:4532   */\n  and\n    /* \"#utility.yul\":4494:4532   */\n  swap1\n  pop\n    /* \"#utility.yul\":4436:4538   */\n  swap2\n  swap1\n  pop\n  jump\t// out\n    /* \"#utility.yul\":4544:4660   */\ntag_35:\n    /* \"#utility.yul\":4614:4635   */\n  tag_94\n    /* \"#utility.yul\":4629:4634   */\n  dup2\n    /* \"#utility.yul\":4614:4635   */\n  tag_68\n  jump\t// in\ntag_94:\n    /* \"#utility.yul\":4607:4612   */\n  dup2\n    /* \"#utility.yul\":4604:4636   */\n  eq\n    /* \"#utility.yul\":4594:4654   */\n  tag_95\n  jumpi\n    /* \"#utility.yul\":4650:4651   */\n  0x00\n    /* \"#utility.yul\":4647:4648   */\n  dup1\n    /* \"#utility.yul\":4640:4652   */\n  revert\n    /* \"#utility.yul\":4594:4654   */\ntag_95:\n    /* \"#utility.yul\":4544:4660   */\n  pop\n  jump\t// out\n    /* \"#utility.yul\":4666:4788   */\ntag_45:\n    /* \"#utility.yul\":4739:4763   */\n  tag_97\n    /* \"#utility.yul\":4757:4762   */\n  dup2\n    /* \"#utility.yul\":4739:4763   */\n  tag_70\n  jump\t// in\ntag_97:\n    /* \"#utility.yul\":4732:4737   */\n  dup2\n    /* \"#utility.yul\":4729:4764   */\n  eq\n    /* \"#utility.yul\":4719:4782   */\n  tag_98\n  jumpi\n    /* \"#utility.yul\":4778:4779   */\n  0x00\n    /* \"#utility.yul\":4775:4776   */\n  dup1\n    /* \"#utility.yul\":4768:4780   */\n  revert\n    /* \"#utility.yul\":4719:4782   */\ntag_98:\n    /* \"#utility.yul\":4666:4788   */\n  pop\n  jump\t// out\n    /* \"contracts/Car.sol\":35:462  contract Car {\r... */\ntag_8:\n  dataSize(sub_0)\n  dup1\n  dataOffset(sub_0)\n  0x00\n  codecopy\n  0x00\n  return\nstop\n\nsub_0: assembly {\n        /* \"contracts/Car.sol\":35:462  contract Car {\r... */\n      mstore(0x40, 0x80)\n      callvalue\n      dup1\n      iszero\n      tag_1\n      jumpi\n      0x00\n      dup1\n      revert\n    tag_1:\n      pop\n      jumpi(tag_2, lt(calldatasize, 0x04))\n      shr(0xe0, calldataload(0x00))\n      dup1\n      0x26a18375\n      eq\n      tag_3\n      jumpi\n      dup1\n      0xab9dbd07\n      eq\n      tag_4\n      jumpi\n    tag_2:\n      0x00\n      dup1\n      revert\n        /* \"contracts/Car.sol\":364:455  function setAvailability(bool newStatus) public {\r... */\n    tag_3:\n      tag_5\n      0x04\n      dup1\n      calldatasize\n      sub\n      dup2\n      add\n      swap1\n      tag_6\n      swap2\n      swap1\n      tag_7\n      jump\t// in\n    tag_6:\n      tag_8\n      jump\t// in\n    tag_5:\n      stop\n        /* \"contracts/Car.sol\":282:352  function getID() public  returns(uint) {\r... */\n    tag_4:\n      tag_9\n      tag_10\n      jump\t// in\n    tag_9:\n      mload(0x40)\n      tag_11\n      swap2\n      swap1\n      tag_12\n      jump\t// in\n    tag_11:\n      mload(0x40)\n      dup1\n      swap2\n      sub\n      swap1\n      return\n        /* \"contracts/Car.sol\":364:455  function setAvailability(bool newStatus) public {\r... */\n    tag_8:\n        /* \"contracts/Car.sol\":438:447  newStatus */\n      dup1\n        /* \"contracts/Car.sol\":423:435  availability */\n      0x02\n      0x00\n        /* \"contracts/Car.sol\":423:447  availability = newStatus */\n      0x0100\n      exp\n      dup2\n      sload\n      dup2\n      0xff\n      mul\n      not\n      and\n      swap1\n      dup4\n      iszero\n      iszero\n      mul\n      or\n      swap1\n      sstore\n      pop\n        /* \"contracts/Car.sol\":364:455  function setAvailability(bool newStatus) public {\r... */\n      pop\n      jump\t// out\n        /* \"contracts/Car.sol\":282:352  function getID() public  returns(uint) {\r... */\n    tag_10:\n        /* \"contracts/Car.sol\":315:319  uint */\n      0x00\n        /* \"contracts/Car.sol\":339:344  carID */\n      dup1\n      sload\n        /* \"contracts/Car.sol\":332:344  return carID */\n      swap1\n      pop\n        /* \"contracts/Car.sol\":282:352  function getID() public  returns(uint) {\r... */\n      swap1\n      jump\t// out\n        /* \"#utility.yul\":7:140   */\n    tag_16:\n        /* \"#utility.yul\":50:55   */\n      0x00\n        /* \"#utility.yul\":88:94   */\n      dup2\n        /* \"#utility.yul\":75:95   */\n      calldataload\n        /* \"#utility.yul\":66:95   */\n      swap1\n      pop\n        /* \"#utility.yul\":104:134   */\n      tag_18\n        /* \"#utility.yul\":128:133   */\n      dup2\n        /* \"#utility.yul\":104:134   */\n      tag_19\n      jump\t// in\n    tag_18:\n        /* \"#utility.yul\":7:140   */\n      swap3\n      swap2\n      pop\n      pop\n      jump\t// out\n        /* \"#utility.yul\":146:469   */\n    tag_7:\n        /* \"#utility.yul\":202:208   */\n      0x00\n        /* \"#utility.yul\":251:253   */\n      0x20\n        /* \"#utility.yul\":239:248   */\n      dup3\n        /* \"#utility.yul\":230:237   */\n      dup5\n        /* \"#utility.yul\":226:249   */\n      sub\n        /* \"#utility.yul\":222:254   */\n      slt\n        /* \"#utility.yul\":219:338   */\n      iszero\n      tag_21\n      jumpi\n        /* \"#utility.yul\":257:336   */\n      tag_22\n      tag_23\n      jump\t// in\n    tag_22:\n        /* \"#utility.yul\":219:338   */\n    tag_21:\n        /* \"#utility.yul\":377:378   */\n      0x00\n        /* \"#utility.yul\":402:452   */\n      tag_24\n        /* \"#utility.yul\":444:451   */\n      dup5\n        /* \"#utility.yul\":435:441   */\n      dup3\n        /* \"#utility.yul\":424:433   */\n      dup6\n        /* \"#utility.yul\":420:442   */\n      add\n        /* \"#utility.yul\":402:452   */\n      tag_16\n      jump\t// in\n    tag_24:\n        /* \"#utility.yul\":392:452   */\n      swap2\n      pop\n        /* \"#utility.yul\":348:462   */\n      pop\n        /* \"#utility.yul\":146:469   */\n      swap3\n      swap2\n      pop\n      pop\n      jump\t// out\n        /* \"#utility.yul\":475:593   */\n    tag_25:\n        /* \"#utility.yul\":562:586   */\n      tag_27\n        /* \"#utility.yul\":580:585   */\n      dup2\n        /* \"#utility.yul\":562:586   */\n      tag_28\n      jump\t// in\n    tag_27:\n        /* \"#utility.yul\":557:560   */\n      dup3\n        /* \"#utility.yul\":550:587   */\n      mstore\n        /* \"#utility.yul\":475:593   */\n      pop\n      pop\n      jump\t// out\n        /* \"#utility.yul\":599:821   */\n    tag_12:\n        /* \"#utility.yul\":692:696   */\n      0x00\n        /* \"#utility.yul\":730:732   */\n      0x20\n        /* \"#utility.yul\":719:728   */\n      dup3\n        /* \"#utility.yul\":715:733   */\n      add\n        /* \"#utility.yul\":707:733   */\n      swap1\n      pop\n        /* \"#utility.yul\":743:814   */\n      tag_30\n        /* \"#utility.yul\":811:812   */\n      0x00\n        /* \"#utility.yul\":800:809   */\n      dup4\n        /* \"#utility.yul\":796:813   */\n      add\n        /* \"#utility.yul\":787:793   */\n      dup5\n        /* \"#utility.yul\":743:814   */\n      tag_25\n      jump\t// in\n    tag_30:\n        /* \"#utility.yul\":599:821   */\n      swap3\n      swap2\n      pop\n      pop\n      jump\t// out\n        /* \"#utility.yul\":908:998   */\n    tag_33:\n        /* \"#utility.yul\":942:949   */\n      0x00\n        /* \"#utility.yul\":985:990   */\n      dup2\n        /* \"#utility.yul\":978:991   */\n      iszero\n        /* \"#utility.yul\":971:992   */\n      iszero\n        /* \"#utility.yul\":960:992   */\n      swap1\n      pop\n        /* \"#utility.yul\":908:998   */\n      swap2\n      swap1\n      pop\n      jump\t// out\n        /* \"#utility.yul\":1004:1081   */\n    tag_28:\n        /* \"#utility.yul\":1041:1048   */\n      0x00\n        /* \"#utility.yul\":1070:1075   */\n      dup2\n        /* \"#utility.yul\":1059:1075   */\n      swap1\n      pop\n        /* \"#utility.yul\":1004:1081   */\n      swap2\n      swap1\n      pop\n      jump\t// out\n        /* \"#utility.yul\":1210:1327   */\n    tag_23:\n        /* \"#utility.yul\":1319:1320   */\n      0x00\n        /* \"#utility.yul\":1316:1317   */\n      dup1\n        /* \"#utility.yul\":1309:1321   */\n      revert\n        /* \"#utility.yul\":1333:1449   */\n    tag_19:\n        /* \"#utility.yul\":1403:1424   */\n      tag_40\n        /* \"#utility.yul\":1418:1423   */\n      dup2\n        /* \"#utility.yul\":1403:1424   */\n      tag_33\n      jump\t// in\n    tag_40:\n        /* \"#utility.yul\":1396:1401   */\n      dup2\n        /* \"#utility.yul\":1393:1425   */\n      eq\n        /* \"#utility.yul\":1383:1443   */\n      tag_41\n      jumpi\n        /* \"#utility.yul\":1439:1440   */\n      0x00\n        /* \"#utility.yul\":1436:1437   */\n      dup1\n        /* \"#utility.yul\":1429:1441   */\n      revert\n        /* \"#utility.yul\":1383:1443   */\n    tag_41:\n        /* \"#utility.yul\":1333:1449   */\n      pop\n      jump\t// out\n\n    auxdata: 0xa26469706673582212206c8458338de5d6767ad2c5c07da991f9eb29e6cb0ed9e756bc9d763dfc8cf9d564736f6c63430008070033\n}\n",
				"bytecode": {
					"linkReferences": {},
					"object": "608060405234801561001057600080fd5b5060405161054f38038061054f833981810160405281019061003291906101af565b82600081905550816001908051906020019061004f929190610072565b5080600260006101000a81548160ff0219169083151502179055505050506103d1565b82805461007e906102bd565b90600052602060002090601f0160209004810192826100a057600085556100e7565b82601f106100b957805160ff19168380011785556100e7565b828001600101855582156100e7579182015b828111156100e65782518255916020019190600101906100cb565b5b5090506100f491906100f8565b5090565b5b808211156101115760008160009055506001016100f9565b5090565b600061012861012384610243565b61021e565b90508281526020810184848401111561014457610143610383565b5b61014f84828561028a565b509392505050565b600081519050610166816103a3565b92915050565b600082601f8301126101815761018061037e565b5b8151610191848260208601610115565b91505092915050565b6000815190506101a9816103ba565b92915050565b6000806000606084860312156101c8576101c761038d565b5b60006101d68682870161019a565b935050602084015167ffffffffffffffff8111156101f7576101f6610388565b5b6102038682870161016c565b925050604061021486828701610157565b9150509250925092565b6000610228610239565b905061023482826102ef565b919050565b6000604051905090565b600067ffffffffffffffff82111561025e5761025d61034f565b5b61026782610392565b9050602081019050919050565b60008115159050919050565b6000819050919050565b60005b838110156102a857808201518184015260208101905061028d565b838111156102b7576000848401525b50505050565b600060028204905060018216806102d557607f821691505b602082108114156102e9576102e8610320565b5b50919050565b6102f882610392565b810181811067ffffffffffffffff821117156103175761031661034f565b5b80604052505050565b7f4e487b7100000000000000000000000000000000000000000000000000000000600052602260045260246000fd5b7f4e487b7100000000000000000000000000000000000000000000000000000000600052604160045260246000fd5b600080fd5b600080fd5b600080fd5b600080fd5b6000601f19601f8301169050919050565b6103ac81610274565b81146103b757600080fd5b50565b6103c381610280565b81146103ce57600080fd5b50565b61016f806103e06000396000f3fe608060405234801561001057600080fd5b50600436106100365760003560e01c806326a183751461003b578063ab9dbd0714610057575b600080fd5b610055600480360381019061005091906100b0565b610075565b005b61005f610092565b60405161006c91906100ec565b60405180910390f35b80600260006101000a81548160ff02191690831515021790555050565b60008054905090565b6000813590506100aa81610122565b92915050565b6000602082840312156100c6576100c561011d565b5b60006100d48482850161009b565b91505092915050565b6100e681610113565b82525050565b600060208201905061010160008301846100dd565b92915050565b60008115159050919050565b6000819050919050565b600080fd5b61012b81610107565b811461013657600080fd5b5056fea26469706673582212206c8458338de5d6767ad2c5c07da991f9eb29e6cb0ed9e756bc9d763dfc8cf9d564736f6c63430008070033",
					"opcodes": "PUSH1 0x80 PUSH1 0x40 MSTORE CALLVALUE DUP1 ISZERO PUSH2 0x10 JUMPI PUSH1 0x0 DUP1 REVERT JUMPDEST POP PUSH1 0x40 MLOAD PUSH2 0x54F CODESIZE SUB DUP1 PUSH2 0x54F DUP4 CODECOPY DUP2 DUP2 ADD PUSH1 0x40 MSTORE DUP2 ADD SWAP1 PUSH2 0x32 SWAP2 SWAP1 PUSH2 0x1AF JUMP JUMPDEST DUP3 PUSH1 0x0 DUP2 SWAP1 SSTORE POP DUP2 PUSH1 0x1 SWAP1 DUP1 MLOAD SWAP1 PUSH1 0x20 ADD SWAP1 PUSH2 0x4F SWAP3 SWAP2 SWAP1 PUSH2 0x72 JUMP JUMPDEST POP DUP1 PUSH1 0x2 PUSH1 0x0 PUSH2 0x100 EXP DUP2 SLOAD DUP2 PUSH1 0xFF MUL NOT AND SWAP1 DUP4 ISZERO ISZERO MUL OR SWAP1 SSTORE POP POP POP POP PUSH2 0x3D1 JUMP JUMPDEST DUP3 DUP1 SLOAD PUSH2 0x7E SWAP1 PUSH2 0x2BD JUMP JUMPDEST SWAP1 PUSH1 0x0 MSTORE PUSH1 0x20 PUSH1 0x0 KECCAK256 SWAP1 PUSH1 0x1F ADD PUSH1 0x20 SWAP1 DIV DUP2 ADD SWAP3 DUP3 PUSH2 0xA0 JUMPI PUSH1 0x0 DUP6 SSTORE PUSH2 0xE7 JUMP JUMPDEST DUP3 PUSH1 0x1F LT PUSH2 0xB9 JUMPI DUP1 MLOAD PUSH1 0xFF NOT AND DUP4 DUP1 ADD OR DUP6 SSTORE PUSH2 0xE7 JUMP JUMPDEST DUP3 DUP1 ADD PUSH1 0x1 ADD DUP6 SSTORE DUP3 ISZERO PUSH2 0xE7 JUMPI SWAP2 DUP3 ADD JUMPDEST DUP3 DUP2 GT ISZERO PUSH2 0xE6 JUMPI DUP3 MLOAD DUP3 SSTORE SWAP2 PUSH1 0x20 ADD SWAP2 SWAP1 PUSH1 0x1 ADD SWAP1 PUSH2 0xCB JUMP JUMPDEST JUMPDEST POP SWAP1 POP PUSH2 0xF4 SWAP2 SWAP1 PUSH2 0xF8 JUMP JUMPDEST POP SWAP1 JUMP JUMPDEST JUMPDEST DUP1 DUP3 GT ISZERO PUSH2 0x111 JUMPI PUSH1 0x0 DUP2 PUSH1 0x0 SWAP1 SSTORE POP PUSH1 0x1 ADD PUSH2 0xF9 JUMP JUMPDEST POP SWAP1 JUMP JUMPDEST PUSH1 0x0 PUSH2 0x128 PUSH2 0x123 DUP5 PUSH2 0x243 JUMP JUMPDEST PUSH2 0x21E JUMP JUMPDEST SWAP1 POP DUP3 DUP2 MSTORE PUSH1 0x20 DUP2 ADD DUP5 DUP5 DUP5 ADD GT ISZERO PUSH2 0x144 JUMPI PUSH2 0x143 PUSH2 0x383 JUMP JUMPDEST JUMPDEST PUSH2 0x14F DUP5 DUP3 DUP6 PUSH2 0x28A JUMP JUMPDEST POP SWAP4 SWAP3 POP POP POP JUMP JUMPDEST PUSH1 0x0 DUP2 MLOAD SWAP1 POP PUSH2 0x166 DUP2 PUSH2 0x3A3 JUMP JUMPDEST SWAP3 SWAP2 POP POP JUMP JUMPDEST PUSH1 0x0 DUP3 PUSH1 0x1F DUP4 ADD SLT PUSH2 0x181 JUMPI PUSH2 0x180 PUSH2 0x37E JUMP JUMPDEST JUMPDEST DUP2 MLOAD PUSH2 0x191 DUP5 DUP3 PUSH1 0x20 DUP7 ADD PUSH2 0x115 JUMP JUMPDEST SWAP2 POP POP SWAP3 SWAP2 POP POP JUMP JUMPDEST PUSH1 0x0 DUP2 MLOAD SWAP1 POP PUSH2 0x1A9 DUP2 PUSH2 0x3BA JUMP JUMPDEST SWAP3 SWAP2 POP POP JUMP JUMPDEST PUSH1 0x0 DUP1 PUSH1 0x0 PUSH1 0x60 DUP5 DUP7 SUB SLT ISZERO PUSH2 0x1C8 JUMPI PUSH2 0x1C7 PUSH2 0x38D JUMP JUMPDEST JUMPDEST PUSH1 0x0 PUSH2 0x1D6 DUP7 DUP3 DUP8 ADD PUSH2 0x19A JUMP JUMPDEST SWAP4 POP POP PUSH1 0x20 DUP5 ADD MLOAD PUSH8 0xFFFFFFFFFFFFFFFF DUP2 GT ISZERO PUSH2 0x1F7 JUMPI PUSH2 0x1F6 PUSH2 0x388 JUMP JUMPDEST JUMPDEST PUSH2 0x203 DUP7 DUP3 DUP8 ADD PUSH2 0x16C JUMP JUMPDEST SWAP3 POP POP PUSH1 0x40 PUSH2 0x214 DUP7 DUP3 DUP8 ADD PUSH2 0x157 JUMP JUMPDEST SWAP2 POP POP SWAP3 POP SWAP3 POP SWAP3 JUMP JUMPDEST PUSH1 0x0 PUSH2 0x228 PUSH2 0x239 JUMP JUMPDEST SWAP1 POP PUSH2 0x234 DUP3 DUP3 PUSH2 0x2EF JUMP JUMPDEST SWAP2 SWAP1 POP JUMP JUMPDEST PUSH1 0x0 PUSH1 0x40 MLOAD SWAP1 POP SWAP1 JUMP JUMPDEST PUSH1 0x0 PUSH8 0xFFFFFFFFFFFFFFFF DUP3 GT ISZERO PUSH2 0x25E JUMPI PUSH2 0x25D PUSH2 0x34F JUMP JUMPDEST JUMPDEST PUSH2 0x267 DUP3 PUSH2 0x392 JUMP JUMPDEST SWAP1 POP PUSH1 0x20 DUP2 ADD SWAP1 POP SWAP2 SWAP1 POP JUMP JUMPDEST PUSH1 0x0 DUP2 ISZERO ISZERO SWAP1 POP SWAP2 SWAP1 POP JUMP JUMPDEST PUSH1 0x0 DUP2 SWAP1 POP SWAP2 SWAP1 POP JUMP JUMPDEST PUSH1 0x0 JUMPDEST DUP4 DUP2 LT ISZERO PUSH2 0x2A8 JUMPI DUP1 DUP3 ADD MLOAD DUP2 DUP5 ADD MSTORE PUSH1 0x20 DUP2 ADD SWAP1 POP PUSH2 0x28D JUMP JUMPDEST DUP4 DUP2 GT ISZERO PUSH2 0x2B7 JUMPI PUSH1 0x0 DUP5 DUP5 ADD MSTORE JUMPDEST POP POP POP POP JUMP JUMPDEST PUSH1 0x0 PUSH1 0x2 DUP3 DIV SWAP1 POP PUSH1 0x1 DUP3 AND DUP1 PUSH2 0x2D5 JUMPI PUSH1 0x7F DUP3 AND SWAP2 POP JUMPDEST PUSH1 0x20 DUP3 LT DUP2 EQ ISZERO PUSH2 0x2E9 JUMPI PUSH2 0x2E8 PUSH2 0x320 JUMP JUMPDEST JUMPDEST POP SWAP2 SWAP1 POP JUMP JUMPDEST PUSH2 0x2F8 DUP3 PUSH2 0x392 JUMP JUMPDEST DUP2 ADD DUP2 DUP2 LT PUSH8 0xFFFFFFFFFFFFFFFF DUP3 GT OR ISZERO PUSH2 0x317 JUMPI PUSH2 0x316 PUSH2 0x34F JUMP JUMPDEST JUMPDEST DUP1 PUSH1 0x40 MSTORE POP POP POP JUMP JUMPDEST PUSH32 0x4E487B7100000000000000000000000000000000000000000000000000000000 PUSH1 0x0 MSTORE PUSH1 0x22 PUSH1 0x4 MSTORE PUSH1 0x24 PUSH1 0x0 REVERT JUMPDEST PUSH32 0x4E487B7100000000000000000000000000000000000000000000000000000000 PUSH1 0x0 MSTORE PUSH1 0x41 PUSH1 0x4 MSTORE PUSH1 0x24 PUSH1 0x0 REVERT JUMPDEST PUSH1 0x0 DUP1 REVERT JUMPDEST PUSH1 0x0 DUP1 REVERT JUMPDEST PUSH1 0x0 DUP1 REVERT JUMPDEST PUSH1 0x0 DUP1 REVERT JUMPDEST PUSH1 0x0 PUSH1 0x1F NOT PUSH1 0x1F DUP4 ADD AND SWAP1 POP SWAP2 SWAP1 POP JUMP JUMPDEST PUSH2 0x3AC DUP2 PUSH2 0x274 JUMP JUMPDEST DUP2 EQ PUSH2 0x3B7 JUMPI PUSH1 0x0 DUP1 REVERT JUMPDEST POP JUMP JUMPDEST PUSH2 0x3C3 DUP2 PUSH2 0x280 JUMP JUMPDEST DUP2 EQ PUSH2 0x3CE JUMPI PUSH1 0x0 DUP1 REVERT JUMPDEST POP JUMP JUMPDEST PUSH2 0x16F DUP1 PUSH2 0x3E0 PUSH1 0x0 CODECOPY PUSH1 0x0 RETURN INVALID PUSH1 0x80 PUSH1 0x40 MSTORE CALLVALUE DUP1 ISZERO PUSH2 0x10 JUMPI PUSH1 0x0 DUP1 REVERT JUMPDEST POP PUSH1 0x4 CALLDATASIZE LT PUSH2 0x36 JUMPI PUSH1 0x0 CALLDATALOAD PUSH1 0xE0 SHR DUP1 PUSH4 0x26A18375 EQ PUSH2 0x3B JUMPI DUP1 PUSH4 0xAB9DBD07 EQ PUSH2 0x57 JUMPI JUMPDEST PUSH1 0x0 DUP1 REVERT JUMPDEST PUSH2 0x55 PUSH1 0x4 DUP1 CALLDATASIZE SUB DUP2 ADD SWAP1 PUSH2 0x50 SWAP2 SWAP1 PUSH2 0xB0 JUMP JUMPDEST PUSH2 0x75 JUMP JUMPDEST STOP JUMPDEST PUSH2 0x5F PUSH2 0x92 JUMP JUMPDEST PUSH1 0x40 MLOAD PUSH2 0x6C SWAP2 SWAP1 PUSH2 0xEC JUMP JUMPDEST PUSH1 0x40 MLOAD DUP1 SWAP2 SUB SWAP1 RETURN JUMPDEST DUP1 PUSH1 0x2 PUSH1 0x0 PUSH2 0x100 EXP DUP2 SLOAD DUP2 PUSH1 0xFF MUL NOT AND SWAP1 DUP4 ISZERO ISZERO MUL OR SWAP1 SSTORE POP POP JUMP JUMPDEST PUSH1 0x0 DUP1 SLOAD SWAP1 POP SWAP1 JUMP JUMPDEST PUSH1 0x0 DUP2 CALLDATALOAD SWAP1 POP PUSH2 0xAA DUP2 PUSH2 0x122 JUMP JUMPDEST SWAP3 SWAP2 POP POP JUMP JUMPDEST PUSH1 0x0 PUSH1 0x20 DUP3 DUP5 SUB SLT ISZERO PUSH2 0xC6 JUMPI PUSH2 0xC5 PUSH2 0x11D JUMP JUMPDEST JUMPDEST PUSH1 0x0 PUSH2 0xD4 DUP5 DUP3 DUP6 ADD PUSH2 0x9B JUMP JUMPDEST SWAP2 POP POP SWAP3 SWAP2 POP POP JUMP JUMPDEST PUSH2 0xE6 DUP2 PUSH2 0x113 JUMP JUMPDEST DUP3 MSTORE POP POP JUMP JUMPDEST PUSH1 0x0 PUSH1 0x20 DUP3 ADD SWAP1 POP PUSH2 0x101 PUSH1 0x0 DUP4 ADD DUP5 PUSH2 0xDD JUMP JUMPDEST SWAP3 SWAP2 POP POP JUMP JUMPDEST PUSH1 0x0 DUP2 ISZERO ISZERO SWAP1 POP SWAP2 SWAP1 POP JUMP JUMPDEST PUSH1 0x0 DUP2 SWAP1 POP SWAP2 SWAP1 POP JUMP JUMPDEST PUSH1 0x0 DUP1 REVERT JUMPDEST PUSH2 0x12B DUP2 PUSH2 0x107 JUMP JUMPDEST DUP2 EQ PUSH2 0x136 JUMPI PUSH1 0x0 DUP1 REVERT JUMPDEST POP JUMP INVALID LOG2 PUSH5 0x6970667358 0x22 SLT KECCAK256 PUSH13 0x8458338DE5D6767AD2C5C07DA9 SWAP2 0xF9 0xEB 0x29 0xE6 0xCB 0xE 0xD9 0xE7 JUMP 0xBC SWAP14 PUSH23 0x3DFC8CF9D564736F6C6343000807003300000000000000 "
				},
				"gasEstimates": {
					"creation": {
						"codeDepositCost": "73400",
						"executionCost": "infinite",
						"totalCost": "infinite"
					},
					"external": {
						"getID()": "2437",
						"setAvailability(bool)": "24657"
					}
				},
				"methodIdentifiers": {
					"getID()": "ab9dbd07",
					"setAvailability(bool)": "26a18375"
				}
			},
			"storageLayout": {
				"storage": [
					{
						"astId": 3,
						"contract": "contracts/Car.sol:Car",
						"label": "carID",
						"offset": 0,
						"slot": "0",
						"type": "t_uint256"
					},
					{
						"astId": 5,
						"contract": "contracts/Car.sol:Car",
						"label": "carName",
						"offset": 0,
						"slot": "1",
						"type": "t_string_storage"
					},
					{
						"astId": 7,
						"contract": "contracts/Car.sol:Car",
						"label": "availability",
						"offset": 0,
						"slot": "2",
						"type": "t_bool"
					}
				],
				"types": {
					"t_bool": {
						"encoding": "inplace",
						"label": "bool",
						"numberOfBytes": "1"
					},
					"t_string_storage": {
						"encoding": "bytes",
						"label": "string",
						"numberOfBytes": "32"
					},
					"t_uint256": {
						"encoding": "inplace",
						"label": "uint256",
						"numberOfBytes": "32"
					}
				}
			},
			"userdoc": {
				"kind": "user",
				"methods": {},
				"version": 1
			}
		}
	}
}