{
	"data": {
		"bytecode": {
			"linkReferences": {},
			"object": "6080604052600567ffffffffffffffff81111561001f5761001e61011d565b5b60405190808252806020026020018201604052801561004d5781602001602082028036833780820191505090505b5060009080519060200190610063929190610076565b5034801561007057600080fd5b5061014c565b8280548282559060005260206000209081019282156100ef579160200282015b828111156100ee5782518260006101000a81548173ffffffffffffffffffffffffffffffffffffffff021916908373ffffffffffffffffffffffffffffffffffffffff16021790555091602001919060010190610096565b5b5090506100fc9190610100565b5090565b5b80821115610119576000816000905550600101610101565b5090565b7f4e487b7100000000000000000000000000000000000000000000000000000000600052604160045260246000fd5b610eaf8061015b6000396000f3fe60806040523480156200001157600080fd5b50600436106200003a5760003560e01c806317c39286146200003f57806334f719e11462000061575b600080fd5b6200004962000081565b604051620000589190620003e2565b60405180910390f35b6200007f60048036038101906200007991906200026f565b62000111565b005b606060008054806020026020016040519081016040528092919081815260200182805480156200010757602002820191906000526020600020905b8160009054906101000a900473ffffffffffffffffffffffffffffffffffffffff1673ffffffffffffffffffffffffffffffffffffffff1681526020019060010190808311620000bc575b5050505050905090565b60008383836040516200012490620001b5565b620001329392919062000406565b604051809103906000f0801580156200014f573d6000803e3d6000fd5b509080600181540180825580915050600190039060005260206000200160009091909190916101000a81548173ffffffffffffffffffffffffffffffffffffffff021916908373ffffffffffffffffffffffffffffffffffffffff160217905550505050565b610806806200067483390190565b6000620001da620001d48462000473565b6200044a565b905082815260208101848484011115620001f957620001f86200061f565b5b6200020684828562000570565b509392505050565b6000813590506200021f816200063f565b92915050565b600082601f8301126200023d576200023c6200061a565b5b81356200024f848260208601620001c3565b91505092915050565b600081359050620002698162000659565b92915050565b6000806000606084860312156200028b576200028a62000629565b5b60006200029b8682870162000258565b935050602084013567ffffffffffffffff811115620002bf57620002be62000624565b5b620002cd8682870162000225565b9250506040620002e0868287016200020e565b9150509250925092565b6000620002f883836200037f565b60208301905092915050565b60006200031182620004b9565b6200031d8185620004dc565b93506200032a83620004a9565b8060005b8381101562000361578151620003458882620002ea565b97506200035283620004cf565b9250506001810190506200032e565b5085935050505092915050565b6200037981620004fe565b82525050565b6200038a8162000534565b82525050565b60006200039d82620004c4565b620003a98185620004ed565b9350620003bb8185602086016200057f565b620003c6816200062e565b840191505092915050565b620003dc816200052a565b82525050565b60006020820190508181036000830152620003fe818462000304565b905092915050565b60006060820190506200041d6000830186620003d1565b818103602083015262000431818562000390565b90506200044260408301846200036e565b949350505050565b60006200045662000469565b9050620004648282620005b5565b919050565b6000604051905090565b600067ffffffffffffffff821115620004915762000490620005eb565b5b6200049c826200062e565b9050602081019050919050565b6000819050602082019050919050565b600081519050919050565b600081519050919050565b6000602082019050919050565b600082825260208201905092915050565b600082825260208201905092915050565b60008115159050919050565b600073ffffffffffffffffffffffffffffffffffffffff82169050919050565b6000819050919050565b6000620005418262000548565b9050919050565b600062000555826200055c565b9050919050565b600062000569826200050a565b9050919050565b82818337600083830152505050565b60005b838110156200059f57808201518184015260208101905062000582565b83811115620005af576000848401525b50505050565b620005c0826200062e565b810181811067ffffffffffffffff82111715620005e257620005e1620005eb565b5b80604052505050565b7f4e487b7100000000000000000000000000000000000000000000000000000000600052604160045260246000fd5b600080fd5b600080fd5b600080fd5b600080fd5b6000601f19601f8301169050919050565b6200064a81620004fe565b81146200065657600080fd5b50565b62000664816200052a565b81146200067057600080fd5b5056fe60806040523480156200001157600080fd5b5060405162000806380380620008068339818101604052810190620000379190620001d6565b826000819055508160019080519060200190620000569291906200007a565b5080600260006101000a81548160ff0219169083151502179055505050506200041f565b8280546200008890620002fc565b90600052602060002090601f016020900481019282620000ac5760008555620000f8565b82601f10620000c757805160ff1916838001178555620000f8565b82800160010185558215620000f8579182015b82811115620000f7578251825591602001919060010190620000da565b5b5090506200010791906200010b565b5090565b5b80821115620001265760008160009055506001016200010c565b5090565b6000620001416200013b846200027a565b62000251565b90508281526020810184848401111562000160576200015f620003cb565b5b6200016d848285620002c6565b509392505050565b6000815190506200018681620003eb565b92915050565b600082601f830112620001a457620001a3620003c6565b5b8151620001b68482602086016200012a565b91505092915050565b600081519050620001d08162000405565b92915050565b600080600060608486031215620001f257620001f1620003d5565b5b60006200020286828701620001bf565b935050602084015167ffffffffffffffff811115620002265762000225620003d0565b5b62000234868287016200018c565b9250506040620002478682870162000175565b9150509250925092565b60006200025d62000270565b90506200026b828262000332565b919050565b6000604051905090565b600067ffffffffffffffff82111562000298576200029762000397565b5b620002a382620003da565b9050602081019050919050565b60008115159050919050565b6000819050919050565b60005b83811015620002e6578082015181840152602081019050620002c9565b83811115620002f6576000848401525b50505050565b600060028204905060018216806200031557607f821691505b602082108114156200032c576200032b62000368565b5b50919050565b6200033d82620003da565b810181811067ffffffffffffffff821117156200035f576200035e62000397565b5b80604052505050565b7f4e487b7100000000000000000000000000000000000000000000000000000000600052602260045260246000fd5b7f4e487b7100000000000000000000000000000000000000000000000000000000600052604160045260246000fd5b600080fd5b600080fd5b600080fd5b600080fd5b6000601f19601f8301169050919050565b620003f681620002b0565b81146200040257600080fd5b50565b6200041081620002bc565b81146200041c57600080fd5b50565b6103d7806200042f6000396000f3fe608060405234801561001057600080fd5b50600436106100575760003560e01c80631a28cc731461005c57806326a183751461007a578063ab9dbd0714610096578063c9b53900146100b4578063ea73dbd2146100d2575b600080fd5b6100646100f0565b6040516100719190610271565b60405180910390f35b610094600480360381019061008f91906101d2565b61017e565b005b61009e61019b565b6040516100ab9190610293565b60405180910390f35b6100bc6101a4565b6040516100c99190610256565b60405180910390f35b6100da6101b7565b6040516100e79190610293565b60405180910390f35b600180546100fd90610313565b80601f016020809104026020016040519081016040528092919081815260200182805461012990610313565b80156101765780601f1061014b57610100808354040283529160200191610176565b820191906000526020600020905b81548152906001019060200180831161015957829003601f168201915b505050505081565b80600260006101000a81548160ff02191690831515021790555050565b60008054905090565b600260009054906101000a900460ff1681565b60005481565b6000813590506101cc8161038a565b92915050565b6000602082840312156101e8576101e7610374565b5b60006101f6848285016101bd565b91505092915050565b610208816102ca565b82525050565b6000610219826102ae565b61022381856102b9565b93506102338185602086016102e0565b61023c81610379565b840191505092915050565b610250816102d6565b82525050565b600060208201905061026b60008301846101ff565b92915050565b6000602082019050818103600083015261028b818461020e565b905092915050565b60006020820190506102a86000830184610247565b92915050565b600081519050919050565b600082825260208201905092915050565b60008115159050919050565b6000819050919050565b60005b838110156102fe5780820151818401526020810190506102e3565b8381111561030d576000848401525b50505050565b6000600282049050600182168061032b57607f821691505b6020821081141561033f5761033e610345565b5b50919050565b7f4e487b7100000000000000000000000000000000000000000000000000000000600052602260045260246000fd5b600080fd5b6000601f19601f8301169050919050565b610393816102ca565b811461039e57600080fd5b5056fea264697066735822122087f452ae05dae797de3bf128b593c1f1bfcf987900fd9c613f44a34178457bd164736f6c63430008070033a26469706673582212205f599767de373a4963ddc23762c64e957345bf733f4e4d563e5011e657b2867564736f6c63430008070033",
			"opcodes": "PUSH1 0x80 PUSH1 0x40 MSTORE PUSH1 0x5 PUSH8 0xFFFFFFFFFFFFFFFF DUP2 GT ISZERO PUSH2 0x1F JUMPI PUSH2 0x1E PUSH2 0x11D JUMP JUMPDEST JUMPDEST PUSH1 0x40 MLOAD SWAP1 DUP1 DUP3 MSTORE DUP1 PUSH1 0x20 MUL PUSH1 0x20 ADD DUP3 ADD PUSH1 0x40 MSTORE DUP1 ISZERO PUSH2 0x4D JUMPI DUP2 PUSH1 0x20 ADD PUSH1 0x20 DUP3 MUL DUP1 CALLDATASIZE DUP4 CALLDATACOPY DUP1 DUP3 ADD SWAP2 POP POP SWAP1 POP JUMPDEST POP PUSH1 0x0 SWAP1 DUP1 MLOAD SWAP1 PUSH1 0x20 ADD SWAP1 PUSH2 0x63 SWAP3 SWAP2 SWAP1 PUSH2 0x76 JUMP JUMPDEST POP CALLVALUE DUP1 ISZERO PUSH2 0x70 JUMPI PUSH1 0x0 DUP1 REVERT JUMPDEST POP PUSH2 0x14C JUMP JUMPDEST DUP3 DUP1 SLOAD DUP3 DUP3 SSTORE SWAP1 PUSH1 0x0 MSTORE PUSH1 0x20 PUSH1 0x0 KECCAK256 SWAP1 DUP2 ADD SWAP3 DUP3 ISZERO PUSH2 0xEF JUMPI SWAP2 PUSH1 0x20 MUL DUP3 ADD JUMPDEST DUP3 DUP2 GT ISZERO PUSH2 0xEE JUMPI DUP3 MLOAD DUP3 PUSH1 0x0 PUSH2 0x100 EXP DUP2 SLOAD DUP2 PUSH20 0xFFFFFFFFFFFFFFFFFFFFFFFFFFFFFFFFFFFFFFFF MUL NOT AND SWAP1 DUP4 PUSH20 0xFFFFFFFFFFFFFFFFFFFFFFFFFFFFFFFFFFFFFFFF AND MUL OR SWAP1 SSTORE POP SWAP2 PUSH1 0x20 ADD SWAP2 SWAP1 PUSH1 0x1 ADD SWAP1 PUSH2 0x96 JUMP JUMPDEST JUMPDEST POP SWAP1 POP PUSH2 0xFC SWAP2 SWAP1 PUSH2 0x100 JUMP JUMPDEST POP SWAP1 JUMP JUMPDEST JUMPDEST DUP1 DUP3 GT ISZERO PUSH2 0x119 JUMPI PUSH1 0x0 DUP2 PUSH1 0x0 SWAP1 SSTORE POP PUSH1 0x1 ADD PUSH2 0x101 JUMP JUMPDEST POP SWAP1 JUMP JUMPDEST PUSH32 0x4E487B7100000000000000000000000000000000000000000000000000000000 PUSH1 0x0 MSTORE PUSH1 0x41 PUSH1 0x4 MSTORE PUSH1 0x24 PUSH1 0x0 REVERT JUMPDEST PUSH2 0xEAF DUP1 PUSH2 0x15B PUSH1 0x0 CODECOPY PUSH1 0x0 RETURN INVALID PUSH1 0x80 PUSH1 0x40 MSTORE CALLVALUE DUP1 ISZERO PUSH3 0x11 JUMPI PUSH1 0x0 DUP1 REVERT JUMPDEST POP PUSH1 0x4 CALLDATASIZE LT PUSH3 0x3A JUMPI PUSH1 0x0 CALLDATALOAD PUSH1 0xE0 SHR DUP1 PUSH4 0x17C39286 EQ PUSH3 0x3F JUMPI DUP1 PUSH4 0x34F719E1 EQ PUSH3 0x61 JUMPI JUMPDEST PUSH1 0x0 DUP1 REVERT JUMPDEST PUSH3 0x49 PUSH3 0x81 JUMP JUMPDEST PUSH1 0x40 MLOAD PUSH3 0x58 SWAP2 SWAP1 PUSH3 0x3E2 JUMP JUMPDEST PUSH1 0x40 MLOAD DUP1 SWAP2 SUB SWAP1 RETURN JUMPDEST PUSH3 0x7F PUSH1 0x4 DUP1 CALLDATASIZE SUB DUP2 ADD SWAP1 PUSH3 0x79 SWAP2 SWAP1 PUSH3 0x26F JUMP JUMPDEST PUSH3 0x111 JUMP JUMPDEST STOP JUMPDEST PUSH1 0x60 PUSH1 0x0 DUP1 SLOAD DUP1 PUSH1 0x20 MUL PUSH1 0x20 ADD PUSH1 0x40 MLOAD SWAP1 DUP2 ADD PUSH1 0x40 MSTORE DUP1 SWAP3 SWAP2 SWAP1 DUP2 DUP2 MSTORE PUSH1 0x20 ADD DUP3 DUP1 SLOAD DUP1 ISZERO PUSH3 0x107 JUMPI PUSH1 0x20 MUL DUP3 ADD SWAP2 SWAP1 PUSH1 0x0 MSTORE PUSH1 0x20 PUSH1 0x0 KECCAK256 SWAP1 JUMPDEST DUP2 PUSH1 0x0 SWAP1 SLOAD SWAP1 PUSH2 0x100 EXP SWAP1 DIV PUSH20 0xFFFFFFFFFFFFFFFFFFFFFFFFFFFFFFFFFFFFFFFF AND PUSH20 0xFFFFFFFFFFFFFFFFFFFFFFFFFFFFFFFFFFFFFFFF AND DUP2 MSTORE PUSH1 0x20 ADD SWAP1 PUSH1 0x1 ADD SWAP1 DUP1 DUP4 GT PUSH3 0xBC JUMPI JUMPDEST POP POP POP POP POP SWAP1 POP SWAP1 JUMP JUMPDEST PUSH1 0x0 DUP4 DUP4 DUP4 PUSH1 0x40 MLOAD PUSH3 0x124 SWAP1 PUSH3 0x1B5 JUMP JUMPDEST PUSH3 0x132 SWAP4 SWAP3 SWAP2 SWAP1 PUSH3 0x406 JUMP JUMPDEST PUSH1 0x40 MLOAD DUP1 SWAP2 SUB SWAP1 PUSH1 0x0 CREATE DUP1 ISZERO DUP1 ISZERO PUSH3 0x14F JUMPI RETURNDATASIZE PUSH1 0x0 DUP1 RETURNDATACOPY RETURNDATASIZE PUSH1 0x0 REVERT JUMPDEST POP SWAP1 DUP1 PUSH1 0x1 DUP2 SLOAD ADD DUP1 DUP3 SSTORE DUP1 SWAP2 POP POP PUSH1 0x1 SWAP1 SUB SWAP1 PUSH1 0x0 MSTORE PUSH1 0x20 PUSH1 0x0 KECCAK256 ADD PUSH1 0x0 SWAP1 SWAP2 SWAP1 SWAP2 SWAP1 SWAP2 PUSH2 0x100 EXP DUP2 SLOAD DUP2 PUSH20 0xFFFFFFFFFFFFFFFFFFFFFFFFFFFFFFFFFFFFFFFF MUL NOT AND SWAP1 DUP4 PUSH20 0xFFFFFFFFFFFFFFFFFFFFFFFFFFFFFFFFFFFFFFFF AND MUL OR SWAP1 SSTORE POP POP POP POP JUMP JUMPDEST PUSH2 0x806 DUP1 PUSH3 0x674 DUP4 CODECOPY ADD SWAP1 JUMP JUMPDEST PUSH1 0x0 PUSH3 0x1DA PUSH3 0x1D4 DUP5 PUSH3 0x473 JUMP JUMPDEST PUSH3 0x44A JUMP JUMPDEST SWAP1 POP DUP3 DUP2 MSTORE PUSH1 0x20 DUP2 ADD DUP5 DUP5 DUP5 ADD GT ISZERO PUSH3 0x1F9 JUMPI PUSH3 0x1F8 PUSH3 0x61F JUMP JUMPDEST JUMPDEST PUSH3 0x206 DUP5 DUP3 DUP6 PUSH3 0x570 JUMP JUMPDEST POP SWAP4 SWAP3 POP POP POP JUMP JUMPDEST PUSH1 0x0 DUP2 CALLDATALOAD SWAP1 POP PUSH3 0x21F DUP2 PUSH3 0x63F JUMP JUMPDEST SWAP3 SWAP2 POP POP JUMP JUMPDEST PUSH1 0x0 DUP3 PUSH1 0x1F DUP4 ADD SLT PUSH3 0x23D JUMPI PUSH3 0x23C PUSH3 0x61A JUMP JUMPDEST JUMPDEST DUP2 CALLDATALOAD PUSH3 0x24F DUP5 DUP3 PUSH1 0x20 DUP7 ADD PUSH3 0x1C3 JUMP JUMPDEST SWAP2 POP POP SWAP3 SWAP2 POP POP JUMP JUMPDEST PUSH1 0x0 DUP2 CALLDATALOAD SWAP1 POP PUSH3 0x269 DUP2 PUSH3 0x659 JUMP JUMPDEST SWAP3 SWAP2 POP POP JUMP JUMPDEST PUSH1 0x0 DUP1 PUSH1 0x0 PUSH1 0x60 DUP5 DUP7 SUB SLT ISZERO PUSH3 0x28B JUMPI PUSH3 0x28A PUSH3 0x629 JUMP JUMPDEST JUMPDEST PUSH1 0x0 PUSH3 0x29B DUP7 DUP3 DUP8 ADD PUSH3 0x258 JUMP JUMPDEST SWAP4 POP POP PUSH1 0x20 DUP5 ADD CALLDATALOAD PUSH8 0xFFFFFFFFFFFFFFFF DUP2 GT ISZERO PUSH3 0x2BF JUMPI PUSH3 0x2BE PUSH3 0x624 JUMP JUMPDEST JUMPDEST PUSH3 0x2CD DUP7 DUP3 DUP8 ADD PUSH3 0x225 JUMP JUMPDEST SWAP3 POP POP PUSH1 0x40 PUSH3 0x2E0 DUP7 DUP3 DUP8 ADD PUSH3 0x20E JUMP JUMPDEST SWAP2 POP POP SWAP3 POP SWAP3 POP SWAP3 JUMP JUMPDEST PUSH1 0x0 PUSH3 0x2F8 DUP4 DUP4 PUSH3 0x37F JUMP JUMPDEST PUSH1 0x20 DUP4 ADD SWAP1 POP SWAP3 SWAP2 POP POP JUMP JUMPDEST PUSH1 0x0 PUSH3 0x311 DUP3 PUSH3 0x4B9 JUMP JUMPDEST PUSH3 0x31D DUP2 DUP6 PUSH3 0x4DC JUMP JUMPDEST SWAP4 POP PUSH3 0x32A DUP4 PUSH3 0x4A9 JUMP JUMPDEST DUP1 PUSH1 0x0 JUMPDEST DUP4 DUP2 LT ISZERO PUSH3 0x361 JUMPI DUP2 MLOAD PUSH3 0x345 DUP9 DUP3 PUSH3 0x2EA JUMP JUMPDEST SWAP8 POP PUSH3 0x352 DUP4 PUSH3 0x4CF JUMP JUMPDEST SWAP3 POP POP PUSH1 0x1 DUP2 ADD SWAP1 POP PUSH3 0x32E JUMP JUMPDEST POP DUP6 SWAP4 POP POP POP POP SWAP3 SWAP2 POP POP JUMP JUMPDEST PUSH3 0x379 DUP2 PUSH3 0x4FE JUMP JUMPDEST DUP3 MSTORE POP POP JUMP JUMPDEST PUSH3 0x38A DUP2 PUSH3 0x534 JUMP JUMPDEST DUP3 MSTORE POP POP JUMP JUMPDEST PUSH1 0x0 PUSH3 0x39D DUP3 PUSH3 0x4C4 JUMP JUMPDEST PUSH3 0x3A9 DUP2 DUP6 PUSH3 0x4ED JUMP JUMPDEST SWAP4 POP PUSH3 0x3BB DUP2 DUP6 PUSH1 0x20 DUP7 ADD PUSH3 0x57F JUMP JUMPDEST PUSH3 0x3C6 DUP2 PUSH3 0x62E JUMP JUMPDEST DUP5 ADD SWAP2 POP POP SWAP3 SWAP2 POP POP JUMP JUMPDEST PUSH3 0x3DC DUP2 PUSH3 0x52A JUMP JUMPDEST DUP3 MSTORE POP POP JUMP JUMPDEST PUSH1 0x0 PUSH1 0x20 DUP3 ADD SWAP1 POP DUP2 DUP2 SUB PUSH1 0x0 DUP4 ADD MSTORE PUSH3 0x3FE DUP2 DUP5 PUSH3 0x304 JUMP JUMPDEST SWAP1 POP SWAP3 SWAP2 POP POP JUMP JUMPDEST PUSH1 0x0 PUSH1 0x60 DUP3 ADD SWAP1 POP PUSH3 0x41D PUSH1 0x0 DUP4 ADD DUP7 PUSH3 0x3D1 JUMP JUMPDEST DUP2 DUP2 SUB PUSH1 0x20 DUP4 ADD MSTORE PUSH3 0x431 DUP2 DUP6 PUSH3 0x390 JUMP JUMPDEST SWAP1 POP PUSH3 0x442 PUSH1 0x40 DUP4 ADD DUP5 PUSH3 0x36E JUMP JUMPDEST SWAP5 SWAP4 POP POP POP POP JUMP JUMPDEST PUSH1 0x0 PUSH3 0x456 PUSH3 0x469 JUMP JUMPDEST SWAP1 POP PUSH3 0x464 DUP3 DUP3 PUSH3 0x5B5 JUMP JUMPDEST SWAP2 SWAP1 POP JUMP JUMPDEST PUSH1 0x0 PUSH1 0x40 MLOAD SWAP1 POP SWAP1 JUMP JUMPDEST PUSH1 0x0 PUSH8 0xFFFFFFFFFFFFFFFF DUP3 GT ISZERO PUSH3 0x491 JUMPI PUSH3 0x490 PUSH3 0x5EB JUMP JUMPDEST JUMPDEST PUSH3 0x49C DUP3 PUSH3 0x62E JUMP JUMPDEST SWAP1 POP PUSH1 0x20 DUP2 ADD SWAP1 POP SWAP2 SWAP1 POP JUMP JUMPDEST PUSH1 0x0 DUP2 SWAP1 POP PUSH1 0x20 DUP3 ADD SWAP1 POP SWAP2 SWAP1 POP JUMP JUMPDEST PUSH1 0x0 DUP2 MLOAD SWAP1 POP SWAP2 SWAP1 POP JUMP JUMPDEST PUSH1 0x0 DUP2 MLOAD SWAP1 POP SWAP2 SWAP1 POP JUMP JUMPDEST PUSH1 0x0 PUSH1 0x20 DUP3 ADD SWAP1 POP SWAP2 SWAP1 POP JUMP JUMPDEST PUSH1 0x0 DUP3 DUP3 MSTORE PUSH1 0x20 DUP3 ADD SWAP1 POP SWAP3 SWAP2 POP POP JUMP JUMPDEST PUSH1 0x0 DUP3 DUP3 MSTORE PUSH1 0x20 DUP3 ADD SWAP1 POP SWAP3 SWAP2 POP POP JUMP JUMPDEST PUSH1 0x0 DUP2 ISZERO ISZERO SWAP1 POP SWAP2 SWAP1 POP JUMP JUMPDEST PUSH1 0x0 PUSH20 0xFFFFFFFFFFFFFFFFFFFFFFFFFFFFFFFFFFFFFFFF DUP3 AND SWAP1 POP SWAP2 SWAP1 POP JUMP JUMPDEST PUSH1 0x0 DUP2 SWAP1 POP SWAP2 SWAP1 POP JUMP JUMPDEST PUSH1 0x0 PUSH3 0x541 DUP3 PUSH3 0x548 JUMP JUMPDEST SWAP1 POP SWAP2 SWAP1 POP JUMP JUMPDEST PUSH1 0x0 PUSH3 0x555 DUP3 PUSH3 0x55C JUMP JUMPDEST SWAP1 POP SWAP2 SWAP1 POP JUMP JUMPDEST PUSH1 0x0 PUSH3 0x569 DUP3 PUSH3 0x50A JUMP JUMPDEST SWAP1 POP SWAP2 SWAP1 POP JUMP JUMPDEST DUP3 DUP2 DUP4 CALLDATACOPY PUSH1 0x0 DUP4 DUP4 ADD MSTORE POP POP POP JUMP JUMPDEST PUSH1 0x0 JUMPDEST DUP4 DUP2 LT ISZERO PUSH3 0x59F JUMPI DUP1 DUP3 ADD MLOAD DUP2 DUP5 ADD MSTORE PUSH1 0x20 DUP2 ADD SWAP1 POP PUSH3 0x582 JUMP JUMPDEST DUP4 DUP2 GT ISZERO PUSH3 0x5AF JUMPI PUSH1 0x0 DUP5 DUP5 ADD MSTORE JUMPDEST POP POP POP POP JUMP JUMPDEST PUSH3 0x5C0 DUP3 PUSH3 0x62E JUMP JUMPDEST DUP2 ADD DUP2 DUP2 LT PUSH8 0xFFFFFFFFFFFFFFFF DUP3 GT OR ISZERO PUSH3 0x5E2 JUMPI PUSH3 0x5E1 PUSH3 0x5EB JUMP JUMPDEST JUMPDEST DUP1 PUSH1 0x40 MSTORE POP POP POP JUMP JUMPDEST PUSH32 0x4E487B7100000000000000000000000000000000000000000000000000000000 PUSH1 0x0 MSTORE PUSH1 0x41 PUSH1 0x4 MSTORE PUSH1 0x24 PUSH1 0x0 REVERT JUMPDEST PUSH1 0x0 DUP1 REVERT JUMPDEST PUSH1 0x0 DUP1 REVERT JUMPDEST PUSH1 0x0 DUP1 REVERT JUMPDEST PUSH1 0x0 DUP1 REVERT JUMPDEST PUSH1 0x0 PUSH1 0x1F NOT PUSH1 0x1F DUP4 ADD AND SWAP1 POP SWAP2 SWAP1 POP JUMP JUMPDEST PUSH3 0x64A DUP2 PUSH3 0x4FE JUMP JUMPDEST DUP2 EQ PUSH3 0x656 JUMPI PUSH1 0x0 DUP1 REVERT JUMPDEST POP JUMP JUMPDEST PUSH3 0x664 DUP2 PUSH3 0x52A JUMP JUMPDEST DUP2 EQ PUSH3 0x670 JUMPI PUSH1 0x0 DUP1 REVERT JUMPDEST POP JUMP INVALID PUSH1 0x80 PUSH1 0x40 MSTORE CALLVALUE DUP1 ISZERO PUSH3 0x11 JUMPI PUSH1 0x0 DUP1 REVERT JUMPDEST POP PUSH1 0x40 MLOAD PUSH3 0x806 CODESIZE SUB DUP1 PUSH3 0x806 DUP4 CODECOPY DUP2 DUP2 ADD PUSH1 0x40 MSTORE DUP2 ADD SWAP1 PUSH3 0x37 SWAP2 SWAP1 PUSH3 0x1D6 JUMP JUMPDEST DUP3 PUSH1 0x0 DUP2 SWAP1 SSTORE POP DUP2 PUSH1 0x1 SWAP1 DUP1 MLOAD SWAP1 PUSH1 0x20 ADD SWAP1 PUSH3 0x56 SWAP3 SWAP2 SWAP1 PUSH3 0x7A JUMP JUMPDEST POP DUP1 PUSH1 0x2 PUSH1 0x0 PUSH2 0x100 EXP DUP2 SLOAD DUP2 PUSH1 0xFF MUL NOT AND SWAP1 DUP4 ISZERO ISZERO MUL OR SWAP1 SSTORE POP POP POP POP PUSH3 0x41F JUMP JUMPDEST DUP3 DUP1 SLOAD PUSH3 0x88 SWAP1 PUSH3 0x2FC JUMP JUMPDEST SWAP1 PUSH1 0x0 MSTORE PUSH1 0x20 PUSH1 0x0 KECCAK256 SWAP1 PUSH1 0x1F ADD PUSH1 0x20 SWAP1 DIV DUP2 ADD SWAP3 DUP3 PUSH3 0xAC JUMPI PUSH1 0x0 DUP6 SSTORE PUSH3 0xF8 JUMP JUMPDEST DUP3 PUSH1 0x1F LT PUSH3 0xC7 JUMPI DUP1 MLOAD PUSH1 0xFF NOT AND DUP4 DUP1 ADD OR DUP6 SSTORE PUSH3 0xF8 JUMP JUMPDEST DUP3 DUP1 ADD PUSH1 0x1 ADD DUP6 SSTORE DUP3 ISZERO PUSH3 0xF8 JUMPI SWAP2 DUP3 ADD JUMPDEST DUP3 DUP2 GT ISZERO PUSH3 0xF7 JUMPI DUP3 MLOAD DUP3 SSTORE SWAP2 PUSH1 0x20 ADD SWAP2 SWAP1 PUSH1 0x1 ADD SWAP1 PUSH3 0xDA JUMP JUMPDEST JUMPDEST POP SWAP1 POP PUSH3 0x107 SWAP2 SWAP1 PUSH3 0x10B JUMP JUMPDEST POP SWAP1 JUMP JUMPDEST JUMPDEST DUP1 DUP3 GT ISZERO PUSH3 0x126 JUMPI PUSH1 0x0 DUP2 PUSH1 0x0 SWAP1 SSTORE POP PUSH1 0x1 ADD PUSH3 0x10C JUMP JUMPDEST POP SWAP1 JUMP JUMPDEST PUSH1 0x0 PUSH3 0x141 PUSH3 0x13B DUP5 PUSH3 0x27A JUMP JUMPDEST PUSH3 0x251 JUMP JUMPDEST SWAP1 POP DUP3 DUP2 MSTORE PUSH1 0x20 DUP2 ADD DUP5 DUP5 DUP5 ADD GT ISZERO PUSH3 0x160 JUMPI PUSH3 0x15F PUSH3 0x3CB JUMP JUMPDEST JUMPDEST PUSH3 0x16D DUP5 DUP3 DUP6 PUSH3 0x2C6 JUMP JUMPDEST POP SWAP4 SWAP3 POP POP POP JUMP JUMPDEST PUSH1 0x0 DUP2 MLOAD SWAP1 POP PUSH3 0x186 DUP2 PUSH3 0x3EB JUMP JUMPDEST SWAP3 SWAP2 POP POP JUMP JUMPDEST PUSH1 0x0 DUP3 PUSH1 0x1F DUP4 ADD SLT PUSH3 0x1A4 JUMPI PUSH3 0x1A3 PUSH3 0x3C6 JUMP JUMPDEST JUMPDEST DUP2 MLOAD PUSH3 0x1B6 DUP5 DUP3 PUSH1 0x20 DUP7 ADD PUSH3 0x12A JUMP JUMPDEST SWAP2 POP POP SWAP3 SWAP2 POP POP JUMP JUMPDEST PUSH1 0x0 DUP2 MLOAD SWAP1 POP PUSH3 0x1D0 DUP2 PUSH3 0x405 JUMP JUMPDEST SWAP3 SWAP2 POP POP JUMP JUMPDEST PUSH1 0x0 DUP1 PUSH1 0x0 PUSH1 0x60 DUP5 DUP7 SUB SLT ISZERO PUSH3 0x1F2 JUMPI PUSH3 0x1F1 PUSH3 0x3D5 JUMP JUMPDEST JUMPDEST PUSH1 0x0 PUSH3 0x202 DUP7 DUP3 DUP8 ADD PUSH3 0x1BF JUMP JUMPDEST SWAP4 POP POP PUSH1 0x20 DUP5 ADD MLOAD PUSH8 0xFFFFFFFFFFFFFFFF DUP2 GT ISZERO PUSH3 0x226 JUMPI PUSH3 0x225 PUSH3 0x3D0 JUMP JUMPDEST JUMPDEST PUSH3 0x234 DUP7 DUP3 DUP8 ADD PUSH3 0x18C JUMP JUMPDEST SWAP3 POP POP PUSH1 0x40 PUSH3 0x247 DUP7 DUP3 DUP8 ADD PUSH3 0x175 JUMP JUMPDEST SWAP2 POP POP SWAP3 POP SWAP3 POP SWAP3 JUMP JUMPDEST PUSH1 0x0 PUSH3 0x25D PUSH3 0x270 JUMP JUMPDEST SWAP1 POP PUSH3 0x26B DUP3 DUP3 PUSH3 0x332 JUMP JUMPDEST SWAP2 SWAP1 POP JUMP JUMPDEST PUSH1 0x0 PUSH1 0x40 MLOAD SWAP1 POP SWAP1 JUMP JUMPDEST PUSH1 0x0 PUSH8 0xFFFFFFFFFFFFFFFF DUP3 GT ISZERO PUSH3 0x298 JUMPI PUSH3 0x297 PUSH3 0x397 JUMP JUMPDEST JUMPDEST PUSH3 0x2A3 DUP3 PUSH3 0x3DA JUMP JUMPDEST SWAP1 POP PUSH1 0x20 DUP2 ADD SWAP1 POP SWAP2 SWAP1 POP JUMP JUMPDEST PUSH1 0x0 DUP2 ISZERO ISZERO SWAP1 POP SWAP2 SWAP1 POP JUMP JUMPDEST PUSH1 0x0 DUP2 SWAP1 POP SWAP2 SWAP1 POP JUMP JUMPDEST PUSH1 0x0 JUMPDEST DUP4 DUP2 LT ISZERO PUSH3 0x2E6 JUMPI DUP1 DUP3 ADD MLOAD DUP2 DUP5 ADD MSTORE PUSH1 0x20 DUP2 ADD SWAP1 POP PUSH3 0x2C9 JUMP JUMPDEST DUP4 DUP2 GT ISZERO PUSH3 0x2F6 JUMPI PUSH1 0x0 DUP5 DUP5 ADD MSTORE JUMPDEST POP POP POP POP JUMP JUMPDEST PUSH1 0x0 PUSH1 0x2 DUP3 DIV SWAP1 POP PUSH1 0x1 DUP3 AND DUP1 PUSH3 0x315 JUMPI PUSH1 0x7F DUP3 AND SWAP2 POP JUMPDEST PUSH1 0x20 DUP3 LT DUP2 EQ ISZERO PUSH3 0x32C JUMPI PUSH3 0x32B PUSH3 0x368 JUMP JUMPDEST JUMPDEST POP SWAP2 SWAP1 POP JUMP JUMPDEST PUSH3 0x33D DUP3 PUSH3 0x3DA JUMP JUMPDEST DUP2 ADD DUP2 DUP2 LT PUSH8 0xFFFFFFFFFFFFFFFF DUP3 GT OR ISZERO PUSH3 0x35F JUMPI PUSH3 0x35E PUSH3 0x397 JUMP JUMPDEST JUMPDEST DUP1 PUSH1 0x40 MSTORE POP POP POP JUMP JUMPDEST PUSH32 0x4E487B7100000000000000000000000000000000000000000000000000000000 PUSH1 0x0 MSTORE PUSH1 0x22 PUSH1 0x4 MSTORE PUSH1 0x24 PUSH1 0x0 REVERT JUMPDEST PUSH32 0x4E487B7100000000000000000000000000000000000000000000000000000000 PUSH1 0x0 MSTORE PUSH1 0x41 PUSH1 0x4 MSTORE PUSH1 0x24 PUSH1 0x0 REVERT JUMPDEST PUSH1 0x0 DUP1 REVERT JUMPDEST PUSH1 0x0 DUP1 REVERT JUMPDEST PUSH1 0x0 DUP1 REVERT JUMPDEST PUSH1 0x0 DUP1 REVERT JUMPDEST PUSH1 0x0 PUSH1 0x1F NOT PUSH1 0x1F DUP4 ADD AND SWAP1 POP SWAP2 SWAP1 POP JUMP JUMPDEST PUSH3 0x3F6 DUP2 PUSH3 0x2B0 JUMP JUMPDEST DUP2 EQ PUSH3 0x402 JUMPI PUSH1 0x0 DUP1 REVERT JUMPDEST POP JUMP JUMPDEST PUSH3 0x410 DUP2 PUSH3 0x2BC JUMP JUMPDEST DUP2 EQ PUSH3 0x41C JUMPI PUSH1 0x0 DUP1 REVERT JUMPDEST POP JUMP JUMPDEST PUSH2 0x3D7 DUP1 PUSH3 0x42F PUSH1 0x0 CODECOPY PUSH1 0x0 RETURN INVALID PUSH1 0x80 PUSH1 0x40 MSTORE CALLVALUE DUP1 ISZERO PUSH2 0x10 JUMPI PUSH1 0x0 DUP1 REVERT JUMPDEST POP PUSH1 0x4 CALLDATASIZE LT PUSH2 0x57 JUMPI PUSH1 0x0 CALLDATALOAD PUSH1 0xE0 SHR DUP1 PUSH4 0x1A28CC73 EQ PUSH2 0x5C JUMPI DUP1 PUSH4 0x26A18375 EQ PUSH2 0x7A JUMPI DUP1 PUSH4 0xAB9DBD07 EQ PUSH2 0x96 JUMPI DUP1 PUSH4 0xC9B53900 EQ PUSH2 0xB4 JUMPI DUP1 PUSH4 0xEA73DBD2 EQ PUSH2 0xD2 JUMPI JUMPDEST PUSH1 0x0 DUP1 REVERT JUMPDEST PUSH2 0x64 PUSH2 0xF0 JUMP JUMPDEST PUSH1 0x40 MLOAD PUSH2 0x71 SWAP2 SWAP1 PUSH2 0x271 JUMP JUMPDEST PUSH1 0x40 MLOAD DUP1 SWAP2 SUB SWAP1 RETURN JUMPDEST PUSH2 0x94 PUSH1 0x4 DUP1 CALLDATASIZE SUB DUP2 ADD SWAP1 PUSH2 0x8F SWAP2 SWAP1 PUSH2 0x1D2 JUMP JUMPDEST PUSH2 0x17E JUMP JUMPDEST STOP JUMPDEST PUSH2 0x9E PUSH2 0x19B JUMP JUMPDEST PUSH1 0x40 MLOAD PUSH2 0xAB SWAP2 SWAP1 PUSH2 0x293 JUMP JUMPDEST PUSH1 0x40 MLOAD DUP1 SWAP2 SUB SWAP1 RETURN JUMPDEST PUSH2 0xBC PUSH2 0x1A4 JUMP JUMPDEST PUSH1 0x40 MLOAD PUSH2 0xC9 SWAP2 SWAP1 PUSH2 0x256 JUMP JUMPDEST PUSH1 0x40 MLOAD DUP1 SWAP2 SUB SWAP1 RETURN JUMPDEST PUSH2 0xDA PUSH2 0x1B7 JUMP JUMPDEST PUSH1 0x40 MLOAD PUSH2 0xE7 SWAP2 SWAP1 PUSH2 0x293 JUMP JUMPDEST PUSH1 0x40 MLOAD DUP1 SWAP2 SUB SWAP1 RETURN JUMPDEST PUSH1 0x1 DUP1 SLOAD PUSH2 0xFD SWAP1 PUSH2 0x313 JUMP JUMPDEST DUP1 PUSH1 0x1F ADD PUSH1 0x20 DUP1 SWAP2 DIV MUL PUSH1 0x20 ADD PUSH1 0x40 MLOAD SWAP1 DUP2 ADD PUSH1 0x40 MSTORE DUP1 SWAP3 SWAP2 SWAP1 DUP2 DUP2 MSTORE PUSH1 0x20 ADD DUP3 DUP1 SLOAD PUSH2 0x129 SWAP1 PUSH2 0x313 JUMP JUMPDEST DUP1 ISZERO PUSH2 0x176 JUMPI DUP1 PUSH1 0x1F LT PUSH2 0x14B JUMPI PUSH2 0x100 DUP1 DUP4 SLOAD DIV MUL DUP4 MSTORE SWAP2 PUSH1 0x20 ADD SWAP2 PUSH2 0x176 JUMP JUMPDEST DUP3 ADD SWAP2 SWAP1 PUSH1 0x0 MSTORE PUSH1 0x20 PUSH1 0x0 KECCAK256 SWAP1 JUMPDEST DUP2 SLOAD DUP2 MSTORE SWAP1 PUSH1 0x1 ADD SWAP1 PUSH1 0x20 ADD DUP1 DUP4 GT PUSH2 0x159 JUMPI DUP3 SWAP1 SUB PUSH1 0x1F AND DUP3 ADD SWAP2 JUMPDEST POP POP POP POP POP DUP2 JUMP JUMPDEST DUP1 PUSH1 0x2 PUSH1 0x0 PUSH2 0x100 EXP DUP2 SLOAD DUP2 PUSH1 0xFF MUL NOT AND SWAP1 DUP4 ISZERO ISZERO MUL OR SWAP1 SSTORE POP POP JUMP JUMPDEST PUSH1 0x0 DUP1 SLOAD SWAP1 POP SWAP1 JUMP JUMPDEST PUSH1 0x2 PUSH1 0x0 SWAP1 SLOAD SWAP1 PUSH2 0x100 EXP SWAP1 DIV PUSH1 0xFF AND DUP2 JUMP JUMPDEST PUSH1 0x0 SLOAD DUP2 JUMP JUMPDEST PUSH1 0x0 DUP2 CALLDATALOAD SWAP1 POP PUSH2 0x1CC DUP2 PUSH2 0x38A JUMP JUMPDEST SWAP3 SWAP2 POP POP JUMP JUMPDEST PUSH1 0x0 PUSH1 0x20 DUP3 DUP5 SUB SLT ISZERO PUSH2 0x1E8 JUMPI PUSH2 0x1E7 PUSH2 0x374 JUMP JUMPDEST JUMPDEST PUSH1 0x0 PUSH2 0x1F6 DUP5 DUP3 DUP6 ADD PUSH2 0x1BD JUMP JUMPDEST SWAP2 POP POP SWAP3 SWAP2 POP POP JUMP JUMPDEST PUSH2 0x208 DUP2 PUSH2 0x2CA JUMP JUMPDEST DUP3 MSTORE POP POP JUMP JUMPDEST PUSH1 0x0 PUSH2 0x219 DUP3 PUSH2 0x2AE JUMP JUMPDEST PUSH2 0x223 DUP2 DUP6 PUSH2 0x2B9 JUMP JUMPDEST SWAP4 POP PUSH2 0x233 DUP2 DUP6 PUSH1 0x20 DUP7 ADD PUSH2 0x2E0 JUMP JUMPDEST PUSH2 0x23C DUP2 PUSH2 0x379 JUMP JUMPDEST DUP5 ADD SWAP2 POP POP SWAP3 SWAP2 POP POP JUMP JUMPDEST PUSH2 0x250 DUP2 PUSH2 0x2D6 JUMP JUMPDEST DUP3 MSTORE POP POP JUMP JUMPDEST PUSH1 0x0 PUSH1 0x20 DUP3 ADD SWAP1 POP PUSH2 0x26B PUSH1 0x0 DUP4 ADD DUP5 PUSH2 0x1FF JUMP JUMPDEST SWAP3 SWAP2 POP POP JUMP JUMPDEST PUSH1 0x0 PUSH1 0x20 DUP3 ADD SWAP1 POP DUP2 DUP2 SUB PUSH1 0x0 DUP4 ADD MSTORE PUSH2 0x28B DUP2 DUP5 PUSH2 0x20E JUMP JUMPDEST SWAP1 POP SWAP3 SWAP2 POP POP JUMP JUMPDEST PUSH1 0x0 PUSH1 0x20 DUP3 ADD SWAP1 POP PUSH2 0x2A8 PUSH1 0x0 DUP4 ADD DUP5 PUSH2 0x247 JUMP JUMPDEST SWAP3 SWAP2 POP POP JUMP JUMPDEST PUSH1 0x0 DUP2 MLOAD SWAP1 POP SWAP2 SWAP1 POP JUMP JUMPDEST PUSH1 0x0 DUP3 DUP3 MSTORE PUSH1 0x20 DUP3 ADD SWAP1 POP SWAP3 SWAP2 POP POP JUMP JUMPDEST PUSH1 0x0 DUP2 ISZERO ISZERO SWAP1 POP SWAP2 SWAP1 POP JUMP JUMPDEST PUSH1 0x0 DUP2 SWAP1 POP SWAP2 SWAP1 POP JUMP JUMPDEST PUSH1 0x0 JUMPDEST DUP4 DUP2 LT ISZERO PUSH2 0x2FE JUMPI DUP1 DUP3 ADD MLOAD DUP2 DUP5 ADD MSTORE PUSH1 0x20 DUP2 ADD SWAP1 POP PUSH2 0x2E3 JUMP JUMPDEST DUP4 DUP2 GT ISZERO PUSH2 0x30D JUMPI PUSH1 0x0 DUP5 DUP5 ADD MSTORE JUMPDEST POP POP POP POP JUMP JUMPDEST PUSH1 0x0 PUSH1 0x2 DUP3 DIV SWAP1 POP PUSH1 0x1 DUP3 AND DUP1 PUSH2 0x32B JUMPI PUSH1 0x7F DUP3 AND SWAP2 POP JUMPDEST PUSH1 0x20 DUP3 LT DUP2 EQ ISZERO PUSH2 0x33F JUMPI PUSH2 0x33E PUSH2 0x345 JUMP JUMPDEST JUMPDEST POP SWAP2 SWAP1 POP JUMP JUMPDEST PUSH32 0x4E487B7100000000000000000000000000000000000000000000000000000000 PUSH1 0x0 MSTORE PUSH1 0x22 PUSH1 0x4 MSTORE PUSH1 0x24 PUSH1 0x0 REVERT JUMPDEST PUSH1 0x0 DUP1 REVERT JUMPDEST PUSH1 0x0 PUSH1 0x1F NOT PUSH1 0x1F DUP4 ADD AND SWAP1 POP SWAP2 SWAP1 POP JUMP JUMPDEST PUSH2 0x393 DUP2 PUSH2 0x2CA JUMP JUMPDEST DUP2 EQ PUSH2 0x39E JUMPI PUSH1 0x0 DUP1 REVERT JUMPDEST POP JUMP INVALID LOG2 PUSH5 0x6970667358 0x22 SLT KECCAK256 DUP8 DELEGATECALL MSTORE 0xAE SDIV 0xDA 0xE7 SWAP8 0xDE EXTCODESIZE CALL 0x28 0xB5 SWAP4 0xC1 CALL 0xBF 0xCF SWAP9 PUSH26 0xFD9C613F44A34178457BD164736F6C63430008070033A26469 PUSH17 0x6673582212205F599767DE373A4963DDC2 CALLDATACOPY PUSH3 0xC64E95 PUSH20 0x45BF733F4E4D563E5011E657B2867564736F6C63 NUMBER STOP ADDMOD SMOD STOP CALLER "
		},
		"gasEstimates": {
			"creation": {
				"codeDepositCost": "751800",
				"executionCost": "infinite",
				"totalCost": "infinite"
			},
			"external": {
				"addingCar(uint256,string,bool)": "infinite",
				"getCars()": "infinite"
			}
		},
		"methodIdentifiers": {
			"addingCar(uint256,string,bool)": "34f719e1",
			"getCars()": "17c39286"
		}
	},
	"abi": [
		{
			"inputs": [
				{
					"internalType": "uint256",
					"name": "carID",
					"type": "uint256"
				},
				{
					"internalType": "string",
					"name": "carName",
					"type": "string"
				},
				{
					"internalType": "bool",
					"name": "status",
					"type": "bool"
				}
			],
			"name": "addingCar",
			"outputs": [],
			"stateMutability": "nonpayable",
			"type": "function"
		},
		{
			"inputs": [],
			"name": "getCars",
			"outputs": [
				{
					"internalType": "contract Car[]",
					"name": "",
					"type": "address[]"
				}
			],
			"stateMutability": "view",
			"type": "function"
		}
	]
}